{
  "contractName": "Dex",
  "abi": [
    {
      "anonymous": false,
      "inputs": [
        {
          "indexed": false,
          "internalType": "uint256",
          "name": "id",
          "type": "uint256"
        },
        {
          "indexed": true,
          "internalType": "address",
          "name": "trader",
          "type": "address"
        },
        {
          "indexed": false,
          "internalType": "enum OrderBook.Side",
          "name": "side",
          "type": "uint8"
        },
        {
          "indexed": false,
          "internalType": "enum OrderBook.OrderType",
          "name": "orderType",
          "type": "uint8"
        },
        {
          "indexed": false,
          "internalType": "bytes32",
          "name": "tickerTo",
          "type": "bytes32"
        },
        {
          "indexed": false,
          "internalType": "bytes32",
          "name": "tickerFrom",
          "type": "bytes32"
        },
        {
          "indexed": false,
          "internalType": "uint256",
          "name": "price",
          "type": "uint256"
        },
        {
          "indexed": false,
          "internalType": "uint256",
          "name": "amount",
          "type": "uint256"
        }
      ],
      "name": "OrderCreated",
      "type": "event"
    },
    {
      "anonymous": false,
      "inputs": [
        {
          "indexed": false,
          "internalType": "uint256",
          "name": "id",
          "type": "uint256"
        },
        {
          "indexed": true,
          "internalType": "address",
          "name": "trader",
          "type": "address"
        },
        {
          "indexed": false,
          "internalType": "uint256",
          "name": "price",
          "type": "uint256"
        },
        {
          "indexed": false,
          "internalType": "uint256",
          "name": "filled",
          "type": "uint256"
        }
      ],
      "name": "OrderFilled",
      "type": "event"
    },
    {
      "anonymous": false,
      "inputs": [
        {
          "indexed": false,
          "internalType": "uint256",
          "name": "id",
          "type": "uint256"
        },
        {
          "indexed": true,
          "internalType": "address",
          "name": "trader",
          "type": "address"
        },
        {
          "indexed": false,
          "internalType": "uint256",
          "name": "filled",
          "type": "uint256"
        }
      ],
      "name": "OrderRemoved",
      "type": "event"
    },
    {
      "anonymous": false,
      "inputs": [
        {
          "indexed": true,
          "internalType": "address",
          "name": "previousOwner",
          "type": "address"
        },
        {
          "indexed": true,
          "internalType": "address",
          "name": "newOwner",
          "type": "address"
        }
      ],
      "name": "OwnershipTransferred",
      "type": "event"
    },
    {
      "anonymous": false,
      "inputs": [
        {
          "indexed": false,
          "internalType": "bytes32",
          "name": "tickerTo",
          "type": "bytes32"
        },
        {
          "indexed": false,
          "internalType": "bytes32",
          "name": "tickerFrom",
          "type": "bytes32"
        }
      ],
      "name": "PairAdded",
      "type": "event"
    },
    {
      "anonymous": false,
      "inputs": [
        {
          "indexed": false,
          "internalType": "bytes32",
          "name": "tickerTo",
          "type": "bytes32"
        },
        {
          "indexed": false,
          "internalType": "bytes32",
          "name": "tickerFrom",
          "type": "bytes32"
        }
      ],
      "name": "PairRemoved",
      "type": "event"
    },
    {
      "inputs": [
        {
          "internalType": "bytes32",
          "name": "ticker",
          "type": "bytes32"
        },
        {
          "internalType": "address",
          "name": "tokenAddress",
          "type": "address"
        }
      ],
      "name": "addToken",
      "outputs": [],
      "stateMutability": "nonpayable",
      "type": "function"
    },
    {
      "inputs": [
        {
          "internalType": "address",
          "name": "",
          "type": "address"
        },
        {
          "internalType": "bytes32",
          "name": "",
          "type": "bytes32"
        }
      ],
      "name": "balances",
      "outputs": [
        {
          "internalType": "uint256",
          "name": "",
          "type": "uint256"
        }
      ],
      "stateMutability": "view",
      "type": "function",
      "constant": true
    },
    {
      "inputs": [
        {
          "internalType": "uint256",
          "name": "amount",
          "type": "uint256"
        },
        {
          "internalType": "bytes32",
          "name": "ticker",
          "type": "bytes32"
        }
      ],
      "name": "deposit",
      "outputs": [],
      "stateMutability": "nonpayable",
      "type": "function"
    },
    {
      "inputs": [],
      "name": "deposit",
      "outputs": [],
      "stateMutability": "payable",
      "type": "function",
      "payable": true
    },
    {
      "inputs": [],
      "name": "owner",
      "outputs": [
        {
          "internalType": "address",
          "name": "",
          "type": "address"
        }
      ],
      "stateMutability": "view",
      "type": "function",
      "constant": true
    },
    {
      "inputs": [],
      "name": "renounceOwnership",
      "outputs": [],
      "stateMutability": "nonpayable",
      "type": "function"
    },
    {
      "inputs": [
        {
          "internalType": "uint256",
          "name": "",
          "type": "uint256"
        }
      ],
      "name": "tokenList",
      "outputs": [
        {
          "internalType": "bytes32",
          "name": "",
          "type": "bytes32"
        }
      ],
      "stateMutability": "view",
      "type": "function",
      "constant": true
    },
    {
      "inputs": [
        {
          "internalType": "bytes32",
          "name": "",
          "type": "bytes32"
        }
      ],
      "name": "tokenMapping",
      "outputs": [
        {
          "internalType": "bytes32",
          "name": "ticker",
          "type": "bytes32"
        },
        {
          "internalType": "address",
          "name": "tokenAddress",
          "type": "address"
        }
      ],
      "stateMutability": "view",
      "type": "function",
      "constant": true
    },
    {
      "inputs": [
        {
          "internalType": "address",
          "name": "newOwner",
          "type": "address"
        }
      ],
      "name": "transferOwnership",
      "outputs": [],
      "stateMutability": "nonpayable",
      "type": "function"
    },
    {
      "inputs": [
        {
          "internalType": "uint256",
          "name": "amount",
          "type": "uint256"
        }
      ],
      "name": "withdraw",
      "outputs": [],
      "stateMutability": "nonpayable",
      "type": "function"
    },
    {
      "inputs": [
        {
          "internalType": "uint256",
          "name": "amount",
          "type": "uint256"
        },
        {
          "internalType": "bytes32",
          "name": "ticker",
          "type": "bytes32"
        }
      ],
      "name": "withdraw",
      "outputs": [],
      "stateMutability": "nonpayable",
      "type": "function"
    },
    {
      "inputs": [
        {
          "internalType": "bytes32",
          "name": "tickerTo",
          "type": "bytes32"
        },
        {
          "internalType": "bytes32",
          "name": "tickerFrom",
          "type": "bytes32"
        }
      ],
      "name": "addPair",
      "outputs": [],
      "stateMutability": "nonpayable",
      "type": "function"
    },
    {
      "inputs": [
        {
          "internalType": "bytes32",
          "name": "tickerTo",
          "type": "bytes32"
        },
        {
          "internalType": "bytes32",
          "name": "tickerFrom",
          "type": "bytes32"
        }
      ],
      "name": "removePair",
      "outputs": [],
      "stateMutability": "nonpayable",
      "type": "function"
    },
    {
      "inputs": [
        {
          "internalType": "enum OrderBook.Side",
          "name": "side",
          "type": "uint8"
        },
        {
          "internalType": "enum OrderBook.OrderType",
          "name": "orderType",
          "type": "uint8"
        },
        {
          "internalType": "bytes32",
          "name": "tickerTo",
          "type": "bytes32"
        },
        {
          "internalType": "bytes32",
          "name": "tickerFrom",
          "type": "bytes32"
        },
        {
          "internalType": "uint256",
          "name": "price",
          "type": "uint256"
        },
        {
          "internalType": "uint256",
          "name": "amount",
          "type": "uint256"
        }
      ],
      "name": "createOrder",
      "outputs": [
        {
          "internalType": "uint256",
          "name": "",
          "type": "uint256"
        }
      ],
      "stateMutability": "nonpayable",
      "type": "function"
    },
    {
      "inputs": [
        {
          "internalType": "uint256",
          "name": "orderId",
          "type": "uint256"
        },
        {
          "internalType": "enum OrderBook.Side",
          "name": "side",
          "type": "uint8"
        },
        {
          "internalType": "bytes32",
          "name": "tickerTo",
          "type": "bytes32"
        },
        {
          "internalType": "bytes32",
          "name": "tickerFrom",
          "type": "bytes32"
        }
      ],
      "name": "cancelOrder",
      "outputs": [],
      "stateMutability": "nonpayable",
      "type": "function"
    },
    {
      "inputs": [
        {
          "internalType": "uint256",
          "name": "orderId",
          "type": "uint256"
        },
        {
          "internalType": "enum OrderBook.Side",
          "name": "side",
          "type": "uint8"
        },
        {
          "internalType": "bytes32",
          "name": "tickerTo",
          "type": "bytes32"
        },
        {
          "internalType": "bytes32",
          "name": "tickerFrom",
          "type": "bytes32"
        }
      ],
      "name": "getOrder",
      "outputs": [
        {
          "components": [
            {
              "internalType": "uint256",
              "name": "id",
              "type": "uint256"
            },
            {
              "internalType": "bool",
              "name": "isActive",
              "type": "bool"
            },
            {
              "internalType": "enum OrderBook.Side",
              "name": "side",
              "type": "uint8"
            },
            {
              "internalType": "enum OrderBook.OrderType",
              "name": "orderType",
              "type": "uint8"
            },
            {
              "internalType": "address",
              "name": "trader",
              "type": "address"
            },
            {
              "internalType": "bytes32",
              "name": "ticker1",
              "type": "bytes32"
            },
            {
              "internalType": "bytes32",
              "name": "ticker2",
              "type": "bytes32"
            },
            {
              "internalType": "uint256",
              "name": "amount",
              "type": "uint256"
            },
            {
              "internalType": "uint256",
              "name": "price",
              "type": "uint256"
            },
            {
              "internalType": "uint256",
              "name": "filled",
              "type": "uint256"
            }
          ],
          "internalType": "struct OrderBook.Order",
          "name": "order",
          "type": "tuple"
        }
      ],
      "stateMutability": "view",
      "type": "function",
      "constant": true
    },
    {
      "inputs": [
        {
          "internalType": "enum OrderBook.Side",
          "name": "side",
          "type": "uint8"
        },
        {
          "internalType": "bytes32",
          "name": "tickerTo",
          "type": "bytes32"
        },
        {
          "internalType": "bytes32",
          "name": "tickerFrom",
          "type": "bytes32"
        }
      ],
      "name": "getOrderBook",
      "outputs": [
        {
          "components": [
            {
              "internalType": "uint256",
              "name": "id",
              "type": "uint256"
            },
            {
              "internalType": "bool",
              "name": "isActive",
              "type": "bool"
            },
            {
              "internalType": "enum OrderBook.Side",
              "name": "side",
              "type": "uint8"
            },
            {
              "internalType": "enum OrderBook.OrderType",
              "name": "orderType",
              "type": "uint8"
            },
            {
              "internalType": "address",
              "name": "trader",
              "type": "address"
            },
            {
              "internalType": "bytes32",
              "name": "ticker1",
              "type": "bytes32"
            },
            {
              "internalType": "bytes32",
              "name": "ticker2",
              "type": "bytes32"
            },
            {
              "internalType": "uint256",
              "name": "amount",
              "type": "uint256"
            },
            {
              "internalType": "uint256",
              "name": "price",
              "type": "uint256"
            },
            {
              "internalType": "uint256",
              "name": "filled",
              "type": "uint256"
            }
          ],
          "internalType": "struct OrderBook.Order[]",
          "name": "",
          "type": "tuple[]"
        }
      ],
      "stateMutability": "view",
      "type": "function",
      "constant": true
    },
    {
      "inputs": [
        {
          "internalType": "enum OrderBook.Side",
          "name": "side",
          "type": "uint8"
        },
        {
          "internalType": "bytes32",
          "name": "tickerTo",
          "type": "bytes32"
        },
        {
          "internalType": "bytes32",
          "name": "tickerFrom",
          "type": "bytes32"
        }
      ],
      "name": "getMarketPrice",
      "outputs": [
        {
          "internalType": "uint256",
          "name": "",
          "type": "uint256"
        }
      ],
      "stateMutability": "view",
      "type": "function",
      "constant": true
    }
  ],
  "bytecode": "0x608060405260006005553480156200001657600080fd5b50620000376200002b6200003d60201b60201c565b6200004560201b60201c565b62000109565b600033905090565b60008060009054906101000a900473ffffffffffffffffffffffffffffffffffffffff169050816000806101000a81548173ffffffffffffffffffffffffffffffffffffffff021916908373ffffffffffffffffffffffffffffffffffffffff1602179055508173ffffffffffffffffffffffffffffffffffffffff168173ffffffffffffffffffffffffffffffffffffffff167f8be0079c531659141344cd1fd0a4f28419497f9722a3daafe3b4186f6b6457e060405160405180910390a35050565b6154f580620001196000396000f3fe6080604052600436106101095760003560e01c8063715018a611610095578063a8d2021a11610064578063a8d2021a146103a0578063ac3b7594146103c9578063c9630cb0146103f2578063d0e30db01461041b578063f2fde38b1461042557610109565b8063715018a6146102f85780638da5cb5b1461030f5780639776aacf1461033a5780639ead72221461036357610109565b80632d9a1a49116100dc5780632d9a1a49146101ee5780632e1a7d4d146102175780632ecb2145146102405780633cf952de1461027d578063667cb4ba146102ba57610109565b80631c409b0d1461010e5780631f14df691461014b578063217f97931461018857806328ed30ae146101b1575b600080fd5b34801561011a57600080fd5b50610135600480360381019061013091906141f9565b61044e565b604051610142919061450b565b60405180910390f35b34801561015757600080fd5b50610172600480360381019061016d9190614559565b6104d9565b60405161017f91906145a8565b60405180910390f35b34801561019457600080fd5b506101af60048036038101906101aa91906145ef565b6104fe565b005b3480156101bd57600080fd5b506101d860048036038101906101d391906141f9565b610585565b6040516101e591906145a8565b60405180910390f35b3480156101fa57600080fd5b5061021560048036038101906102109190614656565b610610565b005b34801561022357600080fd5b5061023e60048036038101906102399190614696565b610706565b005b34801561024c57600080fd5b50610267600480360381019061026291906146e8565b610903565b60405161027491906145a8565b60405180910390f35b34801561028957600080fd5b506102a4600480360381019061029f91906145ef565b610b6e565b6040516102b19190614841565b60405180910390f35b3480156102c657600080fd5b506102e160048036038101906102dc919061485d565b610c01565b6040516102ef9291906148a8565b60405180910390f35b34801561030457600080fd5b5061030d610c45565b005b34801561031b57600080fd5b50610324610ccd565b60405161033191906148d1565b60405180910390f35b34801561034657600080fd5b50610361600480360381019061035c91906148ec565b610cf6565b005b34801561036f57600080fd5b5061038a60048036038101906103859190614696565b610e31565b604051610397919061492c565b60405180910390f35b3480156103ac57600080fd5b506103c760048036038101906103c29190614947565b610e55565b005b3480156103d557600080fd5b506103f060048036038101906103eb9190614656565b61110f565b005b3480156103fe57600080fd5b5061041960048036038101906104149190614947565b611205565b005b6104236114d3565b005b34801561043157600080fd5b5061044c60048036038101906104479190614987565b6115ce565b005b6060828260066000838152602001908152602001600020600082815260200190815260200160002060009054906101000a900460ff166104c3576040517f08c379a00000000000000000000000000000000000000000000000000000000081526004016104ba90614a11565b60405180910390fd5b6104ce8686866116c6565b925050509392505050565b6003602052816000526040600020602052806000526040600020600091509150505481565b818160066000838152602001908152602001600020600082815260200190815260200160002060009054906101000a900460ff16610571576040517f08c379a000000000000000000000000000000000000000000000000000000000815260040161056890614a11565b60405180910390fd5b61057d868686866118a4565b505050505050565b6000828260066000838152602001908152602001600020600082815260200190815260200160002060009054906101000a900460ff166105fa576040517f08c379a00000000000000000000000000000000000000000000000000000000081526004016105f190614a11565b60405180910390fd5b610605868686611a87565b925050509392505050565b610618611c1b565b73ffffffffffffffffffffffffffffffffffffffff16610636610ccd565b73ffffffffffffffffffffffffffffffffffffffff161461068c576040517f08c379a000000000000000000000000000000000000000000000000000000000815260040161068390614a7d565b60405180910390fd5b600160066000848152602001908152602001600020600083815260200190815260200160002060006101000a81548160ff0219169083151502179055507f3605fb3a1ad03ac2498c76347dbd4b51010d15dfe31119b7515bc62e34143e2582826040516106fa929190614a9d565b60405180910390a15050565b80600360003373ffffffffffffffffffffffffffffffffffffffff1673ffffffffffffffffffffffffffffffffffffffff16815260200190815260200160002060007f455448000000000000000000000000000000000000000000000000000000000060001b81526020019081526020016000205410156107bc576040517f08c379a00000000000000000000000000000000000000000000000000000000081526004016107b390614b38565b60405180910390fd5b61084281600360003373ffffffffffffffffffffffffffffffffffffffff1673ffffffffffffffffffffffffffffffffffffffff16815260200190815260200160002060007f455448000000000000000000000000000000000000000000000000000000000060001b815260200190815260200160002054611c2390919063ffffffff16565b600360003373ffffffffffffffffffffffffffffffffffffffff1673ffffffffffffffffffffffffffffffffffffffff16815260200190815260200160002060007f455448000000000000000000000000000000000000000000000000000000000060001b8152602001908152602001600020819055503373ffffffffffffffffffffffffffffffffffffffff166108fc829081150290604051600060405180830381858888f193505050501580156108ff573d6000803e3d6000fd5b5050565b6000848460066000838152602001908152602001600020600082815260200190815260200160002060009054906101000a900460ff16610978576040517f08c379a000000000000000000000000000000000000000000000000000000000815260040161096f90614a11565b60405180910390fd5b6000600181111561098c5761098b6142ac565b5b89600181111561099f5761099e6142ac565b5b1415610a4e576000600360003373ffffffffffffffffffffffffffffffffffffffff1673ffffffffffffffffffffffffffffffffffffffff16815260200190815260200160002060008881526020019081526020016000205490508486610a069190614b87565b811015610a48576040517f08c379a0000000000000000000000000000000000000000000000000000000008152600401610a3f90614c53565b60405180910390fd5b50610ae8565b6000600360003373ffffffffffffffffffffffffffffffffffffffff1673ffffffffffffffffffffffffffffffffffffffff168152602001908152602001600020600089815260200190815260200160002054905084811015610ae6576040517f08c379a0000000000000000000000000000000000000000000000000000000008152600401610add90614ce5565b60405180910390fd5b505b6000610af88a8a8a8a8a8a611c39565b90503373ffffffffffffffffffffffffffffffffffffffff167f8a0333324a3492150ffba30d2434f066fdf11da1d9b00c374439fb1ad62261d1828c8c8c8c8c8c604051610b4c9796959493929190614d23565b60405180910390a2610b5e8888612dcf565b8093505050509695505050505050565b610b76614104565b828260066000838152602001908152602001600020600082815260200190815260200160002060009054906101000a900460ff16610be9576040517f08c379a0000000000000000000000000000000000000000000000000000000008152600401610be090614a11565b60405180910390fd5b610bf587878787613982565b92505050949350505050565b60016020528060005260406000206000915090508060000154908060010160009054906101000a900473ffffffffffffffffffffffffffffffffffffffff16905082565b610c4d611c1b565b73ffffffffffffffffffffffffffffffffffffffff16610c6b610ccd565b73ffffffffffffffffffffffffffffffffffffffff1614610cc1576040517f08c379a0000000000000000000000000000000000000000000000000000000008152600401610cb890614a7d565b60405180910390fd5b610ccb6000613c80565b565b60008060009054906101000a900473ffffffffffffffffffffffffffffffffffffffff16905090565b610cfe611c1b565b73ffffffffffffffffffffffffffffffffffffffff16610d1c610ccd565b73ffffffffffffffffffffffffffffffffffffffff1614610d72576040517f08c379a0000000000000000000000000000000000000000000000000000000008152600401610d6990614a7d565b60405180910390fd5b60405180604001604052808381526020018273ffffffffffffffffffffffffffffffffffffffff16815250600160008481526020019081526020016000206000820151816000015560208201518160010160006101000a81548173ffffffffffffffffffffffffffffffffffffffff021916908373ffffffffffffffffffffffffffffffffffffffff16021790555090505060028290806001815401808255809150506001900390600052602060002001600090919091909150555050565b60028181548110610e4157600080fd5b906000526020600020016000915090505481565b80600073ffffffffffffffffffffffffffffffffffffffff166001600083815260200190815260200160002060010160009054906101000a900473ffffffffffffffffffffffffffffffffffffffff1673ffffffffffffffffffffffffffffffffffffffff161415610efc576040517f08c379a0000000000000000000000000000000000000000000000000000000008152600401610ef390614dde565b60405180910390fd5b82600360003373ffffffffffffffffffffffffffffffffffffffff1673ffffffffffffffffffffffffffffffffffffffff1681526020019081526020016000206000848152602001908152602001600020541015610f8f576040517f08c379a0000000000000000000000000000000000000000000000000000000008152600401610f8690614e70565b60405180910390fd5b610ff283600360003373ffffffffffffffffffffffffffffffffffffffff1673ffffffffffffffffffffffffffffffffffffffff168152602001908152602001600020600085815260200190815260200160002054611c2390919063ffffffff16565b600360003373ffffffffffffffffffffffffffffffffffffffff1673ffffffffffffffffffffffffffffffffffffffff1681526020019081526020016000206000848152602001908152602001600020819055506001600083815260200190815260200160002060010160009054906101000a900473ffffffffffffffffffffffffffffffffffffffff1673ffffffffffffffffffffffffffffffffffffffff1663a9059cbb33856040518363ffffffff1660e01b81526004016110b7929190614e90565b602060405180830381600087803b1580156110d157600080fd5b505af11580156110e5573d6000803e3d6000fd5b505050506040513d601f19601f820116820180604052508101906111099190614ee5565b50505050565b611117611c1b565b73ffffffffffffffffffffffffffffffffffffffff16611135610ccd565b73ffffffffffffffffffffffffffffffffffffffff161461118b576040517f08c379a000000000000000000000000000000000000000000000000000000000815260040161118290614a7d565b60405180910390fd5b600060066000848152602001908152602001600020600083815260200190815260200160002060006101000a81548160ff0219169083151502179055507fae0740b09808d1d4621776818534370b51055e2743625951257679493a89757782826040516111f9929190614a9d565b60405180910390a15050565b80600073ffffffffffffffffffffffffffffffffffffffff166001600083815260200190815260200160002060010160009054906101000a900473ffffffffffffffffffffffffffffffffffffffff1673ffffffffffffffffffffffffffffffffffffffff1614156112ac576040517f08c379a00000000000000000000000000000000000000000000000000000000081526004016112a390614dde565b60405180910390fd5b3373ffffffffffffffffffffffffffffffffffffffff166001600084815260200190815260200160002060010160009054906101000a900473ffffffffffffffffffffffffffffffffffffffff1673ffffffffffffffffffffffffffffffffffffffff161415611351576040517f08c379a000000000000000000000000000000000000000000000000000000000815260040161134890614f84565b60405180910390fd5b6113b483600360003373ffffffffffffffffffffffffffffffffffffffff1673ffffffffffffffffffffffffffffffffffffffff168152602001908152602001600020600085815260200190815260200160002054613d4490919063ffffffff16565b600360003373ffffffffffffffffffffffffffffffffffffffff1673ffffffffffffffffffffffffffffffffffffffff1681526020019081526020016000206000848152602001908152602001600020819055506001600083815260200190815260200160002060010160009054906101000a900473ffffffffffffffffffffffffffffffffffffffff1673ffffffffffffffffffffffffffffffffffffffff166323b872dd3330866040518463ffffffff1660e01b815260040161147b93929190614fa4565b602060405180830381600087803b15801561149557600080fd5b505af11580156114a9573d6000803e3d6000fd5b505050506040513d601f19601f820116820180604052508101906114cd9190614ee5565b50505050565b3373ffffffffffffffffffffffffffffffffffffffff163073ffffffffffffffffffffffffffffffffffffffff161415611542576040517f08c379a00000000000000000000000000000000000000000000000000000000081526004016115399061504d565b60405180910390fd5b34600360003373ffffffffffffffffffffffffffffffffffffffff1673ffffffffffffffffffffffffffffffffffffffff16815260200190815260200160002060007f455448000000000000000000000000000000000000000000000000000000000060001b815260200190815260200160002060008282546115c5919061506d565b92505081905550565b6115d6611c1b565b73ffffffffffffffffffffffffffffffffffffffff166115f4610ccd565b73ffffffffffffffffffffffffffffffffffffffff161461164a576040517f08c379a000000000000000000000000000000000000000000000000000000000815260040161164190614a7d565b60405180910390fd5b600073ffffffffffffffffffffffffffffffffffffffff168173ffffffffffffffffffffffffffffffffffffffff1614156116ba576040517f08c379a00000000000000000000000000000000000000000000000000000000081526004016116b190615135565b60405180910390fd5b6116c381613c80565b50565b60606004600084815260200190815260200160002060008381526020019081526020016000206000856001811115611701576117006142ac565b5b6001811115611713576117126142ac565b5b8152602001908152602001600020805480602002602001604051908101604052809291908181526020016000905b82821015611897578382906000526020600020906007020160405180610140016040529081600082015481526020016001820160009054906101000a900460ff161515151581526020016001820160019054906101000a900460ff1660018111156117af576117ae6142ac565b5b60018111156117c1576117c06142ac565b5b81526020016001820160029054906101000a900460ff1660048111156117ea576117e96142ac565b5b60048111156117fc576117fb6142ac565b5b81526020016001820160039054906101000a900473ffffffffffffffffffffffffffffffffffffffff1673ffffffffffffffffffffffffffffffffffffffff1673ffffffffffffffffffffffffffffffffffffffff1681526020016002820154815260200160038201548152602001600482015481526020016005820154815260200160068201548152505081526020019060010190611741565b5050505090509392505050565b60055484106118e8576040517f08c379a00000000000000000000000000000000000000000000000000000000081526004016118df906151a1565b60405180910390fd5b60005b6004600084815260200190815260200160002060008381526020019081526020016000206000856001811115611924576119236142ac565b5b6001811115611936576119356142ac565b5b815260200190815260200160002080549050811015611a8057846004600085815260200190815260200160002060008481526020019081526020016000206000866001811115611989576119886142ac565b5b600181111561199b5761199a6142ac565b5b815260200190815260200160002082815481106119bb576119ba6151c1565b5b9060005260206000209060070201600001541415611a6d5760006004600085815260200190815260200160002060008481526020019081526020016000206000866001811115611a0e57611a0d6142ac565b5b6001811115611a2057611a1f6142ac565b5b81526020019081526020016000208281548110611a4057611a3f6151c1565b5b906000526020600020906007020160010160006101000a81548160ff021916908315150217905550611a80565b8080611a78906151f0565b9150506118eb565b5050505050565b6000806004600085815260200190815260200160002060008481526020019081526020016000206000866001811115611ac357611ac26142ac565b5b6001811115611ad557611ad46142ac565b5b81526020019081526020016000208054905011611b27576040517f08c379a0000000000000000000000000000000000000000000000000000000008152600401611b1e90615285565b60405180910390fd5b600060016004600086815260200190815260200160002060008581526020019081526020016000206000876001811115611b6457611b636142ac565b5b6001811115611b7657611b756142ac565b5b815260200190815260200160002080549050611b9291906152a5565b90506004600085815260200190815260200160002060008481526020019081526020016000206000866001811115611bcd57611bcc6142ac565b5b6001811115611bdf57611bde6142ac565b5b81526020019081526020016000208181548110611bff57611bfe6151c1565b5b9060005260206000209060070201600501549150509392505050565b600033905090565b60008183611c3191906152a5565b905092915050565b6000808211611c7d576040517f08c379a0000000000000000000000000000000000000000000000000000000008152600401611c7490615325565b60405180910390fd5b60006004811115611c9157611c906142ac565b5b866004811115611ca457611ca36142ac565b5b14611ced5760008311611cec576040517f08c379a0000000000000000000000000000000000000000000000000000000008152600401611ce3906153b7565b60405180910390fd5b5b60006004811115611d0157611d006142ac565b5b866004811115611d1457611d136142ac565b5b1415611d62576000806001811115611d2f57611d2e6142ac565b5b886001811115611d4257611d416142ac565b5b14611d4e576000611d51565b60015b9050611d5e818787610585565b9350505b60006040518061014001604052806005548152602001600115158152602001896001811115611d9457611d936142ac565b5b8152602001886004811115611dac57611dab6142ac565b5b81526020013373ffffffffffffffffffffffffffffffffffffffff1681526020018781526020018681526020018481526020018581526020016000815250905060056000815480929190611dff906151f0565b91905055506004600087815260200190815260200160002060008681526020019081526020016000206000896001811115611e3d57611e3c6142ac565b5b6001811115611e4f57611e4e6142ac565b5b81526020019081526020016000208190806001815401808255809150506001900390600052602060002090600702016000909190919091506000820151816000015560208201518160010160006101000a81548160ff02191690831515021790555060408201518160010160016101000a81548160ff02191690836001811115611edc57611edb6142ac565b5b021790555060608201518160010160026101000a81548160ff02191690836004811115611f0c57611f0b6142ac565b5b021790555060808201518160010160036101000a81548173ffffffffffffffffffffffffffffffffffffffff021916908373ffffffffffffffffffffffffffffffffffffffff16021790555060a0820151816002015560c0820151816003015560e08201518160040155610100820151816005015561012082015181600601555050600060046000888152602001908152602001600020600087815260200190815260200160002060008a6001811115611fc957611fc86142ac565b5b6001811115611fdb57611fda6142ac565b5b815260200190815260200160002080549050905060006001811115612003576120026142ac565b5b896001811115612016576120156142ac565b5b14156126e957600060018261202b91906152a5565b90505b60008111156126e35760046000898152602001908152602001600020600088815260200190815260200160002060008b60018111156120705761206f6142ac565b5b6001811115612082576120816142ac565b5b815260200190815260200160002081815481106120a2576120a16151c1565b5b906000526020600020906007020160050154600460008a8152602001908152602001600020600089815260200190815260200160002060008c60018111156120ed576120ec6142ac565b5b60018111156120ff576120fe6142ac565b5b815260200190815260200160002060018361211a91906152a5565b8154811061212b5761212a6151c1565b5b90600052602060002090600702016005015411156126cb5760046000898152602001908152602001600020600088815260200190815260200160002060008b600181111561217c5761217b6142ac565b5b600181111561218e5761218d6142ac565b5b815260200190815260200160002081815481106121ae576121ad6151c1565b5b906000526020600020906007020160405180610140016040529081600082015481526020016001820160009054906101000a900460ff161515151581526020016001820160019054906101000a900460ff166001811115612212576122116142ac565b5b6001811115612224576122236142ac565b5b81526020016001820160029054906101000a900460ff16600481111561224d5761224c6142ac565b5b600481111561225f5761225e6142ac565b5b81526020016001820160039054906101000a900473ffffffffffffffffffffffffffffffffffffffff1673ffffffffffffffffffffffffffffffffffffffff1673ffffffffffffffffffffffffffffffffffffffff16815260200160028201548152602001600382015481526020016004820154815260200160058201548152602001600682015481525050925060046000898152602001908152602001600020600088815260200190815260200160002060008b6001811115612326576123256142ac565b5b6001811115612338576123376142ac565b5b815260200190815260200160002060018261235391906152a5565b81548110612364576123636151c1565b5b9060005260206000209060070201600460008a8152602001908152602001600020600089815260200190815260200160002060008c60018111156123ab576123aa6142ac565b5b60018111156123bd576123bc6142ac565b5b815260200190815260200160002082815481106123dd576123dc6151c1565b5b9060005260206000209060070201600082015481600001556001820160009054906101000a900460ff168160010160006101000a81548160ff0219169083151502179055506001820160019054906101000a900460ff168160010160016101000a81548160ff0219169083600181111561245a576124596142ac565b5b02179055506001820160029054906101000a900460ff168160010160026101000a81548160ff02191690836004811115612497576124966142ac565b5b02179055506001820160039054906101000a900473ffffffffffffffffffffffffffffffffffffffff168160010160036101000a81548173ffffffffffffffffffffffffffffffffffffffff021916908373ffffffffffffffffffffffffffffffffffffffff160217905550600282015481600201556003820154816003015560048201548160040155600582015481600501556006820154816006015590505082600460008a8152602001908152602001600020600089815260200190815260200160002060008c6001811115612572576125716142ac565b5b6001811115612584576125836142ac565b5b815260200190815260200160002060018361259f91906152a5565b815481106125b0576125af6151c1565b5b90600052602060002090600702016000820151816000015560208201518160010160006101000a81548160ff02191690831515021790555060408201518160010160016101000a81548160ff02191690836001811115612613576126126142ac565b5b021790555060608201518160010160026101000a81548160ff02191690836004811115612643576126426142ac565b5b021790555060808201518160010160036101000a81548173ffffffffffffffffffffffffffffffffffffffff021916908373ffffffffffffffffffffffffffffffffffffffff16021790555060a0820151816002015560c0820151816003015560e08201518160040155610100820151816005015561012082015181600601559050506126d0565b6126e3565b80806126db906153d7565b91505061202e565b50612db2565b60006001826126f891906152a5565b90505b6000811115612db05760046000898152602001908152602001600020600088815260200190815260200160002060008b600181111561273d5761273c6142ac565b5b600181111561274f5761274e6142ac565b5b8152602001908152602001600020818154811061276f5761276e6151c1565b5b906000526020600020906007020160050154600460008a8152602001908152602001600020600089815260200190815260200160002060008c60018111156127ba576127b96142ac565b5b60018111156127cc576127cb6142ac565b5b81526020019081526020016000206001836127e791906152a5565b815481106127f8576127f76151c1565b5b9060005260206000209060070201600501541015612d985760046000898152602001908152602001600020600088815260200190815260200160002060008b6001811115612849576128486142ac565b5b600181111561285b5761285a6142ac565b5b8152602001908152602001600020818154811061287b5761287a6151c1565b5b906000526020600020906007020160405180610140016040529081600082015481526020016001820160009054906101000a900460ff161515151581526020016001820160019054906101000a900460ff1660018111156128df576128de6142ac565b5b60018111156128f1576128f06142ac565b5b81526020016001820160029054906101000a900460ff16600481111561291a576129196142ac565b5b600481111561292c5761292b6142ac565b5b81526020016001820160039054906101000a900473ffffffffffffffffffffffffffffffffffffffff1673ffffffffffffffffffffffffffffffffffffffff1673ffffffffffffffffffffffffffffffffffffffff16815260200160028201548152602001600382015481526020016004820154815260200160058201548152602001600682015481525050925060046000898152602001908152602001600020600088815260200190815260200160002060008b60018111156129f3576129f26142ac565b5b6001811115612a0557612a046142ac565b5b8152602001908152602001600020600182612a2091906152a5565b81548110612a3157612a306151c1565b5b9060005260206000209060070201600460008a8152602001908152602001600020600089815260200190815260200160002060008c6001811115612a7857612a776142ac565b5b6001811115612a8a57612a896142ac565b5b81526020019081526020016000208281548110612aaa57612aa96151c1565b5b9060005260206000209060070201600082015481600001556001820160009054906101000a900460ff168160010160006101000a81548160ff0219169083151502179055506001820160019054906101000a900460ff168160010160016101000a81548160ff02191690836001811115612b2757612b266142ac565b5b02179055506001820160029054906101000a900460ff168160010160026101000a81548160ff02191690836004811115612b6457612b636142ac565b5b02179055506001820160039054906101000a900473ffffffffffffffffffffffffffffffffffffffff168160010160036101000a81548173ffffffffffffffffffffffffffffffffffffffff021916908373ffffffffffffffffffffffffffffffffffffffff160217905550600282015481600201556003820154816003015560048201548160040155600582015481600501556006820154816006015590505082600460008a8152602001908152602001600020600089815260200190815260200160002060008c6001811115612c3f57612c3e6142ac565b5b6001811115612c5157612c506142ac565b5b8152602001908152602001600020600183612c6c91906152a5565b81548110612c7d57612c7c6151c1565b5b90600052602060002090600702016000820151816000015560208201518160010160006101000a81548160ff02191690831515021790555060408201518160010160016101000a81548160ff02191690836001811115612ce057612cdf6142ac565b5b021790555060608201518160010160026101000a81548160ff02191690836004811115612d1057612d0f6142ac565b5b021790555060808201518160010160036101000a81548173ffffffffffffffffffffffffffffffffffffffff021916908373ffffffffffffffffffffffffffffffffffffffff16021790555060a0820151816002015560c0820151816003015560e0820151816004015561010082015181600501556101208201518160060155905050612d9d565b612db0565b8080612da8906153d7565b9150506126fb565b505b6001600554612dc191906152a5565b925050509695505050505050565b5b60006004600084815260200190815260200160002060008381526020019081526020016000206000600180811115612e0b57612e0a6142ac565b5b6001811115612e1d57612e1c6142ac565b5b815260200190815260200160002080549050118015612e98575060006004600084815260200190815260200160002060008381526020019081526020016000206000806001811115612e7257612e716142ac565b5b6001811115612e8457612e836142ac565b5b815260200190815260200160002080549050115b1561397e57600060016004600085815260200190815260200160002060008481526020019081526020016000206000806001811115612eda57612ed96142ac565b5b6001811115612eec57612eeb6142ac565b5b815260200190815260200160002080549050612f0891906152a5565b905060006004600085815260200190815260200160002060008481526020019081526020016000206000806001811115612f4557612f446142ac565b5b6001811115612f5757612f566142ac565b5b81526020019081526020016000208281548110612f7757612f766151c1565b5b90600052602060002090600702019050600060016004600087815260200190815260200160002060008681526020019081526020016000206000600180811115612fc457612fc36142ac565b5b6001811115612fd657612fd56142ac565b5b815260200190815260200160002080549050612ff291906152a5565b90506000600460008781526020019081526020016000206000868152602001908152602001600020600060018081111561302f5761302e6142ac565b5b6001811115613041576130406142ac565b5b81526020019081526020016000208281548110613061576130606151c1565b5b906000526020600020906007020190508260010160009054906101000a900460ff166130945761309360008787613d5a565b5b8060010160009054906101000a900460ff166130b7576130b660018787613d5a565b5b8060010160009054906101000a900460ff1615806130e457508260010160009054906101000a900460ff16155b156130f25750505050612dd0565b60006004811115613106576131056142ac565b5b8360010160029054906101000a900460ff16600481111561312a576131296142ac565b5b14801561316c575060006004811115613146576131456142ac565b5b8160010160029054906101000a900460ff16600481111561316a576131696142ac565b5b145b1561318e57806005015483600501541461318957613188615401565b5b6132b0565b600060048111156131a2576131a16142ac565b5b8360010160029054906101000a900460ff1660048111156131c6576131c56142ac565b5b141580156132095750600060048111156131e3576131e26142ac565b5b8160010160029054906101000a900460ff166004811115613207576132066142ac565b5b145b1561322057826005015481600501819055506132af565b60006004811115613234576132336142ac565b5b8360010160029054906101000a900460ff166004811115613258576132576142ac565b5b14801561329b575060006004811115613274576132736142ac565b5b8160010160029054906101000a900460ff166004811115613298576132976142ac565b5b14155b156132ae57806005015483600501819055505b5b5b8060050154836005015410156132c9575050505061397e565b60016005546132d891906152a5565b836000015414801561331e57506004808111156132f8576132f76142ac565b5b8360010160029054906101000a900460ff16600481111561331c5761331b6142ac565b5b145b156133385761332f60008787613d5a565b50505050612dd0565b600160055461334791906152a5565b836000015414801561338d5750600480811115613367576133666142ac565b5b8160010160029054906101000a900460ff16600481111561338b5761338a6142ac565b5b145b156133a75761339e60018787613d5a565b50505050612dd0565b600083600001548260000154106133c25783600501546133c8565b81600501545b90506000846006015485600401546133e091906152a5565b90506000836006015484600401546133f891906152a5565b9050600061340683836140eb565b9050600084826134169190614b87565b905060006003600481111561342e5761342d6142ac565b5b8960010160029054906101000a900460ff166004811115613452576134516142ac565b5b148015613463575082896004015414155b156134795761347460008d8d613d5a565b600190505b6003600481111561348d5761348c6142ac565b5b8760010160029054906101000a900460ff1660048111156134b1576134b06142ac565b5b1480156134c2575082876004015414155b156134d8576134d360018d8d613d5a565b600190505b80156134ed5750505050505050505050612dd0565b82600360008b60010160039054906101000a900473ffffffffffffffffffffffffffffffffffffffff1673ffffffffffffffffffffffffffffffffffffffff1673ffffffffffffffffffffffffffffffffffffffff16815260200190815260200160002060008e81526020019081526020016000206000828254613571919061506d565b9250508190555081600360008b60010160039054906101000a900473ffffffffffffffffffffffffffffffffffffffff1673ffffffffffffffffffffffffffffffffffffffff1673ffffffffffffffffffffffffffffffffffffffff16815260200190815260200160002060008d815260200190815260200160002060008282546135fc91906152a5565b9250508190555082600360008960010160039054906101000a900473ffffffffffffffffffffffffffffffffffffffff1673ffffffffffffffffffffffffffffffffffffffff1673ffffffffffffffffffffffffffffffffffffffff16815260200190815260200160002060008e8152602001908152602001600020600082825461368791906152a5565b9250508190555081600360008960010160039054906101000a900473ffffffffffffffffffffffffffffffffffffffff1673ffffffffffffffffffffffffffffffffffffffff1673ffffffffffffffffffffffffffffffffffffffff16815260200190815260200160002060008d81526020019081526020016000206000828254613712919061506d565b925050819055508289600601600082825461372d919061506d565b9250508190555082876006016000828254613748919061506d565b9250508190555088600401548960060154111561376857613767615401565b5b86600401548760060154111561378157613780615401565b5b8860010160039054906101000a900473ffffffffffffffffffffffffffffffffffffffff1673ffffffffffffffffffffffffffffffffffffffff167f36a54e61f475a84cd4a5c3b403be29e6101b05ec843b61fb97c3e123ff59b3f48a6000015488866040516137f393929190615430565b60405180910390a28660010160039054906101000a900473ffffffffffffffffffffffffffffffffffffffff1673ffffffffffffffffffffffffffffffffffffffff167f36a54e61f475a84cd4a5c3b403be29e6101b05ec843b61fb97c3e123ff59b3f48860000154888660405161386d93929190615430565b60405180910390a28860040154896006015414156138965761389160008d8d613d5a565b6138f2565b600260048111156138aa576138a96142ac565b5b8960010160029054906101000a900460ff1660048111156138ce576138cd6142ac565b5b1480156138df575060008960060154115b156138f1576138f060008d8d613d5a565b5b5b8660040154876006015414156139135761390e60018d8d613d5a565b61396f565b60026004811115613927576139266142ac565b5b8760010160029054906101000a900460ff16600481111561394b5761394a6142ac565b5b14801561395c575060008760060154115b1561396e5761396d60018d8d613d5a565b5b5b50505050505050505050612dd0565b5050565b61398a614104565b60055485106139ce576040517f08c379a00000000000000000000000000000000000000000000000000000000081526004016139c5906151a1565b60405180910390fd5b60005b6004600085815260200190815260200160002060008481526020019081526020016000206000866001811115613a0a57613a096142ac565b5b6001811115613a1c57613a1b6142ac565b5b815260200190815260200160002080549050811015613c7757856004600086815260200190815260200160002060008581526020019081526020016000206000876001811115613a6f57613a6e6142ac565b5b6001811115613a8157613a806142ac565b5b81526020019081526020016000208281548110613aa157613aa06151c1565b5b9060005260206000209060070201600001541415613c64576004600085815260200190815260200160002060008481526020019081526020016000206000866001811115613af257613af16142ac565b5b6001811115613b0457613b036142ac565b5b81526020019081526020016000208181548110613b2457613b236151c1565b5b906000526020600020906007020160405180610140016040529081600082015481526020016001820160009054906101000a900460ff161515151581526020016001820160019054906101000a900460ff166001811115613b8857613b876142ac565b5b6001811115613b9a57613b996142ac565b5b81526020016001820160029054906101000a900460ff166004811115613bc357613bc26142ac565b5b6004811115613bd557613bd46142ac565b5b81526020016001820160039054906101000a900473ffffffffffffffffffffffffffffffffffffffff1673ffffffffffffffffffffffffffffffffffffffff1673ffffffffffffffffffffffffffffffffffffffff1681526020016002820154815260200160038201548152602001600482015481526020016005820154815260200160068201548152505091505b8080613c6f906151f0565b9150506139d1565b50949350505050565b60008060009054906101000a900473ffffffffffffffffffffffffffffffffffffffff169050816000806101000a81548173ffffffffffffffffffffffffffffffffffffffff021916908373ffffffffffffffffffffffffffffffffffffffff1602179055508173ffffffffffffffffffffffffffffffffffffffff168173ffffffffffffffffffffffffffffffffffffffff167f8be0079c531659141344cd1fd0a4f28419497f9722a3daafe3b4186f6b6457e060405160405180910390a35050565b60008183613d52919061506d565b905092915050565b600060016004600085815260200190815260200160002060008481526020019081526020016000206000866001811115613d9757613d966142ac565b5b6001811115613da957613da86142ac565b5b815260200190815260200160002080549050613dc591906152a5565b905060006004600085815260200190815260200160002060008481526020019081526020016000206000866001811115613e0257613e016142ac565b5b6001811115613e1457613e136142ac565b5b81526020019081526020016000208281548110613e3457613e336151c1565b5b906000526020600020906007020190508060010160039054906101000a900473ffffffffffffffffffffffffffffffffffffffff1673ffffffffffffffffffffffffffffffffffffffff167f26af14115f21b05d36ec1e7593fc9f481190ee553c5598923b71d87b26c41c0682600001548360060154604051613eb8929190615467565b60405180910390a26004600085815260200190815260200160002060008481526020019081526020016000206000866001811115613ef957613ef86142ac565b5b6001811115613f0b57613f0a6142ac565b5b81526020019081526020016000208281548110613f2b57613f2a6151c1565b5b90600052602060002090600702016000808201600090556001820160006101000a81549060ff02191690556001820160016101000a81549060ff02191690556001820160026101000a81549060ff02191690556001820160036101000a81549073ffffffffffffffffffffffffffffffffffffffff02191690556002820160009055600382016000905560048201600090556005820160009055600682016000905550506004600085815260200190815260200160002060008481526020019081526020016000206000866001811115614008576140076142ac565b5b600181111561401a576140196142ac565b5b815260200190815260200160002080548061403857614037615490565b5b60019003818190600052602060002090600702016000808201600090556001820160006101000a81549060ff02191690556001820160016101000a81549060ff02191690556001820160026101000a81549060ff02191690556001820160036101000a81549073ffffffffffffffffffffffffffffffffffffffff021916905560028201600090556003820160009055600482016000905560058201600090556006820160009055505090555050505050565b60008183106140fa57816140fc565b825b905092915050565b6040518061014001604052806000815260200160001515815260200160006001811115614134576141336142ac565b5b81526020016000600481111561414d5761414c6142ac565b5b8152602001600073ffffffffffffffffffffffffffffffffffffffff16815260200160008019168152602001600080191681526020016000815260200160008152602001600081525090565b600080fd5b600281106141ab57600080fd5b50565b6000813590506141bd8161419e565b92915050565b6000819050919050565b6141d6816141c3565b81146141e157600080fd5b50565b6000813590506141f3816141cd565b92915050565b60008060006060848603121561421257614211614199565b5b6000614220868287016141ae565b9350506020614231868287016141e4565b9250506040614242868287016141e4565b9150509250925092565b600081519050919050565b600082825260208201905092915050565b6000819050602082019050919050565b6000819050919050565b61428b81614278565b82525050565b60008115159050919050565b6142a681614291565b82525050565b7f4e487b7100000000000000000000000000000000000000000000000000000000600052602160045260246000fd5b600281106142ec576142eb6142ac565b5b50565b60008190506142fd826142db565b919050565b600061430d826142ef565b9050919050565b61431d81614302565b82525050565b60058110614334576143336142ac565b5b50565b600081905061434582614323565b919050565b600061435582614337565b9050919050565b6143658161434a565b82525050565b600073ffffffffffffffffffffffffffffffffffffffff82169050919050565b60006143968261436b565b9050919050565b6143a68161438b565b82525050565b6143b5816141c3565b82525050565b610140820160008201516143d26000850182614282565b5060208201516143e5602085018261429d565b5060408201516143f86040850182614314565b50606082015161440b606085018261435c565b50608082015161441e608085018261439d565b5060a082015161443160a08501826143ac565b5060c082015161444460c08501826143ac565b5060e082015161445760e0850182614282565b5061010082015161446c610100850182614282565b50610120820151614481610120850182614282565b50505050565b600061449383836143bb565b6101408301905092915050565b6000602082019050919050565b60006144b88261424c565b6144c28185614257565b93506144cd83614268565b8060005b838110156144fe5781516144e58882614487565b97506144f0836144a0565b9250506001810190506144d1565b5085935050505092915050565b6000602082019050818103600083015261452581846144ad565b905092915050565b6145368161438b565b811461454157600080fd5b50565b6000813590506145538161452d565b92915050565b600080604083850312156145705761456f614199565b5b600061457e85828601614544565b925050602061458f858286016141e4565b9150509250929050565b6145a281614278565b82525050565b60006020820190506145bd6000830184614599565b92915050565b6145cc81614278565b81146145d757600080fd5b50565b6000813590506145e9816145c3565b92915050565b6000806000806080858703121561460957614608614199565b5b6000614617878288016145da565b9450506020614628878288016141ae565b9350506040614639878288016141e4565b925050606061464a878288016141e4565b91505092959194509250565b6000806040838503121561466d5761466c614199565b5b600061467b858286016141e4565b925050602061468c858286016141e4565b9150509250929050565b6000602082840312156146ac576146ab614199565b5b60006146ba848285016145da565b91505092915050565b600581106146d057600080fd5b50565b6000813590506146e2816146c3565b92915050565b60008060008060008060c0878903121561470557614704614199565b5b600061471389828a016141ae565b965050602061472489828a016146d3565b955050604061473589828a016141e4565b945050606061474689828a016141e4565b935050608061475789828a016145da565b92505060a061476889828a016145da565b9150509295509295509295565b6101408201600082015161478c6000850182614282565b50602082015161479f602085018261429d565b5060408201516147b26040850182614314565b5060608201516147c5606085018261435c565b5060808201516147d8608085018261439d565b5060a08201516147eb60a08501826143ac565b5060c08201516147fe60c08501826143ac565b5060e082015161481160e0850182614282565b50610100820151614826610100850182614282565b5061012082015161483b610120850182614282565b50505050565b6000610140820190506148576000830184614775565b92915050565b60006020828403121561487357614872614199565b5b6000614881848285016141e4565b91505092915050565b614893816141c3565b82525050565b6148a28161438b565b82525050565b60006040820190506148bd600083018561488a565b6148ca6020830184614899565b9392505050565b60006020820190506148e66000830184614899565b92915050565b6000806040838503121561490357614902614199565b5b6000614911858286016141e4565b925050602061492285828601614544565b9150509250929050565b6000602082019050614941600083018461488a565b92915050565b6000806040838503121561495e5761495d614199565b5b600061496c858286016145da565b925050602061497d858286016141e4565b9150509250929050565b60006020828403121561499d5761499c614199565b5b60006149ab84828501614544565b91505092915050565b600082825260208201905092915050565b7f4465783a207061697220646f65736e2774206578697374000000000000000000600082015250565b60006149fb6017836149b4565b9150614a06826149c5565b602082019050919050565b60006020820190508181036000830152614a2a816149ee565b9050919050565b7f4f776e61626c653a2063616c6c6572206973206e6f7420746865206f776e6572600082015250565b6000614a676020836149b4565b9150614a7282614a31565b602082019050919050565b60006020820190508181036000830152614a9681614a5a565b9050919050565b6000604082019050614ab2600083018561488a565b614abf602083018461488a565b9392505050565b7f57616c6c65743a20696e73756666696369656e742065746865722062616c616e60008201527f6365000000000000000000000000000000000000000000000000000000000000602082015250565b6000614b226022836149b4565b9150614b2d82614ac6565b604082019050919050565b60006020820190508181036000830152614b5181614b15565b9050919050565b7f4e487b7100000000000000000000000000000000000000000000000000000000600052601160045260246000fd5b6000614b9282614278565b9150614b9d83614278565b9250817fffffffffffffffffffffffffffffffffffffffffffffffffffffffffffffffff0483118215151615614bd657614bd5614b58565b5b828202905092915050565b7f4465783a20427579657220646f65736e2774206861766520656e6f756768207460008201527f6f6b657300000000000000000000000000000000000000000000000000000000602082015250565b6000614c3d6024836149b4565b9150614c4882614be1565b604082019050919050565b60006020820190508181036000830152614c6c81614c30565b9050919050565b7f4465783a2053656c6c657220646f65736e2774206861766520656e6f7567682060008201527f746f6b6573000000000000000000000000000000000000000000000000000000602082015250565b6000614ccf6025836149b4565b9150614cda82614c73565b604082019050919050565b60006020820190508181036000830152614cfe81614cc2565b9050919050565b614d0e81614302565b82525050565b614d1d8161434a565b82525050565b600060e082019050614d38600083018a614599565b614d456020830189614d05565b614d526040830188614d14565b614d5f606083018761488a565b614d6c608083018661488a565b614d7960a0830185614599565b614d8660c0830184614599565b98975050505050505050565b7f57616c6c65743a20746f6b656e20646f6573206e6f7420657869747300000000600082015250565b6000614dc8601c836149b4565b9150614dd382614d92565b602082019050919050565b60006020820190508181036000830152614df781614dbb565b9050919050565b7f57616c6c65743a20696e73756666696369656e7420746f6b656e2062616c616e60008201527f6365000000000000000000000000000000000000000000000000000000000000602082015250565b6000614e5a6022836149b4565b9150614e6582614dfe565b604082019050919050565b60006020820190508181036000830152614e8981614e4d565b9050919050565b6000604082019050614ea56000830185614899565b614eb26020830184614599565b9392505050565b614ec281614291565b8114614ecd57600080fd5b50565b600081519050614edf81614eb9565b92915050565b600060208284031215614efb57614efa614199565b5b6000614f0984828501614ed0565b91505092915050565b7f57616c6c65743a2063616e27742073656e6420746f6b656e7320746f2069747360008201527f656c660000000000000000000000000000000000000000000000000000000000602082015250565b6000614f6e6023836149b4565b9150614f7982614f12565b604082019050919050565b60006020820190508181036000830152614f9d81614f61565b9050919050565b6000606082019050614fb96000830186614899565b614fc66020830185614899565b614fd36040830184614599565b949350505050565b7f57616c6c65743a2063616e27742073656e6420657468657220746f206974736560008201527f6c66000000000000000000000000000000000000000000000000000000000000602082015250565b60006150376022836149b4565b915061504282614fdb565b604082019050919050565b600060208201905081810360008301526150668161502a565b9050919050565b600061507882614278565b915061508383614278565b9250827fffffffffffffffffffffffffffffffffffffffffffffffffffffffffffffffff038211156150b8576150b7614b58565b5b828201905092915050565b7f4f776e61626c653a206e6577206f776e657220697320746865207a65726f206160008201527f6464726573730000000000000000000000000000000000000000000000000000602082015250565b600061511f6026836149b4565b915061512a826150c3565b604082019050919050565b6000602082019050818103600083015261514e81615112565b9050919050565b7f4f7264657220646f65736e277420657869737400000000000000000000000000600082015250565b600061518b6013836149b4565b915061519682615155565b602082019050919050565b600060208201905081810360008301526151ba8161517e565b9050919050565b7f4e487b7100000000000000000000000000000000000000000000000000000000600052603260045260246000fd5b60006151fb82614278565b91507fffffffffffffffffffffffffffffffffffffffffffffffffffffffffffffffff82141561522e5761522d614b58565b5b600182019050919050565b7f4d61726b6574206973206e6f7420617661696c61626c65000000000000000000600082015250565b600061526f6017836149b4565b915061527a82615239565b602082019050919050565b6000602082019050818103600083015261529e81615262565b9050919050565b60006152b082614278565b91506152bb83614278565b9250828210156152ce576152cd614b58565b5b828203905092915050565b7f4f72646572426f6f6b3a207a65726f20616d6f756e7400000000000000000000600082015250565b600061530f6016836149b4565b915061531a826152d9565b602082019050919050565b6000602082019050818103600083015261533e81615302565b9050919050565b7f4f72646572426f6f6b3a204c696d6974206f726465722063616e6e6f7420686160008201527f7665207a65726f20707269636500000000000000000000000000000000000000602082015250565b60006153a1602d836149b4565b91506153ac82615345565b604082019050919050565b600060208201905081810360008301526153d081615394565b9050919050565b60006153e282614278565b915060008214156153f6576153f5614b58565b5b600182039050919050565b7f4e487b7100000000000000000000000000000000000000000000000000000000600052600160045260246000fd5b60006060820190506154456000830186614599565b6154526020830185614599565b61545f6040830184614599565b949350505050565b600060408201905061547c6000830185614599565b6154896020830184614599565b9392505050565b7f4e487b7100000000000000000000000000000000000000000000000000000000600052603160045260246000fdfea2646970667358221220bc191cac96c18f4cdccdc9c26c9fe5ff48f693a6ae2fb51916821d386702a1bb64736f6c63430008090033",
  "immutableReferences": {},
  "source": "// SPDX-License-Identifier: MIT\n\npragma solidity ^0.8.0;\npragma abicoder v2;\n\nimport \"./Wallet.sol\";\nimport \"./OrderBook.sol\";\nimport \"../node_modules/@openzeppelin/contracts/utils/math/Math.sol\";\n\ncontract Dex is Wallet, OrderBook {\n\n    using Math for uint256;\n\n    event OrderCreated(\n        uint256 id,\n        address indexed trader,\n        Side side, \n        OrderType orderType,\n        bytes32 tickerTo, \n        bytes32 tickerFrom, \n        uint256 price, \n        uint256 amount\n    );\n\n    event OrderRemoved(\n        uint256 id,\n        address indexed trader,\n        uint256 filled\n    );\n\n    event OrderFilled(\n        uint256 id,\n        address indexed trader,\n        uint256 price,\n        uint256 filled\n    );\n\n    event PairAdded(\n        bytes32 tickerTo,\n        bytes32 tickerFrom\n    );\n\n    event PairRemoved(\n        bytes32 tickerTo,\n        bytes32 tickerFrom\n    );\n\n    mapping(bytes32 => mapping (bytes32 => bool)) pairs;\n\n    modifier pairExists (bytes32 tickerTo, bytes32 tickerFrom) {\n        require (pairs[tickerTo][tickerFrom], \"Dex: pair doesn't exist\");\n        _;\n    }\n\n    function addPair(bytes32 tickerTo, bytes32 tickerFrom) public onlyOwner {\n        pairs[tickerTo][tickerFrom] = true;\n        emit PairAdded(tickerTo, tickerFrom);\n    }\n\n    function removePair(bytes32 tickerTo, bytes32 tickerFrom) public onlyOwner {\n        pairs[tickerTo][tickerFrom] = false;\n        emit PairRemoved(tickerTo, tickerFrom);\n    }\n\n    function popTopOrder(\n        Side side,\n        bytes32 tickerTo, \n        bytes32 tickerFrom\n    ) \n    private {\n        uint256 topIndex = orderBook[tickerTo][tickerFrom][side].length - 1;\n        Order storage order = orderBook[tickerTo][tickerFrom][side][topIndex];\n        \n        emit OrderRemoved(\n            order.id, \n            order.trader, \n            order.filled\n        );\n        \n        delete orderBook[tickerTo][tickerFrom][side][topIndex];\n        \n        orderBook[tickerTo][tickerFrom][side].pop();\n    }\n\n    /**\n     * @dev Matches the orders on the order book based on their price and type\n     */\n    function processSwaps(bytes32 tickerTo, bytes32 tickerFrom) private {\n        // BUY and SELL `orderBook`s must both have entries\n        while (\n            orderBook[tickerTo][tickerFrom][Side.SELL].length > 0 && \n            orderBook[tickerTo][tickerFrom][Side.BUY].length > 0\n        ) \n        {    \n            // Get top BUY order\n            uint256 topBuyIndex = orderBook[tickerTo][tickerFrom][Side.BUY].length - 1;\n            Order storage topBuyOrder = orderBook[tickerTo][tickerFrom][Side.BUY][topBuyIndex];\n            \n            // Get top SELL order\n            uint256 topSellIndex = orderBook[tickerTo][tickerFrom][Side.SELL].length - 1;\n            Order storage topSellOrder = orderBook[tickerTo][tickerFrom][Side.SELL][topSellIndex];\n\n            /*\n            Check if the orders aren't cancelled. If any of the orders is cancelled then pop the order\n            and continue looking.\n            */\n            if (!topBuyOrder.isActive)\n                popTopOrder(Side.BUY, tickerTo, tickerFrom);\n            if (!topSellOrder.isActive)\n                popTopOrder(Side.SELL, tickerTo, tickerFrom);\n            if (!topSellOrder.isActive || !topBuyOrder.isActive)\n                continue;\n            \n            /* \n            If the top orders are both market orders then their price will be equal as the previous market\n            order's price will be the current market price and will propogate the the new market order\n            that is currently being placed on the opposite side of the order book.\n            */\n            if (topBuyOrder.orderType == OrderType.MARKET && topSellOrder.orderType == OrderType.MARKET) {\n                assert(topBuyOrder.price == topSellOrder.price);\n            }\n            // If topBuyOrder is limit and topSellOrder is market, then use the buy order price\n            else if (topBuyOrder.orderType != OrderType.MARKET && topSellOrder.orderType == OrderType.MARKET) {\n                topSellOrder.price = topBuyOrder.price;\n            }\n            // If topSellOrder is limit and topBuyOrder is market, then use the sell order price\n            else if (topBuyOrder.orderType == OrderType.MARKET && topSellOrder.orderType != OrderType.MARKET) {\n                topBuyOrder.price = topSellOrder.price;\n            }\n\n            // If buyer's price is less then seller's price then order can't be filled\n            if (topBuyOrder.price < topSellOrder.price)\n                break;\n\n            /* \n            For the most recent order that comes to processing, check if it is MOC order. If so\n            then pop at this point it can fulfill the opposite side of orders and hence it won't \n            rest on the order book. It should be cancelled.\n\n            Only one of the top orders can be cancelled as only one will be the most recent.\n            */\n            if (topBuyOrder.id == nextOrderId - 1 && topBuyOrder.orderType == OrderType.MOC) {\n                popTopOrder(Side.BUY, tickerTo, tickerFrom);\n                continue;\n            }\n            if (topBuyOrder.id == nextOrderId - 1 && topSellOrder.orderType == OrderType.MOC) {\n                popTopOrder(Side.SELL, tickerTo, tickerFrom);\n                continue;\n            }\n\n            // Calculate current fill price based on the order of arrival to the market\n            uint256 fillPrice = topSellOrder.id < topBuyOrder.id ? topSellOrder.price : topBuyOrder.price;\n\n            // Calculate the current order fill amount\n            // Take into account the partly filled amounts by subtracting already filled tokes from the total amount\n            uint256 remainingBuyOrderAmountToFill = topBuyOrder.amount - topBuyOrder.filled;\n            uint256 remainingSellOrderAmountToFill = topSellOrder.amount - topSellOrder.filled;\n            uint256 fillAmountTo = Math.min(remainingBuyOrderAmountToFill, remainingSellOrderAmountToFill);\n            uint256 fillAmountFrom = fillAmountTo * fillPrice;\n\n            /* \n            If FOK order then check if the fill amount == the order amount. \n            If so then remove the order.\n\n            Both of the top orders can be FOK orders, but only one of them can\n            be removed due to the projected partial fulfillment. \n            \n            In case when both orders are the FOK orders, the one with lesser amount\n            will remain on the order book.\n            */\n            bool fokBreak = false;\n            if (topBuyOrder.orderType == OrderType.FOK && topBuyOrder.amount != fillAmountTo){\n                popTopOrder(Side.BUY, tickerTo, tickerFrom);\n                fokBreak = true;\n            }\n            if (topSellOrder.orderType == OrderType.FOK && topSellOrder.amount != fillAmountTo){\n                popTopOrder(Side.SELL, tickerTo, tickerFrom);\n                fokBreak = true;\n            }\n            if (fokBreak)\n                continue;\n            \n            // Increase tickerTo and decrease tickerFrom tokens in buyer's wallet\n            balances[topBuyOrder.trader][tickerTo] += fillAmountTo;\n            balances[topBuyOrder.trader][tickerFrom] -= fillAmountFrom;\n\n            // Decrease tickerTo and increase tickerFrom tokens in sellers's wallet\n            balances[topSellOrder.trader][tickerTo] -= fillAmountTo;\n            balances[topSellOrder.trader][tickerFrom] += fillAmountFrom;\n\n            // Increase filled amount for both, buyer seller\n            topBuyOrder.filled += fillAmountTo;\n            topSellOrder.filled += fillAmountTo;\n\n            assert(topBuyOrder.filled <= topBuyOrder.amount);\n            assert(topSellOrder.filled <= topSellOrder.amount);\n\n            // Emit OrderFilled event for sell and buy orders\n            emit OrderFilled(\n                topBuyOrder.id,\n                topBuyOrder.trader,\n                fillPrice,\n                fillAmountTo\n            );\n\n            emit OrderFilled(\n                topSellOrder.id,\n                topSellOrder.trader,\n                fillPrice,\n                fillAmountTo\n            );\n\n            // If order.filled == amount, then the order can be popped\n            if (topBuyOrder.filled == topBuyOrder.amount) {\n                popTopOrder(Side.BUY, tickerTo, tickerFrom);\n            }\n            // If IOC order is partially filled then still pop the order from the order book\n            else if(topBuyOrder.orderType == OrderType.IOC && topBuyOrder.filled > 0){\n                popTopOrder(Side.BUY, tickerTo, tickerFrom);\n            }\n\n            if (topSellOrder.filled == topSellOrder.amount) {\n                popTopOrder(Side.SELL, tickerTo, tickerFrom);\n            }\n            // If IOC order is partially filled then still pop the order from the order book\n            else if(topSellOrder.orderType == OrderType.IOC && topSellOrder.filled > 0){\n                popTopOrder(Side.SELL, tickerTo, tickerFrom);\n            }\n        }\n    }\n\n    /**\n     * @dev creates an order to swap two tokens:\n     *  `amount` of tokens `tickerTo` are to be swapped for tokens `tickerFrom` @ `price`\n     * \n     *  `orderType` defines the type of order to place\n     *\n     *  For market orders the price doesn't matter and can be zero.\n     *  Market order will not be created if the opposite side of the order book is empty.\n     *\n     *  Overrides `createOrder` function from OrderBook.sol\n     */\n    function createOrder (\n        Side side, \n        OrderType orderType,\n        bytes32 tickerTo,\n        bytes32 tickerFrom, \n        uint256 price, \n        uint256 amount\n    )\n    public \n    virtual override \n    pairExists(tickerTo, tickerFrom)\n    returns (uint256) {\n        // Buyer can't swap for tokens he doesn't have\n        if (side == Side.BUY) {\n            uint256 buyersTokensToSwapBalance = balances[msg.sender][tickerFrom];\n            require(buyersTokensToSwapBalance >= price * amount, \"Dex: Buyer doesn't have enough tokes\");\n        }\n        else {\n            // Seller can't offer tokens for swap he doesn't have\n            uint256 sellersTokensToSwapBalance = balances[msg.sender][tickerTo];\n            require(sellersTokensToSwapBalance >= amount, \"Dex: Seller doesn't have enough tokes\");\n        }\n\n        uint256 orderId = super.createOrder(side, orderType, tickerTo, tickerFrom, price, amount);\n\n        emit OrderCreated(\n            orderId, \n            msg.sender, \n            side, \n            orderType, \n            tickerTo, \n            tickerFrom, \n            price, // for market orders price can be anything.\n            amount\n        );\n\n        processSwaps(tickerTo, tickerFrom);\n\n        return orderId;\n    }\n    function cancelOrder (\n        uint256 orderId,\n        Side side, \n        bytes32 tickerTo, \n        bytes32 tickerFrom\n    ) \n    public \n    virtual override\n    pairExists(tickerTo, tickerFrom)\n    {\n        super.cancelOrder(orderId, side, tickerTo, tickerFrom);\n    }\n\n    function getOrder (\n        uint256 orderId,\n        Side side, \n        bytes32 tickerTo, \n        bytes32 tickerFrom\n    ) \n    public \n    view \n    virtual override\n    pairExists(tickerTo, tickerFrom)\n    returns (Order memory order)\n    {\n        return super.getOrder(orderId, side, tickerTo, tickerFrom);\n    }\n\n    function getOrderBook(\n        Side side, \n        bytes32 tickerTo, \n        bytes32 tickerFrom\n    ) \n    public \n    view \n    virtual override\n    pairExists(tickerTo, tickerFrom)\n    returns(Order[] memory)\n    {\n        return super.getOrderBook(side, tickerTo, tickerFrom);\n    }\n\n    function getMarketPrice (\n        Side side, \n        bytes32 tickerTo, \n        bytes32 tickerFrom\n    ) \n    public \n    view \n    virtual override\n    pairExists(tickerTo, tickerFrom)\n    returns (uint256) \n    {\n        return super.getMarketPrice(side, tickerTo, tickerFrom);\n    }\n}\n",
  "sourcePath": "/Users/noname/truffle/iot_dex/contracts/Dex.sol",
  "compiler": {
    "name": "solc",
    "version": "0.8.9+commit.e5eed63a.Emscripten.clang"
  },
  "schemaVersion": "3.4.3",
  "updatedAt": "2021-10-10T09:59:30.117Z",
  "networkType": "ethereum",
  "devdoc": {
    "kind": "dev",
    "methods": {
      "addToken(bytes32,address)": {
        "details": "Adds token to the wallet  Requirements: - `onlyOwner` can add a `token` - "
      },
      "cancelOrder(uint256,uint8,bytes32,bytes32)": {
        "details": "Cancel an order by setting isActive flag to false Algorithmic cost: O(n) Returns true if the order was cancelled. Returns false if the order was not found or had already been cancelled"
      },
      "createOrder(uint8,uint8,bytes32,bytes32,uint256,uint256)": {
        "details": "creates an order to swap two tokens: `price`   `orderType` defines the type of order to place  For market orders the price doesn't matter and can be zero.  Market order will not be created if the opposite side of the order book is empty.  Overrides `createOrder` function from OrderBook.sol"
      },
      "deposit()": {
        "details": "Deposit ether to the wallet for `msg.sender`'s account  Requirements: - `msg.sender` cannot be equal to this(address)."
      },
      "deposit(uint256,bytes32)": {
        "details": "Deposit tokens to the wallet for `msg.sender`'s account  Requirements: - `msg.sender` cannot be equal to `tokenAddress`. - Token `ticker` MUST be present in `tokenMapping`."
      },
      "owner()": {
        "details": "Returns the address of the current owner."
      },
      "renounceOwnership()": {
        "details": "Leaves the contract without owner. It will not be possible to call `onlyOwner` functions anymore. Can only be called by the current owner. NOTE: Renouncing ownership will leave the contract without an owner, thereby removing any functionality that is only available to the owner."
      },
      "transferOwnership(address)": {
        "details": "Transfers ownership of the contract to a new account (`newOwner`). Can only be called by the current owner."
      },
      "withdraw(uint256)": {
        "details": "Withdraw token @ `tokenAddress` contract for `msg.sender`'s account.  Requirements: - `msg.sender` MUST have a sufficient balance of ether to withdraw."
      },
      "withdraw(uint256,bytes32)": {
        "details": "Withdraw token @ `tokenAddress` contract for `msg.sender`'s account.  Requirements: - `msg.sender` MUST have a sufficient balance of tokens being withdrawn. - Token `ticker` MUST be present in `tokenMapping`."
      }
    },
    "version": 1
  },
  "userdoc": {
    "kind": "user",
    "methods": {},
    "version": 1
  }
}