{
  "contractName": "Dex",
  "abi": [
    {
      "anonymous": false,
      "inputs": [
        {
          "indexed": false,
          "internalType": "uint256",
          "name": "id",
          "type": "uint256"
        },
        {
          "indexed": true,
          "internalType": "address",
          "name": "trader",
          "type": "address"
        },
        {
          "indexed": false,
          "internalType": "enum OrderBook.Side",
          "name": "side",
          "type": "uint8"
        },
        {
          "indexed": false,
          "internalType": "enum OrderBook.OrderType",
          "name": "orderType",
          "type": "uint8"
        },
        {
          "indexed": false,
          "internalType": "bytes32",
          "name": "tickerTo",
          "type": "bytes32"
        },
        {
          "indexed": false,
          "internalType": "bytes32",
          "name": "tickerFrom",
          "type": "bytes32"
        },
        {
          "indexed": false,
          "internalType": "uint256",
          "name": "price",
          "type": "uint256"
        },
        {
          "indexed": false,
          "internalType": "uint256",
          "name": "amount",
          "type": "uint256"
        }
      ],
      "name": "OrderCreated",
      "type": "event"
    },
    {
      "anonymous": false,
      "inputs": [
        {
          "indexed": false,
          "internalType": "uint256",
          "name": "id",
          "type": "uint256"
        },
        {
          "indexed": true,
          "internalType": "address",
          "name": "trader",
          "type": "address"
        },
        {
          "indexed": false,
          "internalType": "uint256",
          "name": "price",
          "type": "uint256"
        },
        {
          "indexed": false,
          "internalType": "uint256",
          "name": "filled",
          "type": "uint256"
        }
      ],
      "name": "OrderFilled",
      "type": "event"
    },
    {
      "anonymous": false,
      "inputs": [
        {
          "indexed": false,
          "internalType": "uint256",
          "name": "id",
          "type": "uint256"
        },
        {
          "indexed": true,
          "internalType": "address",
          "name": "trader",
          "type": "address"
        },
        {
          "indexed": false,
          "internalType": "uint256",
          "name": "filled",
          "type": "uint256"
        }
      ],
      "name": "OrderRemoved",
      "type": "event"
    },
    {
      "anonymous": false,
      "inputs": [
        {
          "indexed": true,
          "internalType": "address",
          "name": "previousOwner",
          "type": "address"
        },
        {
          "indexed": true,
          "internalType": "address",
          "name": "newOwner",
          "type": "address"
        }
      ],
      "name": "OwnershipTransferred",
      "type": "event"
    },
    {
      "inputs": [
        {
          "internalType": "bytes32",
          "name": "ticker",
          "type": "bytes32"
        },
        {
          "internalType": "address",
          "name": "tokenAddress",
          "type": "address"
        }
      ],
      "name": "addToken",
      "outputs": [],
      "stateMutability": "nonpayable",
      "type": "function"
    },
    {
      "inputs": [
        {
          "internalType": "address",
          "name": "",
          "type": "address"
        },
        {
          "internalType": "bytes32",
          "name": "",
          "type": "bytes32"
        }
      ],
      "name": "balances",
      "outputs": [
        {
          "internalType": "uint256",
          "name": "",
          "type": "uint256"
        }
      ],
      "stateMutability": "view",
      "type": "function",
      "constant": true
    },
    {
      "inputs": [
        {
          "internalType": "uint256",
          "name": "amount",
          "type": "uint256"
        },
        {
          "internalType": "bytes32",
          "name": "ticker",
          "type": "bytes32"
        }
      ],
      "name": "deposit",
      "outputs": [],
      "stateMutability": "nonpayable",
      "type": "function"
    },
    {
      "inputs": [],
      "name": "deposit",
      "outputs": [],
      "stateMutability": "payable",
      "type": "function",
      "payable": true
    },
    {
      "inputs": [],
      "name": "getTokenList",
      "outputs": [
        {
          "components": [
            {
              "internalType": "bytes32",
              "name": "ticker",
              "type": "bytes32"
            },
            {
              "internalType": "address",
              "name": "tokenAddress",
              "type": "address"
            },
            {
              "internalType": "uint8",
              "name": "decimals",
              "type": "uint8"
            }
          ],
          "internalType": "struct Wallet.Token[]",
          "name": "",
          "type": "tuple[]"
        }
      ],
      "stateMutability": "view",
      "type": "function",
      "constant": true
    },
    {
      "inputs": [],
      "name": "owner",
      "outputs": [
        {
          "internalType": "address",
          "name": "",
          "type": "address"
        }
      ],
      "stateMutability": "view",
      "type": "function",
      "constant": true
    },
    {
      "inputs": [
        {
          "internalType": "bytes32",
          "name": "",
          "type": "bytes32"
        },
        {
          "internalType": "bytes32",
          "name": "",
          "type": "bytes32"
        }
      ],
      "name": "pairs",
      "outputs": [
        {
          "internalType": "bool",
          "name": "",
          "type": "bool"
        }
      ],
      "stateMutability": "view",
      "type": "function",
      "constant": true
    },
    {
      "inputs": [],
      "name": "renounceOwnership",
      "outputs": [],
      "stateMutability": "nonpayable",
      "type": "function"
    },
    {
      "inputs": [
        {
          "internalType": "uint256",
          "name": "",
          "type": "uint256"
        }
      ],
      "name": "tokenList",
      "outputs": [
        {
          "internalType": "bytes32",
          "name": "ticker",
          "type": "bytes32"
        },
        {
          "internalType": "address",
          "name": "tokenAddress",
          "type": "address"
        },
        {
          "internalType": "uint8",
          "name": "decimals",
          "type": "uint8"
        }
      ],
      "stateMutability": "view",
      "type": "function",
      "constant": true
    },
    {
      "inputs": [
        {
          "internalType": "bytes32",
          "name": "",
          "type": "bytes32"
        }
      ],
      "name": "tokenMapping",
      "outputs": [
        {
          "internalType": "bytes32",
          "name": "ticker",
          "type": "bytes32"
        },
        {
          "internalType": "address",
          "name": "tokenAddress",
          "type": "address"
        },
        {
          "internalType": "uint8",
          "name": "decimals",
          "type": "uint8"
        }
      ],
      "stateMutability": "view",
      "type": "function",
      "constant": true
    },
    {
      "inputs": [
        {
          "internalType": "address",
          "name": "newOwner",
          "type": "address"
        }
      ],
      "name": "transferOwnership",
      "outputs": [],
      "stateMutability": "nonpayable",
      "type": "function"
    },
    {
      "inputs": [
        {
          "internalType": "uint256",
          "name": "amount",
          "type": "uint256"
        }
      ],
      "name": "withdraw",
      "outputs": [],
      "stateMutability": "nonpayable",
      "type": "function"
    },
    {
      "inputs": [
        {
          "internalType": "uint256",
          "name": "amount",
          "type": "uint256"
        },
        {
          "internalType": "bytes32",
          "name": "ticker",
          "type": "bytes32"
        }
      ],
      "name": "withdraw",
      "outputs": [],
      "stateMutability": "nonpayable",
      "type": "function"
    },
    {
      "inputs": [
        {
          "internalType": "bytes32",
          "name": "tickerTo",
          "type": "bytes32"
        },
        {
          "internalType": "bytes32",
          "name": "tickerFrom",
          "type": "bytes32"
        }
      ],
      "name": "addPair",
      "outputs": [],
      "stateMutability": "nonpayable",
      "type": "function"
    },
    {
      "inputs": [
        {
          "internalType": "bytes32",
          "name": "tickerTo",
          "type": "bytes32"
        },
        {
          "internalType": "bytes32",
          "name": "tickerFrom",
          "type": "bytes32"
        }
      ],
      "name": "removePair",
      "outputs": [],
      "stateMutability": "nonpayable",
      "type": "function"
    },
    {
      "inputs": [
        {
          "internalType": "enum OrderBook.Side",
          "name": "side",
          "type": "uint8"
        },
        {
          "internalType": "enum OrderBook.OrderType",
          "name": "orderType",
          "type": "uint8"
        },
        {
          "internalType": "bytes32",
          "name": "tickerTo",
          "type": "bytes32"
        },
        {
          "internalType": "bytes32",
          "name": "tickerFrom",
          "type": "bytes32"
        },
        {
          "internalType": "uint256",
          "name": "price",
          "type": "uint256"
        },
        {
          "internalType": "uint256",
          "name": "amount",
          "type": "uint256"
        }
      ],
      "name": "createOrder",
      "outputs": [
        {
          "internalType": "uint256",
          "name": "",
          "type": "uint256"
        }
      ],
      "stateMutability": "nonpayable",
      "type": "function"
    },
    {
      "inputs": [
        {
          "internalType": "uint256",
          "name": "orderId",
          "type": "uint256"
        },
        {
          "internalType": "enum OrderBook.Side",
          "name": "side",
          "type": "uint8"
        },
        {
          "internalType": "bytes32",
          "name": "tickerTo",
          "type": "bytes32"
        },
        {
          "internalType": "bytes32",
          "name": "tickerFrom",
          "type": "bytes32"
        }
      ],
      "name": "cancelOrder",
      "outputs": [],
      "stateMutability": "nonpayable",
      "type": "function"
    },
    {
      "inputs": [
        {
          "internalType": "uint256",
          "name": "orderId",
          "type": "uint256"
        },
        {
          "internalType": "enum OrderBook.Side",
          "name": "side",
          "type": "uint8"
        },
        {
          "internalType": "bytes32",
          "name": "tickerTo",
          "type": "bytes32"
        },
        {
          "internalType": "bytes32",
          "name": "tickerFrom",
          "type": "bytes32"
        }
      ],
      "name": "getOrder",
      "outputs": [
        {
          "components": [
            {
              "internalType": "uint256",
              "name": "id",
              "type": "uint256"
            },
            {
              "internalType": "bool",
              "name": "isActive",
              "type": "bool"
            },
            {
              "internalType": "enum OrderBook.Side",
              "name": "side",
              "type": "uint8"
            },
            {
              "internalType": "enum OrderBook.OrderType",
              "name": "orderType",
              "type": "uint8"
            },
            {
              "internalType": "address",
              "name": "trader",
              "type": "address"
            },
            {
              "internalType": "bytes32",
              "name": "ticker1",
              "type": "bytes32"
            },
            {
              "internalType": "bytes32",
              "name": "ticker2",
              "type": "bytes32"
            },
            {
              "internalType": "uint256",
              "name": "amount",
              "type": "uint256"
            },
            {
              "internalType": "uint256",
              "name": "price",
              "type": "uint256"
            },
            {
              "internalType": "uint256",
              "name": "filled",
              "type": "uint256"
            }
          ],
          "internalType": "struct OrderBook.Order",
          "name": "order",
          "type": "tuple"
        }
      ],
      "stateMutability": "view",
      "type": "function",
      "constant": true
    },
    {
      "inputs": [
        {
          "internalType": "enum OrderBook.Side",
          "name": "side",
          "type": "uint8"
        },
        {
          "internalType": "bytes32",
          "name": "tickerTo",
          "type": "bytes32"
        },
        {
          "internalType": "bytes32",
          "name": "tickerFrom",
          "type": "bytes32"
        }
      ],
      "name": "getOrderBook",
      "outputs": [
        {
          "components": [
            {
              "internalType": "uint256",
              "name": "id",
              "type": "uint256"
            },
            {
              "internalType": "bool",
              "name": "isActive",
              "type": "bool"
            },
            {
              "internalType": "enum OrderBook.Side",
              "name": "side",
              "type": "uint8"
            },
            {
              "internalType": "enum OrderBook.OrderType",
              "name": "orderType",
              "type": "uint8"
            },
            {
              "internalType": "address",
              "name": "trader",
              "type": "address"
            },
            {
              "internalType": "bytes32",
              "name": "ticker1",
              "type": "bytes32"
            },
            {
              "internalType": "bytes32",
              "name": "ticker2",
              "type": "bytes32"
            },
            {
              "internalType": "uint256",
              "name": "amount",
              "type": "uint256"
            },
            {
              "internalType": "uint256",
              "name": "price",
              "type": "uint256"
            },
            {
              "internalType": "uint256",
              "name": "filled",
              "type": "uint256"
            }
          ],
          "internalType": "struct OrderBook.Order[]",
          "name": "",
          "type": "tuple[]"
        }
      ],
      "stateMutability": "view",
      "type": "function",
      "constant": true
    },
    {
      "inputs": [
        {
          "internalType": "enum OrderBook.Side",
          "name": "side",
          "type": "uint8"
        },
        {
          "internalType": "bytes32",
          "name": "tickerTo",
          "type": "bytes32"
        },
        {
          "internalType": "bytes32",
          "name": "tickerFrom",
          "type": "bytes32"
        }
      ],
      "name": "getMarketPrice",
      "outputs": [
        {
          "internalType": "uint256",
          "name": "",
          "type": "uint256"
        }
      ],
      "stateMutability": "view",
      "type": "function",
      "constant": true
    }
  ],
  "bytecode": "0x608060405260006005553480156200001657600080fd5b50620000376200002b6200024360201b60201c565b6200024b60201b60201c565b60405180606001604052807f455448000000000000000000000000000000000000000000000000000000000060001b8152602001600073ffffffffffffffffffffffffffffffffffffffff168152602001601260ff16815250600160007f455448000000000000000000000000000000000000000000000000000000000060001b81526020019081526020016000206000820151816000015560208201518160010160006101000a81548173ffffffffffffffffffffffffffffffffffffffff021916908373ffffffffffffffffffffffffffffffffffffffff16021790555060408201518160010160146101000a81548160ff021916908360ff1602179055509050506002600160007f455448000000000000000000000000000000000000000000000000000000000060001b81526020019081526020016000209080600181540180825580915050600190039060005260206000209060020201600090919091909150600082015481600001556001820160009054906101000a900473ffffffffffffffffffffffffffffffffffffffff168160010160006101000a81548173ffffffffffffffffffffffffffffffffffffffff021916908373ffffffffffffffffffffffffffffffffffffffff1602179055506001820160149054906101000a900460ff168160010160146101000a81548160ff021916908360ff16021790555050506200030f565b600033905090565b60008060009054906101000a900473ffffffffffffffffffffffffffffffffffffffff169050816000806101000a81548173ffffffffffffffffffffffffffffffffffffffff021916908373ffffffffffffffffffffffffffffffffffffffff1602179055508173ffffffffffffffffffffffffffffffffffffffff168173ffffffffffffffffffffffffffffffffffffffff167f8be0079c531659141344cd1fd0a4f28419497f9722a3daafe3b4186f6b6457e060405160405180910390a35050565b615ff2806200031f6000396000f3fe60806040526004361061011f5760003560e01c8063715018a6116100a0578063ac3b759411610064578063ac3b75941461040d578063c9630cb014610436578063d0e30db01461045f578063e98e8dc914610469578063f2fde38b146104a65761011f565b8063715018a61461033a5780638da5cb5b146103515780639776aacf1461037c5780639ead7222146103a5578063a8d2021a146103e45761011f565b80632d9a1a49116100e75780632d9a1a491461022f5780632e1a7d4d146102585780632ecb2145146102815780633cf952de146102be578063667cb4ba146102fb5761011f565b80631c409b0d146101245780631f14df6914610161578063217f97931461019e578063273cbaa0146101c757806328ed30ae146101f2575b600080fd5b34801561013057600080fd5b5061014b600480360381019061014691906147b7565b6104cf565b6040516101589190614ac9565b60405180910390f35b34801561016d57600080fd5b5061018860048036038101906101839190614b17565b61055a565b6040516101959190614b66565b60405180910390f35b3480156101aa57600080fd5b506101c560048036038101906101c09190614bad565b61057f565b005b3480156101d357600080fd5b506101dc6108e1565b6040516101e99190614d21565b60405180910390f35b3480156101fe57600080fd5b50610219600480360381019061021491906147b7565b6109bd565b6040516102269190614b66565b60405180910390f35b34801561023b57600080fd5b5061025660048036038101906102519190614d43565b610a48565b005b34801561026457600080fd5b5061027f600480360381019061027a9190614d83565b610b48565b005b34801561028d57600080fd5b506102a860048036038101906102a39190614dd5565b610d45565b6040516102b59190614b66565b60405180910390f35b3480156102ca57600080fd5b506102e560048036038101906102e09190614bad565b611072565b6040516102f29190614f2e565b60405180910390f35b34801561030757600080fd5b50610322600480360381019061031d9190614f4a565b611105565b60405161033193929190614fa4565b60405180910390f35b34801561034657600080fd5b5061034f61115c565b005b34801561035d57600080fd5b506103666111e4565b6040516103739190614fdb565b60405180910390f35b34801561038857600080fd5b506103a3600480360381019061039e9190614ff6565b61120d565b005b3480156103b157600080fd5b506103cc60048036038101906103c79190614d83565b611537565b6040516103db93929190614fa4565b60405180910390f35b3480156103f057600080fd5b5061040b60048036038101906104069190615036565b61159e565b005b34801561041957600080fd5b50610434600480360381019061042f9190614d43565b61180d565b005b34801561044257600080fd5b5061045d60048036038101906104589190615036565b6118ca565b005b610467611b4d565b005b34801561047557600080fd5b50610490600480360381019061048b9190614d43565b611c48565b60405161049d9190615085565b60405180910390f35b3480156104b257600080fd5b506104cd60048036038101906104c891906150a0565b611c77565b005b6060828260066000838152602001908152602001600020600082815260200190815260200160002060009054906101000a900460ff16610544576040517f08c379a000000000000000000000000000000000000000000000000000000000815260040161053b9061512a565b60405180910390fd5b61054f868686611d6f565b925050509392505050565b6003602052816000526040600020602052806000526040600020600091509150505481565b818160066000838152602001908152602001600020600082815260200190815260200160002060009054906101000a900460ff166105f2576040517f08c379a00000000000000000000000000000000000000000000000000000000081526004016105e99061512a565b60405180910390fd5b6005548610610636576040517f08c379a000000000000000000000000000000000000000000000000000000000815260040161062d90615196565b60405180910390fd5b60005b60046000868152602001908152602001600020600085815260200190815260200160002060008760018111156106725761067161486a565b5b60018111156106845761068361486a565b5b8152602001908152602001600020805490508110156108d8578660046000878152602001908152602001600020600086815260200190815260200160002060008860018111156106d7576106d661486a565b5b60018111156106e9576106e861486a565b5b81526020019081526020016000208281548110610709576107086151b6565b5b90600052602060002090600702016000015414156108c5573373ffffffffffffffffffffffffffffffffffffffff1660046000878152602001908152602001600020600086815260200190815260200160002060008860018111156107715761077061486a565b5b60018111156107835761078261486a565b5b815260200190815260200160002082815481106107a3576107a26151b6565b5b906000526020600020906007020160010160039054906101000a900473ffffffffffffffffffffffffffffffffffffffff1673ffffffffffffffffffffffffffffffffffffffff161461082b576040517f08c379a000000000000000000000000000000000000000000000000000000000815260040161082290615231565b60405180910390fd5b600060046000878152602001908152602001600020600086815260200190815260200160002060008860018111156108665761086561486a565b5b60018111156108785761087761486a565b5b81526020019081526020016000208281548110610898576108976151b6565b5b906000526020600020906007020160010160006101000a81548160ff0219169083151502179055506108d8565b80806108d090615280565b915050610639565b50505050505050565b60606002805480602002602001604051908101604052809291908181526020016000905b828210156109b45783829060005260206000209060020201604051806060016040529081600082015481526020016001820160009054906101000a900473ffffffffffffffffffffffffffffffffffffffff1673ffffffffffffffffffffffffffffffffffffffff1673ffffffffffffffffffffffffffffffffffffffff1681526020016001820160149054906101000a900460ff1660ff1660ff168152505081526020019060010190610905565b50505050905090565b6000828260066000838152602001908152602001600020600082815260200190815260200160002060009054906101000a900460ff16610a32576040517f08c379a0000000000000000000000000000000000000000000000000000000008152600401610a299061512a565b60405180910390fd5b610a3d868686611f4d565b925050509392505050565b610a506120e1565b73ffffffffffffffffffffffffffffffffffffffff16610a6e6111e4565b73ffffffffffffffffffffffffffffffffffffffff1614610ac4576040517f08c379a0000000000000000000000000000000000000000000000000000000008152600401610abb90615315565b60405180910390fd5b80821415610b07576040517f08c379a0000000000000000000000000000000000000000000000000000000008152600401610afe90615381565b60405180910390fd5b600160066000848152602001908152602001600020600083815260200190815260200160002060006101000a81548160ff0219169083151502179055505050565b80600360003373ffffffffffffffffffffffffffffffffffffffff1673ffffffffffffffffffffffffffffffffffffffff16815260200190815260200160002060007f455448000000000000000000000000000000000000000000000000000000000060001b8152602001908152602001600020541015610bfe576040517f08c379a0000000000000000000000000000000000000000000000000000000008152600401610bf590615413565b60405180910390fd5b610c8481600360003373ffffffffffffffffffffffffffffffffffffffff1673ffffffffffffffffffffffffffffffffffffffff16815260200190815260200160002060007f455448000000000000000000000000000000000000000000000000000000000060001b8152602001908152602001600020546120e990919063ffffffff16565b600360003373ffffffffffffffffffffffffffffffffffffffff1673ffffffffffffffffffffffffffffffffffffffff16815260200190815260200160002060007f455448000000000000000000000000000000000000000000000000000000000060001b8152602001908152602001600020819055503373ffffffffffffffffffffffffffffffffffffffff166108fc829081150290604051600060405180830381858888f19350505050158015610d41573d6000803e3d6000fd5b5050565b6000848460066000838152602001908152602001600020600082815260200190815260200160002060009054906101000a900460ff16610dba576040517f08c379a0000000000000000000000000000000000000000000000000000000008152600401610db19061512a565b60405180910390fd5b60006001600089815260200190815260200160002060010160149054906101000a900460ff16600a610dec9190615566565b8587610df891906155b1565b610e02919061563a565b90506000811180610e47575060006004811115610e2257610e2161486a565b5b896004811115610e3557610e3461486a565b5b148015610e465750633b9aca008510155b5b610e86576040517f08c379a0000000000000000000000000000000000000000000000000000000008152600401610e7d906156dd565b60405180910390fd5b60006001811115610e9a57610e9961486a565b5b8a6001811115610ead57610eac61486a565b5b1415610f51576000600360003373ffffffffffffffffffffffffffffffffffffffff1673ffffffffffffffffffffffffffffffffffffffff168152602001908152602001600020600089815260200190815260200160002054905081811015610f4b576040517f08c379a0000000000000000000000000000000000000000000000000000000008152600401610f429061576f565b60405180910390fd5b50610feb565b6000600360003373ffffffffffffffffffffffffffffffffffffffff1673ffffffffffffffffffffffffffffffffffffffff16815260200190815260200160002060008a815260200190815260200160002054905085811015610fe9576040517f08c379a0000000000000000000000000000000000000000000000000000000008152600401610fe090615801565b60405180910390fd5b505b6000610ffb8b8b8b8b8b8b6120ff565b90503373ffffffffffffffffffffffffffffffffffffffff167f8a0333324a3492150ffba30d2434f066fdf11da1d9b00c374439fb1ad62261d1828d8d8d8d8d8d60405161104f979695949392919061583f565b60405180910390a26110618989613295565b809450505050509695505050505050565b61107a6146c2565b828260066000838152602001908152602001600020600082815260200190815260200160002060009054906101000a900460ff166110ed576040517f08c379a00000000000000000000000000000000000000000000000000000000081526004016110e49061512a565b60405180910390fd5b6110f987878787613f40565b92505050949350505050565b60016020528060005260406000206000915090508060000154908060010160009054906101000a900473ffffffffffffffffffffffffffffffffffffffff16908060010160149054906101000a900460ff16905083565b6111646120e1565b73ffffffffffffffffffffffffffffffffffffffff166111826111e4565b73ffffffffffffffffffffffffffffffffffffffff16146111d8576040517f08c379a00000000000000000000000000000000000000000000000000000000081526004016111cf90615315565b60405180910390fd5b6111e2600061423e565b565b60008060009054906101000a900473ffffffffffffffffffffffffffffffffffffffff16905090565b6112156120e1565b73ffffffffffffffffffffffffffffffffffffffff166112336111e4565b73ffffffffffffffffffffffffffffffffffffffff1614611289576040517f08c379a000000000000000000000000000000000000000000000000000000000815260040161128090615315565b60405180910390fd5b60006001600084815260200190815260200160002060010160149054906101000a900460ff1660ff16146112f2576040517f08c379a00000000000000000000000000000000000000000000000000000000081526004016112e9906158fa565b60405180910390fd5b60007f455448000000000000000000000000000000000000000000000000000000000060001b8314611392578173ffffffffffffffffffffffffffffffffffffffff1663313ce5676040518163ffffffff1660e01b8152600401602060405180830381865afa158015611369573d6000803e3d6000fd5b505050506040513d601f19601f8201168201806040525081019061138d9190615946565b611395565b60125b905060405180606001604052808481526020018373ffffffffffffffffffffffffffffffffffffffff1681526020018260ff16815250600160008581526020019081526020016000206000820151816000015560208201518160010160006101000a81548173ffffffffffffffffffffffffffffffffffffffff021916908373ffffffffffffffffffffffffffffffffffffffff16021790555060408201518160010160146101000a81548160ff021916908360ff1602179055509050506002600160008581526020019081526020016000209080600181540180825580915050600190039060005260206000209060020201600090919091909150600082015481600001556001820160009054906101000a900473ffffffffffffffffffffffffffffffffffffffff168160010160006101000a81548173ffffffffffffffffffffffffffffffffffffffff021916908373ffffffffffffffffffffffffffffffffffffffff1602179055506001820160149054906101000a900460ff168160010160146101000a81548160ff021916908360ff1602179055505050505050565b6002818154811061154757600080fd5b90600052602060002090600202016000915090508060000154908060010160009054906101000a900473ffffffffffffffffffffffffffffffffffffffff16908060010160149054906101000a900460ff16905083565b8060006001600083815260200190815260200160002060010160149054906101000a900460ff1660ff161415611609576040517f08c379a0000000000000000000000000000000000000000000000000000000008152600401611600906159bf565b60405180910390fd5b82600360003373ffffffffffffffffffffffffffffffffffffffff1673ffffffffffffffffffffffffffffffffffffffff168152602001908152602001600020600084815260200190815260200160002054101561169c576040517f08c379a000000000000000000000000000000000000000000000000000000000815260040161169390615a51565b60405180910390fd5b6116ff83600360003373ffffffffffffffffffffffffffffffffffffffff1673ffffffffffffffffffffffffffffffffffffffff1681526020019081526020016000206000858152602001908152602001600020546120e990919063ffffffff16565b600360003373ffffffffffffffffffffffffffffffffffffffff1673ffffffffffffffffffffffffffffffffffffffff1681526020019081526020016000206000848152602001908152602001600020819055506001600083815260200190815260200160002060010160009054906101000a900473ffffffffffffffffffffffffffffffffffffffff1673ffffffffffffffffffffffffffffffffffffffff1663a9059cbb33856040518363ffffffff1660e01b81526004016117c4929190615a71565b6020604051808303816000875af11580156117e3573d6000803e3d6000fd5b505050506040513d601f19601f820116820180604052508101906118079190615ac6565b50505050565b6118156120e1565b73ffffffffffffffffffffffffffffffffffffffff166118336111e4565b73ffffffffffffffffffffffffffffffffffffffff1614611889576040517f08c379a000000000000000000000000000000000000000000000000000000000815260040161188090615315565b60405180910390fd5b600060066000848152602001908152602001600020600083815260200190815260200160002060006101000a81548160ff0219169083151502179055505050565b8060006001600083815260200190815260200160002060010160149054906101000a900460ff1660ff161415611935576040517f08c379a000000000000000000000000000000000000000000000000000000000815260040161192c906159bf565b60405180910390fd5b3373ffffffffffffffffffffffffffffffffffffffff166001600084815260200190815260200160002060010160009054906101000a900473ffffffffffffffffffffffffffffffffffffffff1673ffffffffffffffffffffffffffffffffffffffff1614156119da576040517f08c379a00000000000000000000000000000000000000000000000000000000081526004016119d190615b65565b60405180910390fd5b611a3d83600360003373ffffffffffffffffffffffffffffffffffffffff1673ffffffffffffffffffffffffffffffffffffffff16815260200190815260200160002060008581526020019081526020016000205461430290919063ffffffff16565b600360003373ffffffffffffffffffffffffffffffffffffffff1673ffffffffffffffffffffffffffffffffffffffff1681526020019081526020016000206000848152602001908152602001600020819055506001600083815260200190815260200160002060010160009054906101000a900473ffffffffffffffffffffffffffffffffffffffff1673ffffffffffffffffffffffffffffffffffffffff166323b872dd3330866040518463ffffffff1660e01b8152600401611b0493929190615b85565b6020604051808303816000875af1158015611b23573d6000803e3d6000fd5b505050506040513d601f19601f82011682018060405250810190611b479190615ac6565b50505050565b3373ffffffffffffffffffffffffffffffffffffffff163073ffffffffffffffffffffffffffffffffffffffff161415611bbc576040517f08c379a0000000000000000000000000000000000000000000000000000000008152600401611bb390615c2e565b60405180910390fd5b34600360003373ffffffffffffffffffffffffffffffffffffffff1673ffffffffffffffffffffffffffffffffffffffff16815260200190815260200160002060007f455448000000000000000000000000000000000000000000000000000000000060001b81526020019081526020016000206000828254611c3f9190615c4e565b92505081905550565b60066020528160005260406000206020528060005260406000206000915091509054906101000a900460ff1681565b611c7f6120e1565b73ffffffffffffffffffffffffffffffffffffffff16611c9d6111e4565b73ffffffffffffffffffffffffffffffffffffffff1614611cf3576040517f08c379a0000000000000000000000000000000000000000000000000000000008152600401611cea90615315565b60405180910390fd5b600073ffffffffffffffffffffffffffffffffffffffff168173ffffffffffffffffffffffffffffffffffffffff161415611d63576040517f08c379a0000000000000000000000000000000000000000000000000000000008152600401611d5a90615d16565b60405180910390fd5b611d6c8161423e565b50565b60606004600084815260200190815260200160002060008381526020019081526020016000206000856001811115611daa57611da961486a565b5b6001811115611dbc57611dbb61486a565b5b8152602001908152602001600020805480602002602001604051908101604052809291908181526020016000905b82821015611f40578382906000526020600020906007020160405180610140016040529081600082015481526020016001820160009054906101000a900460ff161515151581526020016001820160019054906101000a900460ff166001811115611e5857611e5761486a565b5b6001811115611e6a57611e6961486a565b5b81526020016001820160029054906101000a900460ff166004811115611e9357611e9261486a565b5b6004811115611ea557611ea461486a565b5b81526020016001820160039054906101000a900473ffffffffffffffffffffffffffffffffffffffff1673ffffffffffffffffffffffffffffffffffffffff1673ffffffffffffffffffffffffffffffffffffffff1681526020016002820154815260200160038201548152602001600482015481526020016005820154815260200160068201548152505081526020019060010190611dea565b5050505090509392505050565b6000806004600085815260200190815260200160002060008481526020019081526020016000206000866001811115611f8957611f8861486a565b5b6001811115611f9b57611f9a61486a565b5b81526020019081526020016000208054905011611fed576040517f08c379a0000000000000000000000000000000000000000000000000000000008152600401611fe490615d82565b60405180910390fd5b60006001600460008681526020019081526020016000206000858152602001908152602001600020600087600181111561202a5761202961486a565b5b600181111561203c5761203b61486a565b5b8152602001908152602001600020805490506120589190615da2565b905060046000858152602001908152602001600020600084815260200190815260200160002060008660018111156120935761209261486a565b5b60018111156120a5576120a461486a565b5b815260200190815260200160002081815481106120c5576120c46151b6565b5b9060005260206000209060070201600501549150509392505050565b600033905090565b600081836120f79190615da2565b905092915050565b6000808211612143576040517f08c379a000000000000000000000000000000000000000000000000000000000815260040161213a90615e22565b60405180910390fd5b600060048111156121575761215661486a565b5b86600481111561216a5761216961486a565b5b146121b357600083116121b2576040517f08c379a00000000000000000000000000000000000000000000000000000000081526004016121a990615eb4565b60405180910390fd5b5b600060048111156121c7576121c661486a565b5b8660048111156121da576121d961486a565b5b14156122285760008060018111156121f5576121f461486a565b5b8860018111156122085761220761486a565b5b14612214576000612217565b60015b90506122248187876109bd565b9350505b6000604051806101400160405280600554815260200160011515815260200189600181111561225a5761225961486a565b5b81526020018860048111156122725761227161486a565b5b81526020013373ffffffffffffffffffffffffffffffffffffffff16815260200187815260200186815260200184815260200185815260200160008152509050600560008154809291906122c590615280565b919050555060046000878152602001908152602001600020600086815260200190815260200160002060008960018111156123035761230261486a565b5b60018111156123155761231461486a565b5b81526020019081526020016000208190806001815401808255809150506001900390600052602060002090600702016000909190919091506000820151816000015560208201518160010160006101000a81548160ff02191690831515021790555060408201518160010160016101000a81548160ff021916908360018111156123a2576123a161486a565b5b021790555060608201518160010160026101000a81548160ff021916908360048111156123d2576123d161486a565b5b021790555060808201518160010160036101000a81548173ffffffffffffffffffffffffffffffffffffffff021916908373ffffffffffffffffffffffffffffffffffffffff16021790555060a0820151816002015560c0820151816003015560e08201518160040155610100820151816005015561012082015181600601555050600060046000888152602001908152602001600020600087815260200190815260200160002060008a600181111561248f5761248e61486a565b5b60018111156124a1576124a061486a565b5b8152602001908152602001600020805490509050600060018111156124c9576124c861486a565b5b8960018111156124dc576124db61486a565b5b1415612baf5760006001826124f19190615da2565b90505b6000811115612ba95760046000898152602001908152602001600020600088815260200190815260200160002060008b60018111156125365761253561486a565b5b60018111156125485761254761486a565b5b81526020019081526020016000208181548110612568576125676151b6565b5b906000526020600020906007020160050154600460008a8152602001908152602001600020600089815260200190815260200160002060008c60018111156125b3576125b261486a565b5b60018111156125c5576125c461486a565b5b81526020019081526020016000206001836125e09190615da2565b815481106125f1576125f06151b6565b5b9060005260206000209060070201600501541115612b915760046000898152602001908152602001600020600088815260200190815260200160002060008b60018111156126425761264161486a565b5b60018111156126545761265361486a565b5b81526020019081526020016000208181548110612674576126736151b6565b5b906000526020600020906007020160405180610140016040529081600082015481526020016001820160009054906101000a900460ff161515151581526020016001820160019054906101000a900460ff1660018111156126d8576126d761486a565b5b60018111156126ea576126e961486a565b5b81526020016001820160029054906101000a900460ff1660048111156127135761271261486a565b5b60048111156127255761272461486a565b5b81526020016001820160039054906101000a900473ffffffffffffffffffffffffffffffffffffffff1673ffffffffffffffffffffffffffffffffffffffff1673ffffffffffffffffffffffffffffffffffffffff16815260200160028201548152602001600382015481526020016004820154815260200160058201548152602001600682015481525050925060046000898152602001908152602001600020600088815260200190815260200160002060008b60018111156127ec576127eb61486a565b5b60018111156127fe576127fd61486a565b5b81526020019081526020016000206001826128199190615da2565b8154811061282a576128296151b6565b5b9060005260206000209060070201600460008a8152602001908152602001600020600089815260200190815260200160002060008c60018111156128715761287061486a565b5b60018111156128835761288261486a565b5b815260200190815260200160002082815481106128a3576128a26151b6565b5b9060005260206000209060070201600082015481600001556001820160009054906101000a900460ff168160010160006101000a81548160ff0219169083151502179055506001820160019054906101000a900460ff168160010160016101000a81548160ff021916908360018111156129205761291f61486a565b5b02179055506001820160029054906101000a900460ff168160010160026101000a81548160ff0219169083600481111561295d5761295c61486a565b5b02179055506001820160039054906101000a900473ffffffffffffffffffffffffffffffffffffffff168160010160036101000a81548173ffffffffffffffffffffffffffffffffffffffff021916908373ffffffffffffffffffffffffffffffffffffffff160217905550600282015481600201556003820154816003015560048201548160040155600582015481600501556006820154816006015590505082600460008a8152602001908152602001600020600089815260200190815260200160002060008c6001811115612a3857612a3761486a565b5b6001811115612a4a57612a4961486a565b5b8152602001908152602001600020600183612a659190615da2565b81548110612a7657612a756151b6565b5b90600052602060002090600702016000820151816000015560208201518160010160006101000a81548160ff02191690831515021790555060408201518160010160016101000a81548160ff02191690836001811115612ad957612ad861486a565b5b021790555060608201518160010160026101000a81548160ff02191690836004811115612b0957612b0861486a565b5b021790555060808201518160010160036101000a81548173ffffffffffffffffffffffffffffffffffffffff021916908373ffffffffffffffffffffffffffffffffffffffff16021790555060a0820151816002015560c0820151816003015560e0820151816004015561010082015181600501556101208201518160060155905050612b96565b612ba9565b8080612ba190615ed4565b9150506124f4565b50613278565b6000600182612bbe9190615da2565b90505b60008111156132765760046000898152602001908152602001600020600088815260200190815260200160002060008b6001811115612c0357612c0261486a565b5b6001811115612c1557612c1461486a565b5b81526020019081526020016000208181548110612c3557612c346151b6565b5b906000526020600020906007020160050154600460008a8152602001908152602001600020600089815260200190815260200160002060008c6001811115612c8057612c7f61486a565b5b6001811115612c9257612c9161486a565b5b8152602001908152602001600020600183612cad9190615da2565b81548110612cbe57612cbd6151b6565b5b906000526020600020906007020160050154101561325e5760046000898152602001908152602001600020600088815260200190815260200160002060008b6001811115612d0f57612d0e61486a565b5b6001811115612d2157612d2061486a565b5b81526020019081526020016000208181548110612d4157612d406151b6565b5b906000526020600020906007020160405180610140016040529081600082015481526020016001820160009054906101000a900460ff161515151581526020016001820160019054906101000a900460ff166001811115612da557612da461486a565b5b6001811115612db757612db661486a565b5b81526020016001820160029054906101000a900460ff166004811115612de057612ddf61486a565b5b6004811115612df257612df161486a565b5b81526020016001820160039054906101000a900473ffffffffffffffffffffffffffffffffffffffff1673ffffffffffffffffffffffffffffffffffffffff1673ffffffffffffffffffffffffffffffffffffffff16815260200160028201548152602001600382015481526020016004820154815260200160058201548152602001600682015481525050925060046000898152602001908152602001600020600088815260200190815260200160002060008b6001811115612eb957612eb861486a565b5b6001811115612ecb57612eca61486a565b5b8152602001908152602001600020600182612ee69190615da2565b81548110612ef757612ef66151b6565b5b9060005260206000209060070201600460008a8152602001908152602001600020600089815260200190815260200160002060008c6001811115612f3e57612f3d61486a565b5b6001811115612f5057612f4f61486a565b5b81526020019081526020016000208281548110612f7057612f6f6151b6565b5b9060005260206000209060070201600082015481600001556001820160009054906101000a900460ff168160010160006101000a81548160ff0219169083151502179055506001820160019054906101000a900460ff168160010160016101000a81548160ff02191690836001811115612fed57612fec61486a565b5b02179055506001820160029054906101000a900460ff168160010160026101000a81548160ff0219169083600481111561302a5761302961486a565b5b02179055506001820160039054906101000a900473ffffffffffffffffffffffffffffffffffffffff168160010160036101000a81548173ffffffffffffffffffffffffffffffffffffffff021916908373ffffffffffffffffffffffffffffffffffffffff160217905550600282015481600201556003820154816003015560048201548160040155600582015481600501556006820154816006015590505082600460008a8152602001908152602001600020600089815260200190815260200160002060008c60018111156131055761310461486a565b5b60018111156131175761311661486a565b5b81526020019081526020016000206001836131329190615da2565b81548110613143576131426151b6565b5b90600052602060002090600702016000820151816000015560208201518160010160006101000a81548160ff02191690831515021790555060408201518160010160016101000a81548160ff021916908360018111156131a6576131a561486a565b5b021790555060608201518160010160026101000a81548160ff021916908360048111156131d6576131d561486a565b5b021790555060808201518160010160036101000a81548173ffffffffffffffffffffffffffffffffffffffff021916908373ffffffffffffffffffffffffffffffffffffffff16021790555060a0820151816002015560c0820151816003015560e0820151816004015561010082015181600501556101208201518160060155905050613263565b613276565b808061326e90615ed4565b915050612bc1565b505b60016005546132879190615da2565b925050509695505050505050565b5b600060046000848152602001908152602001600020600083815260200190815260200160002060006001808111156132d1576132d061486a565b5b60018111156132e3576132e261486a565b5b81526020019081526020016000208054905011801561335e5750600060046000848152602001908152602001600020600083815260200190815260200160002060008060018111156133385761333761486a565b5b600181111561334a5761334961486a565b5b815260200190815260200160002080549050115b15613f3c576000600160046000858152602001908152602001600020600084815260200190815260200160002060008060018111156133a05761339f61486a565b5b60018111156133b2576133b161486a565b5b8152602001908152602001600020805490506133ce9190615da2565b90506000600460008581526020019081526020016000206000848152602001908152602001600020600080600181111561340b5761340a61486a565b5b600181111561341d5761341c61486a565b5b8152602001908152602001600020828154811061343d5761343c6151b6565b5b9060005260206000209060070201905060006001600460008781526020019081526020016000206000868152602001908152602001600020600060018081111561348a5761348961486a565b5b600181111561349c5761349b61486a565b5b8152602001908152602001600020805490506134b89190615da2565b9050600060046000878152602001908152602001600020600086815260200190815260200160002060006001808111156134f5576134f461486a565b5b60018111156135075761350661486a565b5b81526020019081526020016000208281548110613527576135266151b6565b5b906000526020600020906007020190508260010160009054906101000a900460ff1661355a5761355960008787614318565b5b8060010160009054906101000a900460ff1661357d5761357c60018787614318565b5b8060010160009054906101000a900460ff1615806135aa57508260010160009054906101000a900460ff16155b156135b85750505050613296565b600060048111156135cc576135cb61486a565b5b8360010160029054906101000a900460ff1660048111156135f0576135ef61486a565b5b14801561363257506000600481111561360c5761360b61486a565b5b8160010160029054906101000a900460ff1660048111156136305761362f61486a565b5b145b1561365457806005015483600501541461364f5761364e615efe565b5b613776565b600060048111156136685761366761486a565b5b8360010160029054906101000a900460ff16600481111561368c5761368b61486a565b5b141580156136cf5750600060048111156136a9576136a861486a565b5b8160010160029054906101000a900460ff1660048111156136cd576136cc61486a565b5b145b156136e65782600501548160050181905550613775565b600060048111156136fa576136f961486a565b5b8360010160029054906101000a900460ff16600481111561371e5761371d61486a565b5b14801561376157506000600481111561373a5761373961486a565b5b8160010160029054906101000a900460ff16600481111561375e5761375d61486a565b5b14155b1561377457806005015483600501819055505b5b5b80600501548360050154101561378f5750505050613f3c565b600160055461379e9190615da2565b83600001541480156137e457506004808111156137be576137bd61486a565b5b8360010160029054906101000a900460ff1660048111156137e2576137e161486a565b5b145b156137fe576137f560008787614318565b50505050613296565b600160055461380d9190615da2565b8160000154148015613853575060048081111561382d5761382c61486a565b5b8160010160029054906101000a900460ff1660048111156138515761385061486a565b5b145b1561386d5761386460018787614318565b50505050613296565b6000836000015482600001541061388857836005015461388e565b81600501545b90506000846006015485600401546138a69190615da2565b90506000836006015484600401546138be9190615da2565b905060006138cc83836146a9565b90506000600160008c815260200190815260200160002060010160149054906101000a900460ff16600a6139009190615566565b858361390c91906155b1565b613916919061563a565b905060006003600481111561392e5761392d61486a565b5b8960010160029054906101000a900460ff1660048111156139525761395161486a565b5b148015613963575082896004015414155b156139795761397460008d8d614318565b600190505b6003600481111561398d5761398c61486a565b5b8760010160029054906101000a900460ff1660048111156139b1576139b061486a565b5b1480156139c2575082876004015414155b156139d8576139d360018d8d614318565b600190505b80156139ed5750505050505050505050613296565b82600360008b60010160039054906101000a900473ffffffffffffffffffffffffffffffffffffffff1673ffffffffffffffffffffffffffffffffffffffff1673ffffffffffffffffffffffffffffffffffffffff16815260200190815260200160002060008e81526020019081526020016000206000828254613a719190615c4e565b9250508190555081600360008b60010160039054906101000a900473ffffffffffffffffffffffffffffffffffffffff1673ffffffffffffffffffffffffffffffffffffffff1673ffffffffffffffffffffffffffffffffffffffff16815260200190815260200160002060008d81526020019081526020016000206000828254613afc9190615da2565b9250508190555082600360008960010160039054906101000a900473ffffffffffffffffffffffffffffffffffffffff1673ffffffffffffffffffffffffffffffffffffffff1673ffffffffffffffffffffffffffffffffffffffff16815260200190815260200160002060008e81526020019081526020016000206000828254613b879190615da2565b9250508190555081600360008960010160039054906101000a900473ffffffffffffffffffffffffffffffffffffffff1673ffffffffffffffffffffffffffffffffffffffff1673ffffffffffffffffffffffffffffffffffffffff16815260200190815260200160002060008d81526020019081526020016000206000828254613c129190615c4e565b9250508190555082896006016000828254613c2d9190615c4e565b9250508190555082876006016000828254613c489190615c4e565b92505081905550886004015489600601541115613c6857613c67615efe565b5b866004015487600601541115613c8157613c80615efe565b5b8860010160039054906101000a900473ffffffffffffffffffffffffffffffffffffffff1673ffffffffffffffffffffffffffffffffffffffff167f36a54e61f475a84cd4a5c3b403be29e6101b05ec843b61fb97c3e123ff59b3f48a60000154888c60060154604051613cf793929190615f2d565b60405180910390a28660010160039054906101000a900473ffffffffffffffffffffffffffffffffffffffff1673ffffffffffffffffffffffffffffffffffffffff167f36a54e61f475a84cd4a5c3b403be29e6101b05ec843b61fb97c3e123ff59b3f48860000154888a60060154604051613d7593929190615f2d565b60405180910390a26000600160008e815260200190815260200160002060010160149054906101000a900460ff16600a613daf9190615566565b8a600501548b600601548c60040154613dc89190615da2565b613dd291906155b1565b613ddc919061563a565b90506000600160008f815260200190815260200160002060010160149054906101000a900460ff16600a613e109190615566565b89600501548a600601548b60040154613e299190615da2565b613e3391906155b1565b613e3d919061563a565b90506000821415613e5957613e5460008f8f614318565b613eb5565b60026004811115613e6d57613e6c61486a565b5b8b60010160029054906101000a900460ff166004811115613e9157613e9061486a565b5b148015613ea2575060008b60060154115b15613eb457613eb360008f8f614318565b5b5b6000811415613ecf57613eca60018f8f614318565b613f2b565b60026004811115613ee357613ee261486a565b5b8960010160029054906101000a900460ff166004811115613f0757613f0661486a565b5b148015613f18575060008960060154115b15613f2a57613f2960018f8f614318565b5b5b505050505050505050505050613296565b5050565b613f486146c2565b6005548510613f8c576040517f08c379a0000000000000000000000000000000000000000000000000000000008152600401613f8390615196565b60405180910390fd5b60005b6004600085815260200190815260200160002060008481526020019081526020016000206000866001811115613fc857613fc761486a565b5b6001811115613fda57613fd961486a565b5b8152602001908152602001600020805490508110156142355785600460008681526020019081526020016000206000858152602001908152602001600020600087600181111561402d5761402c61486a565b5b600181111561403f5761403e61486a565b5b8152602001908152602001600020828154811061405f5761405e6151b6565b5b90600052602060002090600702016000015414156142225760046000858152602001908152602001600020600084815260200190815260200160002060008660018111156140b0576140af61486a565b5b60018111156140c2576140c161486a565b5b815260200190815260200160002081815481106140e2576140e16151b6565b5b906000526020600020906007020160405180610140016040529081600082015481526020016001820160009054906101000a900460ff161515151581526020016001820160019054906101000a900460ff1660018111156141465761414561486a565b5b60018111156141585761415761486a565b5b81526020016001820160029054906101000a900460ff1660048111156141815761418061486a565b5b60048111156141935761419261486a565b5b81526020016001820160039054906101000a900473ffffffffffffffffffffffffffffffffffffffff1673ffffffffffffffffffffffffffffffffffffffff1673ffffffffffffffffffffffffffffffffffffffff1681526020016002820154815260200160038201548152602001600482015481526020016005820154815260200160068201548152505091505b808061422d90615280565b915050613f8f565b50949350505050565b60008060009054906101000a900473ffffffffffffffffffffffffffffffffffffffff169050816000806101000a81548173ffffffffffffffffffffffffffffffffffffffff021916908373ffffffffffffffffffffffffffffffffffffffff1602179055508173ffffffffffffffffffffffffffffffffffffffff168173ffffffffffffffffffffffffffffffffffffffff167f8be0079c531659141344cd1fd0a4f28419497f9722a3daafe3b4186f6b6457e060405160405180910390a35050565b600081836143109190615c4e565b905092915050565b6000600160046000858152602001908152602001600020600084815260200190815260200160002060008660018111156143555761435461486a565b5b60018111156143675761436661486a565b5b8152602001908152602001600020805490506143839190615da2565b9050600060046000858152602001908152602001600020600084815260200190815260200160002060008660018111156143c0576143bf61486a565b5b60018111156143d2576143d161486a565b5b815260200190815260200160002082815481106143f2576143f16151b6565b5b906000526020600020906007020190508060010160039054906101000a900473ffffffffffffffffffffffffffffffffffffffff1673ffffffffffffffffffffffffffffffffffffffff167f26af14115f21b05d36ec1e7593fc9f481190ee553c5598923b71d87b26c41c0682600001548360060154604051614476929190615f64565b60405180910390a260046000858152602001908152602001600020600084815260200190815260200160002060008660018111156144b7576144b661486a565b5b60018111156144c9576144c861486a565b5b815260200190815260200160002082815481106144e9576144e86151b6565b5b90600052602060002090600702016000808201600090556001820160006101000a81549060ff02191690556001820160016101000a81549060ff02191690556001820160026101000a81549060ff02191690556001820160036101000a81549073ffffffffffffffffffffffffffffffffffffffff021916905560028201600090556003820160009055600482016000905560058201600090556006820160009055505060046000858152602001908152602001600020600084815260200190815260200160002060008660018111156145c6576145c561486a565b5b60018111156145d8576145d761486a565b5b81526020019081526020016000208054806145f6576145f5615f8d565b5b60019003818190600052602060002090600702016000808201600090556001820160006101000a81549060ff02191690556001820160016101000a81549060ff02191690556001820160026101000a81549060ff02191690556001820160036101000a81549073ffffffffffffffffffffffffffffffffffffffff021916905560028201600090556003820160009055600482016000905560058201600090556006820160009055505090555050505050565b60008183106146b857816146ba565b825b905092915050565b60405180610140016040528060008152602001600015158152602001600060018111156146f2576146f161486a565b5b81526020016000600481111561470b5761470a61486a565b5b8152602001600073ffffffffffffffffffffffffffffffffffffffff16815260200160008019168152602001600080191681526020016000815260200160008152602001600081525090565b600080fd5b6002811061476957600080fd5b50565b60008135905061477b8161475c565b92915050565b6000819050919050565b61479481614781565b811461479f57600080fd5b50565b6000813590506147b18161478b565b92915050565b6000806000606084860312156147d0576147cf614757565b5b60006147de8682870161476c565b93505060206147ef868287016147a2565b9250506040614800868287016147a2565b9150509250925092565b600081519050919050565b600082825260208201905092915050565b6000819050602082019050919050565b6000819050919050565b61484981614836565b82525050565b60008115159050919050565b6148648161484f565b82525050565b7f4e487b7100000000000000000000000000000000000000000000000000000000600052602160045260246000fd5b600281106148aa576148a961486a565b5b50565b60008190506148bb82614899565b919050565b60006148cb826148ad565b9050919050565b6148db816148c0565b82525050565b600581106148f2576148f161486a565b5b50565b6000819050614903826148e1565b919050565b6000614913826148f5565b9050919050565b61492381614908565b82525050565b600073ffffffffffffffffffffffffffffffffffffffff82169050919050565b600061495482614929565b9050919050565b61496481614949565b82525050565b61497381614781565b82525050565b610140820160008201516149906000850182614840565b5060208201516149a3602085018261485b565b5060408201516149b660408501826148d2565b5060608201516149c9606085018261491a565b5060808201516149dc608085018261495b565b5060a08201516149ef60a085018261496a565b5060c0820151614a0260c085018261496a565b5060e0820151614a1560e0850182614840565b50610100820151614a2a610100850182614840565b50610120820151614a3f610120850182614840565b50505050565b6000614a518383614979565b6101408301905092915050565b6000602082019050919050565b6000614a768261480a565b614a808185614815565b9350614a8b83614826565b8060005b83811015614abc578151614aa38882614a45565b9750614aae83614a5e565b925050600181019050614a8f565b5085935050505092915050565b60006020820190508181036000830152614ae38184614a6b565b905092915050565b614af481614949565b8114614aff57600080fd5b50565b600081359050614b1181614aeb565b92915050565b60008060408385031215614b2e57614b2d614757565b5b6000614b3c85828601614b02565b9250506020614b4d858286016147a2565b9150509250929050565b614b6081614836565b82525050565b6000602082019050614b7b6000830184614b57565b92915050565b614b8a81614836565b8114614b9557600080fd5b50565b600081359050614ba781614b81565b92915050565b60008060008060808587031215614bc757614bc6614757565b5b6000614bd587828801614b98565b9450506020614be68782880161476c565b9350506040614bf7878288016147a2565b9250506060614c08878288016147a2565b91505092959194509250565b600081519050919050565b600082825260208201905092915050565b6000819050602082019050919050565b600060ff82169050919050565b614c5681614c40565b82525050565b606082016000820151614c72600085018261496a565b506020820151614c85602085018261495b565b506040820151614c986040850182614c4d565b50505050565b6000614caa8383614c5c565b60608301905092915050565b6000602082019050919050565b6000614cce82614c14565b614cd88185614c1f565b9350614ce383614c30565b8060005b83811015614d14578151614cfb8882614c9e565b9750614d0683614cb6565b925050600181019050614ce7565b5085935050505092915050565b60006020820190508181036000830152614d3b8184614cc3565b905092915050565b60008060408385031215614d5a57614d59614757565b5b6000614d68858286016147a2565b9250506020614d79858286016147a2565b9150509250929050565b600060208284031215614d9957614d98614757565b5b6000614da784828501614b98565b91505092915050565b60058110614dbd57600080fd5b50565b600081359050614dcf81614db0565b92915050565b60008060008060008060c08789031215614df257614df1614757565b5b6000614e0089828a0161476c565b9650506020614e1189828a01614dc0565b9550506040614e2289828a016147a2565b9450506060614e3389828a016147a2565b9350506080614e4489828a01614b98565b92505060a0614e5589828a01614b98565b9150509295509295509295565b61014082016000820151614e796000850182614840565b506020820151614e8c602085018261485b565b506040820151614e9f60408501826148d2565b506060820151614eb2606085018261491a565b506080820151614ec5608085018261495b565b5060a0820151614ed860a085018261496a565b5060c0820151614eeb60c085018261496a565b5060e0820151614efe60e0850182614840565b50610100820151614f13610100850182614840565b50610120820151614f28610120850182614840565b50505050565b600061014082019050614f446000830184614e62565b92915050565b600060208284031215614f6057614f5f614757565b5b6000614f6e848285016147a2565b91505092915050565b614f8081614781565b82525050565b614f8f81614949565b82525050565b614f9e81614c40565b82525050565b6000606082019050614fb96000830186614f77565b614fc66020830185614f86565b614fd36040830184614f95565b949350505050565b6000602082019050614ff06000830184614f86565b92915050565b6000806040838503121561500d5761500c614757565b5b600061501b858286016147a2565b925050602061502c85828601614b02565b9150509250929050565b6000806040838503121561504d5761504c614757565b5b600061505b85828601614b98565b925050602061506c858286016147a2565b9150509250929050565b61507f8161484f565b82525050565b600060208201905061509a6000830184615076565b92915050565b6000602082840312156150b6576150b5614757565b5b60006150c484828501614b02565b91505092915050565b600082825260208201905092915050565b7f4465783a207061697220646f65736e2774206578697374000000000000000000600082015250565b60006151146017836150cd565b915061511f826150de565b602082019050919050565b6000602082019050818103600083015261514381615107565b9050919050565b7f4f7264657220646f65736e277420657869737400000000000000000000000000600082015250565b60006151806013836150cd565b915061518b8261514a565b602082019050919050565b600060208201905081810360008301526151af81615173565b9050919050565b7f4e487b7100000000000000000000000000000000000000000000000000000000600052603260045260246000fd5b7f4d75737420626520746865206f72646572206f776e6572000000000000000000600082015250565b600061521b6017836150cd565b9150615226826151e5565b602082019050919050565b6000602082019050818103600083015261524a8161520e565b9050919050565b7f4e487b7100000000000000000000000000000000000000000000000000000000600052601160045260246000fd5b600061528b82614836565b91507fffffffffffffffffffffffffffffffffffffffffffffffffffffffffffffffff8214156152be576152bd615251565b5b600182019050919050565b7f4f776e61626c653a2063616c6c6572206973206e6f7420746865206f776e6572600082015250565b60006152ff6020836150cd565b915061530a826152c9565b602082019050919050565b6000602082019050818103600083015261532e816152f2565b9050919050565b7f4465783a20696e76616c69642070616972000000000000000000000000000000600082015250565b600061536b6011836150cd565b915061537682615335565b602082019050919050565b6000602082019050818103600083015261539a8161535e565b9050919050565b7f57616c6c65743a20696e73756666696369656e742065746865722062616c616e60008201527f6365000000000000000000000000000000000000000000000000000000000000602082015250565b60006153fd6022836150cd565b9150615408826153a1565b604082019050919050565b6000602082019050818103600083015261542c816153f0565b9050919050565b60008160011c9050919050565b6000808291508390505b600185111561548a5780860481111561546657615465615251565b5b60018516156154755780820291505b808102905061548385615433565b945061544a565b94509492505050565b6000826154a3576001905061555f565b816154b1576000905061555f565b81600181146154c757600281146154d157615500565b600191505061555f565b60ff8411156154e3576154e2615251565b5b8360020a9150848211156154fa576154f9615251565b5b5061555f565b5060208310610133831016604e8410600b84101617156155355782820a9050838111156155305761552f615251565b5b61555f565b6155428484846001615440565b9250905081840481111561555957615558615251565b5b81810290505b9392505050565b600061557182614836565b915061557c83614c40565b92506155a97fffffffffffffffffffffffffffffffffffffffffffffffffffffffffffffffff8484615493565b905092915050565b60006155bc82614836565b91506155c783614836565b9250817fffffffffffffffffffffffffffffffffffffffffffffffffffffffffffffffff0483118215151615615600576155ff615251565b5b828202905092915050565b7f4e487b7100000000000000000000000000000000000000000000000000000000600052601260045260246000fd5b600061564582614836565b915061565083614836565b9250826156605761565f61560b565b5b828204905092915050565b7f4465783a2070726963652f616d6f756e742069732062656c6f77206d696e696d60008201527f756d000000000000000000000000000000000000000000000000000000000000602082015250565b60006156c76022836150cd565b91506156d28261566b565b604082019050919050565b600060208201905081810360008301526156f6816156ba565b9050919050565b7f4465783a20427579657220646f65736e2774206861766520656e6f756768207460008201527f6f6b657300000000000000000000000000000000000000000000000000000000602082015250565b60006157596024836150cd565b9150615764826156fd565b604082019050919050565b600060208201905081810360008301526157888161574c565b9050919050565b7f4465783a2053656c6c657220646f65736e2774206861766520656e6f7567682060008201527f746f6b6573000000000000000000000000000000000000000000000000000000602082015250565b60006157eb6025836150cd565b91506157f68261578f565b604082019050919050565b6000602082019050818103600083015261581a816157de565b9050919050565b61582a816148c0565b82525050565b61583981614908565b82525050565b600060e082019050615854600083018a614b57565b6158616020830189615821565b61586e6040830188615830565b61587b6060830187614f77565b6158886080830186614f77565b61589560a0830185614b57565b6158a260c0830184614b57565b98975050505050505050565b7f57616c6c65743a20746f6b656e20616c72656164792065786973747300000000600082015250565b60006158e4601c836150cd565b91506158ef826158ae565b602082019050919050565b60006020820190508181036000830152615913816158d7565b9050919050565b61592381614c40565b811461592e57600080fd5b50565b6000815190506159408161591a565b92915050565b60006020828403121561595c5761595b614757565b5b600061596a84828501615931565b91505092915050565b7f57616c6c65743a20746f6b656e20646f6573206e6f7420657869747300000000600082015250565b60006159a9601c836150cd565b91506159b482615973565b602082019050919050565b600060208201905081810360008301526159d88161599c565b9050919050565b7f57616c6c65743a20696e73756666696369656e7420746f6b656e2062616c616e60008201527f6365000000000000000000000000000000000000000000000000000000000000602082015250565b6000615a3b6022836150cd565b9150615a46826159df565b604082019050919050565b60006020820190508181036000830152615a6a81615a2e565b9050919050565b6000604082019050615a866000830185614f86565b615a936020830184614b57565b9392505050565b615aa38161484f565b8114615aae57600080fd5b50565b600081519050615ac081615a9a565b92915050565b600060208284031215615adc57615adb614757565b5b6000615aea84828501615ab1565b91505092915050565b7f57616c6c65743a2063616e27742073656e6420746f6b656e7320746f2069747360008201527f656c660000000000000000000000000000000000000000000000000000000000602082015250565b6000615b4f6023836150cd565b9150615b5a82615af3565b604082019050919050565b60006020820190508181036000830152615b7e81615b42565b9050919050565b6000606082019050615b9a6000830186614f86565b615ba76020830185614f86565b615bb46040830184614b57565b949350505050565b7f57616c6c65743a2063616e27742073656e6420657468657220746f206974736560008201527f6c66000000000000000000000000000000000000000000000000000000000000602082015250565b6000615c186022836150cd565b9150615c2382615bbc565b604082019050919050565b60006020820190508181036000830152615c4781615c0b565b9050919050565b6000615c5982614836565b9150615c6483614836565b9250827fffffffffffffffffffffffffffffffffffffffffffffffffffffffffffffffff03821115615c9957615c98615251565b5b828201905092915050565b7f4f776e61626c653a206e6577206f776e657220697320746865207a65726f206160008201527f6464726573730000000000000000000000000000000000000000000000000000602082015250565b6000615d006026836150cd565b9150615d0b82615ca4565b604082019050919050565b60006020820190508181036000830152615d2f81615cf3565b9050919050565b7f4d61726b6574206973206e6f7420617661696c61626c65000000000000000000600082015250565b6000615d6c6017836150cd565b9150615d7782615d36565b602082019050919050565b60006020820190508181036000830152615d9b81615d5f565b9050919050565b6000615dad82614836565b9150615db883614836565b925082821015615dcb57615dca615251565b5b828203905092915050565b7f4f72646572426f6f6b3a207a65726f20616d6f756e7400000000000000000000600082015250565b6000615e0c6016836150cd565b9150615e1782615dd6565b602082019050919050565b60006020820190508181036000830152615e3b81615dff565b9050919050565b7f4f72646572426f6f6b3a204c696d6974206f726465722063616e6e6f7420686160008201527f7665207a65726f20707269636500000000000000000000000000000000000000602082015250565b6000615e9e602d836150cd565b9150615ea982615e42565b604082019050919050565b60006020820190508181036000830152615ecd81615e91565b9050919050565b6000615edf82614836565b91506000821415615ef357615ef2615251565b5b600182039050919050565b7f4e487b7100000000000000000000000000000000000000000000000000000000600052600160045260246000fd5b6000606082019050615f426000830186614b57565b615f4f6020830185614b57565b615f5c6040830184614b57565b949350505050565b6000604082019050615f796000830185614b57565b615f866020830184614b57565b9392505050565b7f4e487b7100000000000000000000000000000000000000000000000000000000600052603160045260246000fdfea264697066735822122005c65b73e96b0e3af1b6f3ee83b709561d23e1aadd0ecbb2e2e579ac2a12208864736f6c634300080a0033",
  "immutableReferences": {},
  "source": "// SPDX-License-Identifier: MIT\n\npragma solidity ^0.8.0;\npragma abicoder v2;\n\nimport \"./Wallet.sol\";\nimport \"./OrderBook.sol\";\nimport \"../node_modules/@openzeppelin/contracts/utils/math/Math.sol\";\n\ncontract Dex is Wallet, OrderBook {\n\n    using Math for uint256;\n\n    uint256 constant MIN_PRICE = 10 ** 9;\n    uint256 constant MIN_AMOUNT = 10 ** 9;\n\n    event OrderCreated(\n        uint256 id,\n        address indexed trader,\n        Side side, \n        OrderType orderType,\n        bytes32 tickerTo, \n        bytes32 tickerFrom, \n        uint256 price, \n        uint256 amount\n    );\n\n    event OrderRemoved(\n        uint256 id,\n        address indexed trader,\n        uint256 filled\n    );\n\n    event OrderFilled(\n        uint256 id,\n        address indexed trader,\n        uint256 price,\n        uint256 filled\n    );\n\n    mapping(bytes32 => mapping (bytes32 => bool)) public pairs;\n\n    modifier pairExists (bytes32 tickerTo, bytes32 tickerFrom) {\n        require (pairs[tickerTo][tickerFrom], \"Dex: pair doesn't exist\");\n        _;\n    }\n\n    function addPair(bytes32 tickerTo, bytes32 tickerFrom) public onlyOwner {\n        require(tickerTo != tickerFrom, \"Dex: invalid pair\");\n        pairs[tickerTo][tickerFrom] = true;\n    }\n\n    function removePair(bytes32 tickerTo, bytes32 tickerFrom) public onlyOwner {\n        pairs[tickerTo][tickerFrom] = false;\n    }\n\n    function popTopOrder(\n        Side side,\n        bytes32 tickerTo, \n        bytes32 tickerFrom\n    ) \n    private {\n        uint256 topIndex = orderBook[tickerTo][tickerFrom][side].length - 1;\n        Order storage order = orderBook[tickerTo][tickerFrom][side][topIndex];\n        \n        emit OrderRemoved(\n            order.id, \n            order.trader, \n            order.filled\n        );\n        \n        delete orderBook[tickerTo][tickerFrom][side][topIndex];\n        \n        orderBook[tickerTo][tickerFrom][side].pop();\n    }\n\n    /**\n     * @dev Matches the orders on the order book based on their price and type\n     */\n    function processSwaps(bytes32 tickerTo, bytes32 tickerFrom) private {\n        // BUY and SELL `orderBook`s must both have entries\n        while (\n            orderBook[tickerTo][tickerFrom][Side.SELL].length > 0 && \n            orderBook[tickerTo][tickerFrom][Side.BUY].length > 0\n        ) \n        {    \n            // Get top BUY order\n            uint256 topBuyIndex = orderBook[tickerTo][tickerFrom][Side.BUY].length - 1;\n            Order storage topBuyOrder = orderBook[tickerTo][tickerFrom][Side.BUY][topBuyIndex];\n            \n            // Get top SELL order\n            uint256 topSellIndex = orderBook[tickerTo][tickerFrom][Side.SELL].length - 1;\n            Order storage topSellOrder = orderBook[tickerTo][tickerFrom][Side.SELL][topSellIndex];\n\n            /*\n            Check if the orders aren't cancelled. If any of the orders is cancelled then pop the order\n            and continue looking.\n            */\n            if (!topBuyOrder.isActive)\n                popTopOrder(Side.BUY, tickerTo, tickerFrom);\n            if (!topSellOrder.isActive)\n                popTopOrder(Side.SELL, tickerTo, tickerFrom);\n            if (!topSellOrder.isActive || !topBuyOrder.isActive)\n                continue;\n            \n            /* \n            If the top orders are both market orders then their price will be equal as the previous market\n            order's price will be the current market price and will propogate to the new market order\n            that is currently being placed on the opposite side of the order book.\n            */\n            if (topBuyOrder.orderType == OrderType.MARKET && topSellOrder.orderType == OrderType.MARKET) {\n                assert(topBuyOrder.price == topSellOrder.price);\n            }\n            // If topBuyOrder is limit and topSellOrder is market, then use the buy order price\n            else if (topBuyOrder.orderType != OrderType.MARKET && topSellOrder.orderType == OrderType.MARKET) {\n                topSellOrder.price = topBuyOrder.price;\n            }\n            // If topSellOrder is limit and topBuyOrder is market, then use the sell order price\n            else if (topBuyOrder.orderType == OrderType.MARKET && topSellOrder.orderType != OrderType.MARKET) {\n                topBuyOrder.price = topSellOrder.price;\n            }\n\n            // If buyer's price is less then seller's price then order can't be filled\n            if (topBuyOrder.price < topSellOrder.price)\n                break;\n\n            /* \n            For the most recent order that comes to processing, check if it is a MOC order. If so\n            then pop it at this point as it will fulfill the opposite side of orders and hence won't \n            rest on the order book.\n\n            Only one of the top orders can be cancelled as only one will be the most recent.\n            */\n            if (topBuyOrder.id == nextOrderId - 1 && topBuyOrder.orderType == OrderType.MOC) {\n                popTopOrder(Side.BUY, tickerTo, tickerFrom);\n                continue;\n            }\n            if (topSellOrder.id == nextOrderId - 1 && topSellOrder.orderType == OrderType.MOC) {\n                popTopOrder(Side.SELL, tickerTo, tickerFrom);\n                continue;\n            }\n\n            // Calculate current fill price based on the order of arrival to the market\n            uint256 fillPrice = topSellOrder.id < topBuyOrder.id ? topSellOrder.price : topBuyOrder.price;\n\n            // Calculate the current order fill amount\n            // Take into account the partly filled amounts by subtracting already filled tokes from the total amount\n            uint256 remainingBuyOrderAmountToFill = topBuyOrder.amount - topBuyOrder.filled;\n            uint256 remainingSellOrderAmountToFill = topSellOrder.amount - topSellOrder.filled;\n            uint256 fillAmountTo = Math.min(remainingBuyOrderAmountToFill, remainingSellOrderAmountToFill);\n            uint256 fillAmountFrom = (fillAmountTo * fillPrice) / (10 ** tokenMapping[tickerTo].decimals);\n\n            /* \n            If FOK order then check if the fill amount == the order amount. \n            If so then remove the order.\n\n            Both of the top orders can be FOK orders, but only one of them can\n            be removed due to the projected partial fulfillment. \n            \n            In case when both orders are the FOK orders, the one with lesser amount\n            will remain on the order book.\n            */\n            bool fokBreak = false;\n            if (topBuyOrder.orderType == OrderType.FOK && topBuyOrder.amount != fillAmountTo){\n                popTopOrder(Side.BUY, tickerTo, tickerFrom);\n                fokBreak = true;\n            }\n            if (topSellOrder.orderType == OrderType.FOK && topSellOrder.amount != fillAmountTo){\n                popTopOrder(Side.SELL, tickerTo, tickerFrom);\n                fokBreak = true;\n            }\n            if (fokBreak)\n                continue;\n            \n            // Increase tickerTo and decrease tickerFrom tokens in buyer's wallet\n            balances[topBuyOrder.trader][tickerTo] += fillAmountTo;\n            balances[topBuyOrder.trader][tickerFrom] -= fillAmountFrom;\n\n            // Decrease tickerTo and increase tickerFrom tokens in sellers's wallet\n            balances[topSellOrder.trader][tickerTo] -= fillAmountTo;\n            balances[topSellOrder.trader][tickerFrom] += fillAmountFrom;\n\n            // Increase filled amount for both, buyer seller\n            topBuyOrder.filled += fillAmountTo;\n            topSellOrder.filled += fillAmountTo;\n\n            assert(topBuyOrder.filled <= topBuyOrder.amount);\n            assert(topSellOrder.filled <= topSellOrder.amount);\n\n            // Emit OrderFilled event for sell and buy orders\n            emit OrderFilled(\n                topBuyOrder.id,\n                topBuyOrder.trader,\n                fillPrice,\n                topBuyOrder.filled\n            );\n\n            emit OrderFilled(\n                topSellOrder.id,\n                topSellOrder.trader,\n                fillPrice,\n                topSellOrder.filled\n            );\n\n            uint256 nextBuyFillPrice = ((topBuyOrder.amount - topBuyOrder.filled) * topBuyOrder.price) / (10 ** tokenMapping[tickerTo].decimals);\n            uint256 nextSellFillPrice = ((topSellOrder.amount - topSellOrder.filled) * topSellOrder.price) / (10 ** tokenMapping[tickerTo].decimals);\n\n            // If order.amount - order.filled < MIN_AMONUT, then the should be popped\n            if (nextBuyFillPrice == 0) {\n                popTopOrder(Side.BUY, tickerTo, tickerFrom);\n            }\n            // If IOC order is partially filled then still pop the order from the order book\n            else if(topBuyOrder.orderType == OrderType.IOC && topBuyOrder.filled > 0){\n                popTopOrder(Side.BUY, tickerTo, tickerFrom);\n            }\n\n            // If order.amount - order.filled < MIN_AMONUT, then the should be popped\n            if (nextSellFillPrice == 0) {\n                popTopOrder(Side.SELL, tickerTo, tickerFrom);\n            }\n            // If IOC order is partially filled then still pop the order from the order book\n            else if(topSellOrder.orderType == OrderType.IOC && topSellOrder.filled > 0){\n                popTopOrder(Side.SELL, tickerTo, tickerFrom);\n            }\n        }\n    }\n\n    /**\n     * @dev creates an order to swap two tokens:\n     *  `amount` of tokens `tickerTo` are to be swapped for tokens `tickerFrom` @ `price`\n     * \n     *  `orderType` defines the type of order to place\n     *\n     *  For market orders the price doesn't matter and can be zero.\n     *  Market order will not be created if the opposite side of the order book is empty.\n     *\n     *  Overrides `createOrder` function from OrderBook.sol\n     */\n    function createOrder (\n        Side side, \n        OrderType orderType,\n        bytes32 tickerTo,\n        bytes32 tickerFrom, \n        uint256 price, \n        uint256 amount\n    )\n    public \n    virtual override \n    pairExists(tickerTo, tickerFrom)\n    returns (uint256) {\n\n        uint256 fillPrice = (price * amount) / (10 ** tokenMapping[tickerTo].decimals);\n\n        // Order cannot be placed when the (amount * price)/decimals == 0 \n        require(fillPrice > 0 || (orderType == OrderType.MARKET && amount >= MIN_AMOUNT) , \"Dex: price/amount is below minimum\");\n        \n        // Buyer can't swap for tokens he doesn't have\n        if (side == Side.BUY) {\n            uint256 buyersTokensToSwapBalance = balances[msg.sender][tickerFrom];\n            require(buyersTokensToSwapBalance >= fillPrice , \"Dex: Buyer doesn't have enough tokes\");\n        }\n        else {\n            // Seller can't offer tokens for swap he doesn't have\n            uint256 sellersTokensToSwapBalance = balances[msg.sender][tickerTo];\n            require(sellersTokensToSwapBalance >= amount, \"Dex: Seller doesn't have enough tokes\");\n        }\n\n        uint256 orderId = super.createOrder(side, orderType, tickerTo, tickerFrom, price, amount);\n\n        emit OrderCreated(\n            orderId, \n            msg.sender, \n            side, \n            orderType, \n            tickerTo, \n            tickerFrom, \n            price, // for market orders price can be anything.\n            amount\n        );\n\n        processSwaps(tickerTo, tickerFrom);\n\n        return orderId;\n    }\n    function cancelOrder (\n        uint256 orderId,\n        Side side, \n        bytes32 tickerTo, \n        bytes32 tickerFrom\n    ) \n    public \n    virtual override\n    pairExists(tickerTo, tickerFrom)\n    {\n        require(orderId < nextOrderId, \"Order doesn't exist\");\n        for (uint256 i = 0; i < orderBook[tickerTo][tickerFrom][side].length; i++) {\n            if (orderBook[tickerTo][tickerFrom][side][i].id == orderId) {\n                require(orderBook[tickerTo][tickerFrom][side][i].trader == msg.sender, \"Must be the order owner\");\n                orderBook[tickerTo][tickerFrom][side][i].isActive = false;\n                break;\n            }\n        }\n    }\n\n    function getOrder (\n        uint256 orderId,\n        Side side, \n        bytes32 tickerTo, \n        bytes32 tickerFrom\n    ) \n    public \n    view \n    virtual override\n    pairExists(tickerTo, tickerFrom)\n    returns (Order memory order)\n    {\n        return super.getOrder(orderId, side, tickerTo, tickerFrom);\n    }\n\n    function getOrderBook(\n        Side side, \n        bytes32 tickerTo, \n        bytes32 tickerFrom\n    ) \n    public \n    view \n    virtual override\n    pairExists(tickerTo, tickerFrom)\n    returns(Order[] memory)\n    {\n        return super.getOrderBook(side, tickerTo, tickerFrom);\n    }\n\n    function getMarketPrice (\n        Side side, \n        bytes32 tickerTo, \n        bytes32 tickerFrom\n    ) \n    public \n    view \n    virtual override\n    pairExists(tickerTo, tickerFrom)\n    returns (uint256) \n    {\n        return super.getMarketPrice(side, tickerTo, tickerFrom);\n    }\n}\n",
  "sourcePath": "/Users/noname/truffle/iot_dex/contracts/Dex.sol",
  "compiler": {
    "name": "solc",
    "version": "0.8.10+commit.fc410830.Emscripten.clang"
  },
  "schemaVersion": "3.4.3",
  "updatedAt": "2021-11-25T10:47:13.579Z",
  "networkType": "ethereum",
  "devdoc": {
    "kind": "dev",
    "methods": {
      "addToken(bytes32,address)": {
        "details": "Adds token to the wallet  Requirements: - `onlyOwner` can add a `token` - "
      },
      "cancelOrder(uint256,uint8,bytes32,bytes32)": {
        "details": "Cancel an order by setting isActive flag to false Algorithmic cost: O(n) Returns true if the order was cancelled. Returns false if the order was not found or had already been cancelled Reverts is the msg.sender doesn't match `trader` field."
      },
      "createOrder(uint8,uint8,bytes32,bytes32,uint256,uint256)": {
        "details": "creates an order to swap two tokens: `price`   `orderType` defines the type of order to place  For market orders the price doesn't matter and can be zero.  Market order will not be created if the opposite side of the order book is empty.  Overrides `createOrder` function from OrderBook.sol"
      },
      "deposit()": {
        "details": "Deposit ether to the wallet for `msg.sender`'s account  Requirements: - `msg.sender` cannot be equal to this(address)."
      },
      "deposit(uint256,bytes32)": {
        "details": "Deposit tokens to the wallet for `msg.sender`'s account  Requirements: - `msg.sender` cannot be equal to `tokenAddress`. - Token `ticker` MUST be present in `tokenMapping`."
      },
      "getTokenList()": {
        "details": "Get token list "
      },
      "owner()": {
        "details": "Returns the address of the current owner."
      },
      "renounceOwnership()": {
        "details": "Leaves the contract without owner. It will not be possible to call `onlyOwner` functions anymore. Can only be called by the current owner. NOTE: Renouncing ownership will leave the contract without an owner, thereby removing any functionality that is only available to the owner."
      },
      "transferOwnership(address)": {
        "details": "Transfers ownership of the contract to a new account (`newOwner`). Can only be called by the current owner."
      },
      "withdraw(uint256)": {
        "details": "Withdraw token @ `tokenAddress` contract for `msg.sender`'s account.  Requirements: - `msg.sender` MUST have a sufficient balance of ether to withdraw."
      },
      "withdraw(uint256,bytes32)": {
        "details": "Withdraw token @ `tokenAddress` contract for `msg.sender`'s account.  Requirements: - `msg.sender` MUST have a sufficient balance of tokens being withdrawn. - Token `ticker` MUST be present in `tokenMapping`."
      }
    },
    "version": 1
  },
  "userdoc": {
    "kind": "user",
    "methods": {},
    "version": 1
  }
}