{
  "contractName": "Dex",
  "abi": [
    {
      "anonymous": false,
      "inputs": [
        {
          "indexed": false,
          "internalType": "uint256",
          "name": "id",
          "type": "uint256"
        },
        {
          "indexed": true,
          "internalType": "address",
          "name": "trader",
          "type": "address"
        },
        {
          "indexed": false,
          "internalType": "enum OrderBook.Side",
          "name": "side",
          "type": "uint8"
        },
        {
          "indexed": false,
          "internalType": "enum OrderBook.OrderType",
          "name": "orderType",
          "type": "uint8"
        },
        {
          "indexed": false,
          "internalType": "bytes32",
          "name": "tickerTo",
          "type": "bytes32"
        },
        {
          "indexed": false,
          "internalType": "bytes32",
          "name": "tickerFrom",
          "type": "bytes32"
        },
        {
          "indexed": false,
          "internalType": "uint256",
          "name": "price",
          "type": "uint256"
        },
        {
          "indexed": false,
          "internalType": "uint256",
          "name": "amount",
          "type": "uint256"
        }
      ],
      "name": "OrderCreated",
      "type": "event"
    },
    {
      "anonymous": false,
      "inputs": [
        {
          "indexed": false,
          "internalType": "uint256",
          "name": "id",
          "type": "uint256"
        },
        {
          "indexed": true,
          "internalType": "address",
          "name": "trader",
          "type": "address"
        },
        {
          "indexed": false,
          "internalType": "uint256",
          "name": "price",
          "type": "uint256"
        },
        {
          "indexed": false,
          "internalType": "uint256",
          "name": "filled",
          "type": "uint256"
        }
      ],
      "name": "OrderFilled",
      "type": "event"
    },
    {
      "anonymous": false,
      "inputs": [
        {
          "indexed": false,
          "internalType": "uint256",
          "name": "id",
          "type": "uint256"
        },
        {
          "indexed": true,
          "internalType": "address",
          "name": "trader",
          "type": "address"
        },
        {
          "indexed": false,
          "internalType": "uint256",
          "name": "filled",
          "type": "uint256"
        }
      ],
      "name": "OrderRemoved",
      "type": "event"
    },
    {
      "anonymous": false,
      "inputs": [
        {
          "indexed": true,
          "internalType": "address",
          "name": "previousOwner",
          "type": "address"
        },
        {
          "indexed": true,
          "internalType": "address",
          "name": "newOwner",
          "type": "address"
        }
      ],
      "name": "OwnershipTransferred",
      "type": "event"
    },
    {
      "inputs": [
        {
          "internalType": "bytes32",
          "name": "ticker",
          "type": "bytes32"
        },
        {
          "internalType": "address",
          "name": "tokenAddress",
          "type": "address"
        }
      ],
      "name": "addToken",
      "outputs": [],
      "stateMutability": "nonpayable",
      "type": "function"
    },
    {
      "inputs": [
        {
          "internalType": "address",
          "name": "",
          "type": "address"
        },
        {
          "internalType": "bytes32",
          "name": "",
          "type": "bytes32"
        }
      ],
      "name": "balances",
      "outputs": [
        {
          "internalType": "uint256",
          "name": "",
          "type": "uint256"
        }
      ],
      "stateMutability": "view",
      "type": "function",
      "constant": true
    },
    {
      "inputs": [
        {
          "internalType": "uint256",
          "name": "amount",
          "type": "uint256"
        },
        {
          "internalType": "bytes32",
          "name": "ticker",
          "type": "bytes32"
        }
      ],
      "name": "deposit",
      "outputs": [],
      "stateMutability": "nonpayable",
      "type": "function"
    },
    {
      "inputs": [],
      "name": "deposit",
      "outputs": [],
      "stateMutability": "payable",
      "type": "function",
      "payable": true
    },
    {
      "inputs": [],
      "name": "getTokenList",
      "outputs": [
        {
          "internalType": "bytes32[]",
          "name": "",
          "type": "bytes32[]"
        }
      ],
      "stateMutability": "view",
      "type": "function",
      "constant": true
    },
    {
      "inputs": [],
      "name": "owner",
      "outputs": [
        {
          "internalType": "address",
          "name": "",
          "type": "address"
        }
      ],
      "stateMutability": "view",
      "type": "function",
      "constant": true
    },
    {
      "inputs": [],
      "name": "renounceOwnership",
      "outputs": [],
      "stateMutability": "nonpayable",
      "type": "function"
    },
    {
      "inputs": [
        {
          "internalType": "uint256",
          "name": "",
          "type": "uint256"
        }
      ],
      "name": "tokenList",
      "outputs": [
        {
          "internalType": "bytes32",
          "name": "",
          "type": "bytes32"
        }
      ],
      "stateMutability": "view",
      "type": "function",
      "constant": true
    },
    {
      "inputs": [
        {
          "internalType": "bytes32",
          "name": "",
          "type": "bytes32"
        }
      ],
      "name": "tokenMapping",
      "outputs": [
        {
          "internalType": "bytes32",
          "name": "ticker",
          "type": "bytes32"
        },
        {
          "internalType": "address",
          "name": "tokenAddress",
          "type": "address"
        }
      ],
      "stateMutability": "view",
      "type": "function",
      "constant": true
    },
    {
      "inputs": [
        {
          "internalType": "address",
          "name": "newOwner",
          "type": "address"
        }
      ],
      "name": "transferOwnership",
      "outputs": [],
      "stateMutability": "nonpayable",
      "type": "function"
    },
    {
      "inputs": [
        {
          "internalType": "uint256",
          "name": "amount",
          "type": "uint256"
        }
      ],
      "name": "withdraw",
      "outputs": [],
      "stateMutability": "nonpayable",
      "type": "function"
    },
    {
      "inputs": [
        {
          "internalType": "uint256",
          "name": "amount",
          "type": "uint256"
        },
        {
          "internalType": "bytes32",
          "name": "ticker",
          "type": "bytes32"
        }
      ],
      "name": "withdraw",
      "outputs": [],
      "stateMutability": "nonpayable",
      "type": "function"
    },
    {
      "inputs": [
        {
          "internalType": "bytes32",
          "name": "tickerTo",
          "type": "bytes32"
        },
        {
          "internalType": "bytes32",
          "name": "tickerFrom",
          "type": "bytes32"
        }
      ],
      "name": "addPair",
      "outputs": [],
      "stateMutability": "nonpayable",
      "type": "function"
    },
    {
      "inputs": [
        {
          "internalType": "bytes32",
          "name": "tickerTo",
          "type": "bytes32"
        },
        {
          "internalType": "bytes32",
          "name": "tickerFrom",
          "type": "bytes32"
        }
      ],
      "name": "removePair",
      "outputs": [],
      "stateMutability": "nonpayable",
      "type": "function"
    },
    {
      "inputs": [
        {
          "internalType": "enum OrderBook.Side",
          "name": "side",
          "type": "uint8"
        },
        {
          "internalType": "enum OrderBook.OrderType",
          "name": "orderType",
          "type": "uint8"
        },
        {
          "internalType": "bytes32",
          "name": "tickerTo",
          "type": "bytes32"
        },
        {
          "internalType": "bytes32",
          "name": "tickerFrom",
          "type": "bytes32"
        },
        {
          "internalType": "uint256",
          "name": "price",
          "type": "uint256"
        },
        {
          "internalType": "uint256",
          "name": "amount",
          "type": "uint256"
        }
      ],
      "name": "createOrder",
      "outputs": [
        {
          "internalType": "uint256",
          "name": "",
          "type": "uint256"
        }
      ],
      "stateMutability": "nonpayable",
      "type": "function"
    },
    {
      "inputs": [
        {
          "internalType": "uint256",
          "name": "orderId",
          "type": "uint256"
        },
        {
          "internalType": "enum OrderBook.Side",
          "name": "side",
          "type": "uint8"
        },
        {
          "internalType": "bytes32",
          "name": "tickerTo",
          "type": "bytes32"
        },
        {
          "internalType": "bytes32",
          "name": "tickerFrom",
          "type": "bytes32"
        }
      ],
      "name": "cancelOrder",
      "outputs": [],
      "stateMutability": "nonpayable",
      "type": "function"
    },
    {
      "inputs": [
        {
          "internalType": "uint256",
          "name": "orderId",
          "type": "uint256"
        },
        {
          "internalType": "enum OrderBook.Side",
          "name": "side",
          "type": "uint8"
        },
        {
          "internalType": "bytes32",
          "name": "tickerTo",
          "type": "bytes32"
        },
        {
          "internalType": "bytes32",
          "name": "tickerFrom",
          "type": "bytes32"
        }
      ],
      "name": "getOrder",
      "outputs": [
        {
          "components": [
            {
              "internalType": "uint256",
              "name": "id",
              "type": "uint256"
            },
            {
              "internalType": "bool",
              "name": "isActive",
              "type": "bool"
            },
            {
              "internalType": "enum OrderBook.Side",
              "name": "side",
              "type": "uint8"
            },
            {
              "internalType": "enum OrderBook.OrderType",
              "name": "orderType",
              "type": "uint8"
            },
            {
              "internalType": "address",
              "name": "trader",
              "type": "address"
            },
            {
              "internalType": "bytes32",
              "name": "ticker1",
              "type": "bytes32"
            },
            {
              "internalType": "bytes32",
              "name": "ticker2",
              "type": "bytes32"
            },
            {
              "internalType": "uint256",
              "name": "amount",
              "type": "uint256"
            },
            {
              "internalType": "uint256",
              "name": "price",
              "type": "uint256"
            },
            {
              "internalType": "uint256",
              "name": "filled",
              "type": "uint256"
            }
          ],
          "internalType": "struct OrderBook.Order",
          "name": "order",
          "type": "tuple"
        }
      ],
      "stateMutability": "view",
      "type": "function",
      "constant": true
    },
    {
      "inputs": [
        {
          "internalType": "enum OrderBook.Side",
          "name": "side",
          "type": "uint8"
        },
        {
          "internalType": "bytes32",
          "name": "tickerTo",
          "type": "bytes32"
        },
        {
          "internalType": "bytes32",
          "name": "tickerFrom",
          "type": "bytes32"
        }
      ],
      "name": "getOrderBook",
      "outputs": [
        {
          "components": [
            {
              "internalType": "uint256",
              "name": "id",
              "type": "uint256"
            },
            {
              "internalType": "bool",
              "name": "isActive",
              "type": "bool"
            },
            {
              "internalType": "enum OrderBook.Side",
              "name": "side",
              "type": "uint8"
            },
            {
              "internalType": "enum OrderBook.OrderType",
              "name": "orderType",
              "type": "uint8"
            },
            {
              "internalType": "address",
              "name": "trader",
              "type": "address"
            },
            {
              "internalType": "bytes32",
              "name": "ticker1",
              "type": "bytes32"
            },
            {
              "internalType": "bytes32",
              "name": "ticker2",
              "type": "bytes32"
            },
            {
              "internalType": "uint256",
              "name": "amount",
              "type": "uint256"
            },
            {
              "internalType": "uint256",
              "name": "price",
              "type": "uint256"
            },
            {
              "internalType": "uint256",
              "name": "filled",
              "type": "uint256"
            }
          ],
          "internalType": "struct OrderBook.Order[]",
          "name": "",
          "type": "tuple[]"
        }
      ],
      "stateMutability": "view",
      "type": "function",
      "constant": true
    },
    {
      "inputs": [
        {
          "internalType": "enum OrderBook.Side",
          "name": "side",
          "type": "uint8"
        },
        {
          "internalType": "bytes32",
          "name": "tickerTo",
          "type": "bytes32"
        },
        {
          "internalType": "bytes32",
          "name": "tickerFrom",
          "type": "bytes32"
        }
      ],
      "name": "getMarketPrice",
      "outputs": [
        {
          "internalType": "uint256",
          "name": "",
          "type": "uint256"
        }
      ],
      "stateMutability": "view",
      "type": "function",
      "constant": true
    }
  ],
  "bytecode": "0x608060405260006005553480156200001657600080fd5b50620000376200002b6200003d60201b60201c565b6200004560201b60201c565b62000109565b600033905090565b60008060009054906101000a900473ffffffffffffffffffffffffffffffffffffffff169050816000806101000a81548173ffffffffffffffffffffffffffffffffffffffff021916908373ffffffffffffffffffffffffffffffffffffffff1602179055508173ffffffffffffffffffffffffffffffffffffffff168173ffffffffffffffffffffffffffffffffffffffff167f8be0079c531659141344cd1fd0a4f28419497f9722a3daafe3b4186f6b6457e060405160405180910390a35050565b6155b980620001196000396000f3fe6080604052600436106101145760003560e01c8063667cb4ba116100a0578063a8d2021a11610064578063a8d2021a146103d6578063ac3b7594146103ff578063c9630cb014610428578063d0e30db014610451578063f2fde38b1461045b57610114565b8063667cb4ba146102f0578063715018a61461032e5780638da5cb5b146103455780639776aacf146103705780639ead72221461039957610114565b806328ed30ae116100e757806328ed30ae146101e75780632d9a1a49146102245780632e1a7d4d1461024d5780632ecb2145146102765780633cf952de146102b357610114565b80631c409b0d146101195780631f14df6914610156578063217f979314610193578063273cbaa0146101bc575b600080fd5b34801561012557600080fd5b50610140600480360381019061013b9190614215565b610484565b60405161014d9190614527565b60405180910390f35b34801561016257600080fd5b5061017d60048036038101906101789190614575565b61050f565b60405161018a91906145c4565b60405180910390f35b34801561019f57600080fd5b506101ba60048036038101906101b5919061460b565b610534565b005b3480156101c857600080fd5b506101d16105bb565b6040516101de9190614721565b60405180910390f35b3480156101f357600080fd5b5061020e60048036038101906102099190614215565b610613565b60405161021b91906145c4565b60405180910390f35b34801561023057600080fd5b5061024b60048036038101906102469190614743565b61069e565b005b34801561025957600080fd5b50610274600480360381019061026f9190614783565b61075b565b005b34801561028257600080fd5b5061029d600480360381019061029891906147d5565b610958565b6040516102aa91906145c4565b60405180910390f35b3480156102bf57600080fd5b506102da60048036038101906102d5919061460b565b610bc3565b6040516102e7919061492e565b60405180910390f35b3480156102fc57600080fd5b506103176004803603810190610312919061494a565b610c56565b604051610325929190614995565b60405180910390f35b34801561033a57600080fd5b50610343610c9a565b005b34801561035157600080fd5b5061035a610d22565b60405161036791906149be565b60405180910390f35b34801561037c57600080fd5b50610397600480360381019061039291906149d9565b610d4b565b005b3480156103a557600080fd5b506103c060048036038101906103bb9190614783565b610e86565b6040516103cd9190614a19565b60405180910390f35b3480156103e257600080fd5b506103fd60048036038101906103f89190614a34565b610eaa565b005b34801561040b57600080fd5b5061042660048036038101906104219190614743565b611164565b005b34801561043457600080fd5b5061044f600480360381019061044a9190614a34565b611221565b005b6104596114ef565b005b34801561046757600080fd5b50610482600480360381019061047d9190614a74565b6115ea565b005b6060828260066000838152602001908152602001600020600082815260200190815260200160002060009054906101000a900460ff166104f9576040517f08c379a00000000000000000000000000000000000000000000000000000000081526004016104f090614afe565b60405180910390fd5b6105048686866116e2565b925050509392505050565b6003602052816000526040600020602052806000526040600020600091509150505481565b818160066000838152602001908152602001600020600082815260200190815260200160002060009054906101000a900460ff166105a7576040517f08c379a000000000000000000000000000000000000000000000000000000000815260040161059e90614afe565b60405180910390fd5b6105b3868686866118c0565b505050505050565b6060600280548060200260200160405190810160405280929190818152602001828054801561060957602002820191906000526020600020905b8154815260200190600101908083116105f5575b5050505050905090565b6000828260066000838152602001908152602001600020600082815260200190815260200160002060009054906101000a900460ff16610688576040517f08c379a000000000000000000000000000000000000000000000000000000000815260040161067f90614afe565b60405180910390fd5b610693868686611aa3565b925050509392505050565b6106a6611c37565b73ffffffffffffffffffffffffffffffffffffffff166106c4610d22565b73ffffffffffffffffffffffffffffffffffffffff161461071a576040517f08c379a000000000000000000000000000000000000000000000000000000000815260040161071190614b6a565b60405180910390fd5b600160066000848152602001908152602001600020600083815260200190815260200160002060006101000a81548160ff0219169083151502179055505050565b80600360003373ffffffffffffffffffffffffffffffffffffffff1673ffffffffffffffffffffffffffffffffffffffff16815260200190815260200160002060007f455448000000000000000000000000000000000000000000000000000000000060001b8152602001908152602001600020541015610811576040517f08c379a000000000000000000000000000000000000000000000000000000000815260040161080890614bfc565b60405180910390fd5b61089781600360003373ffffffffffffffffffffffffffffffffffffffff1673ffffffffffffffffffffffffffffffffffffffff16815260200190815260200160002060007f455448000000000000000000000000000000000000000000000000000000000060001b815260200190815260200160002054611c3f90919063ffffffff16565b600360003373ffffffffffffffffffffffffffffffffffffffff1673ffffffffffffffffffffffffffffffffffffffff16815260200190815260200160002060007f455448000000000000000000000000000000000000000000000000000000000060001b8152602001908152602001600020819055503373ffffffffffffffffffffffffffffffffffffffff166108fc829081150290604051600060405180830381858888f19350505050158015610954573d6000803e3d6000fd5b5050565b6000848460066000838152602001908152602001600020600082815260200190815260200160002060009054906101000a900460ff166109cd576040517f08c379a00000000000000000000000000000000000000000000000000000000081526004016109c490614afe565b60405180910390fd5b600060018111156109e1576109e06142c8565b5b8960018111156109f4576109f36142c8565b5b1415610aa3576000600360003373ffffffffffffffffffffffffffffffffffffffff1673ffffffffffffffffffffffffffffffffffffffff16815260200190815260200160002060008881526020019081526020016000205490508486610a5b9190614c4b565b811015610a9d576040517f08c379a0000000000000000000000000000000000000000000000000000000008152600401610a9490614d17565b60405180910390fd5b50610b3d565b6000600360003373ffffffffffffffffffffffffffffffffffffffff1673ffffffffffffffffffffffffffffffffffffffff168152602001908152602001600020600089815260200190815260200160002054905084811015610b3b576040517f08c379a0000000000000000000000000000000000000000000000000000000008152600401610b3290614da9565b60405180910390fd5b505b6000610b4d8a8a8a8a8a8a611c55565b90503373ffffffffffffffffffffffffffffffffffffffff167f8a0333324a3492150ffba30d2434f066fdf11da1d9b00c374439fb1ad62261d1828c8c8c8c8c8c604051610ba19796959493929190614de7565b60405180910390a2610bb38888612deb565b8093505050509695505050505050565b610bcb614120565b828260066000838152602001908152602001600020600082815260200190815260200160002060009054906101000a900460ff16610c3e576040517f08c379a0000000000000000000000000000000000000000000000000000000008152600401610c3590614afe565b60405180910390fd5b610c4a8787878761399e565b92505050949350505050565b60016020528060005260406000206000915090508060000154908060010160009054906101000a900473ffffffffffffffffffffffffffffffffffffffff16905082565b610ca2611c37565b73ffffffffffffffffffffffffffffffffffffffff16610cc0610d22565b73ffffffffffffffffffffffffffffffffffffffff1614610d16576040517f08c379a0000000000000000000000000000000000000000000000000000000008152600401610d0d90614b6a565b60405180910390fd5b610d206000613c9c565b565b60008060009054906101000a900473ffffffffffffffffffffffffffffffffffffffff16905090565b610d53611c37565b73ffffffffffffffffffffffffffffffffffffffff16610d71610d22565b73ffffffffffffffffffffffffffffffffffffffff1614610dc7576040517f08c379a0000000000000000000000000000000000000000000000000000000008152600401610dbe90614b6a565b60405180910390fd5b60405180604001604052808381526020018273ffffffffffffffffffffffffffffffffffffffff16815250600160008481526020019081526020016000206000820151816000015560208201518160010160006101000a81548173ffffffffffffffffffffffffffffffffffffffff021916908373ffffffffffffffffffffffffffffffffffffffff16021790555090505060028290806001815401808255809150506001900390600052602060002001600090919091909150555050565b60028181548110610e9657600080fd5b906000526020600020016000915090505481565b80600073ffffffffffffffffffffffffffffffffffffffff166001600083815260200190815260200160002060010160009054906101000a900473ffffffffffffffffffffffffffffffffffffffff1673ffffffffffffffffffffffffffffffffffffffff161415610f51576040517f08c379a0000000000000000000000000000000000000000000000000000000008152600401610f4890614ea2565b60405180910390fd5b82600360003373ffffffffffffffffffffffffffffffffffffffff1673ffffffffffffffffffffffffffffffffffffffff1681526020019081526020016000206000848152602001908152602001600020541015610fe4576040517f08c379a0000000000000000000000000000000000000000000000000000000008152600401610fdb90614f34565b60405180910390fd5b61104783600360003373ffffffffffffffffffffffffffffffffffffffff1673ffffffffffffffffffffffffffffffffffffffff168152602001908152602001600020600085815260200190815260200160002054611c3f90919063ffffffff16565b600360003373ffffffffffffffffffffffffffffffffffffffff1673ffffffffffffffffffffffffffffffffffffffff1681526020019081526020016000206000848152602001908152602001600020819055506001600083815260200190815260200160002060010160009054906101000a900473ffffffffffffffffffffffffffffffffffffffff1673ffffffffffffffffffffffffffffffffffffffff1663a9059cbb33856040518363ffffffff1660e01b815260040161110c929190614f54565b602060405180830381600087803b15801561112657600080fd5b505af115801561113a573d6000803e3d6000fd5b505050506040513d601f19601f8201168201806040525081019061115e9190614fa9565b50505050565b61116c611c37565b73ffffffffffffffffffffffffffffffffffffffff1661118a610d22565b73ffffffffffffffffffffffffffffffffffffffff16146111e0576040517f08c379a00000000000000000000000000000000000000000000000000000000081526004016111d790614b6a565b60405180910390fd5b600060066000848152602001908152602001600020600083815260200190815260200160002060006101000a81548160ff0219169083151502179055505050565b80600073ffffffffffffffffffffffffffffffffffffffff166001600083815260200190815260200160002060010160009054906101000a900473ffffffffffffffffffffffffffffffffffffffff1673ffffffffffffffffffffffffffffffffffffffff1614156112c8576040517f08c379a00000000000000000000000000000000000000000000000000000000081526004016112bf90614ea2565b60405180910390fd5b3373ffffffffffffffffffffffffffffffffffffffff166001600084815260200190815260200160002060010160009054906101000a900473ffffffffffffffffffffffffffffffffffffffff1673ffffffffffffffffffffffffffffffffffffffff16141561136d576040517f08c379a000000000000000000000000000000000000000000000000000000000815260040161136490615048565b60405180910390fd5b6113d083600360003373ffffffffffffffffffffffffffffffffffffffff1673ffffffffffffffffffffffffffffffffffffffff168152602001908152602001600020600085815260200190815260200160002054613d6090919063ffffffff16565b600360003373ffffffffffffffffffffffffffffffffffffffff1673ffffffffffffffffffffffffffffffffffffffff1681526020019081526020016000206000848152602001908152602001600020819055506001600083815260200190815260200160002060010160009054906101000a900473ffffffffffffffffffffffffffffffffffffffff1673ffffffffffffffffffffffffffffffffffffffff166323b872dd3330866040518463ffffffff1660e01b815260040161149793929190615068565b602060405180830381600087803b1580156114b157600080fd5b505af11580156114c5573d6000803e3d6000fd5b505050506040513d601f19601f820116820180604052508101906114e99190614fa9565b50505050565b3373ffffffffffffffffffffffffffffffffffffffff163073ffffffffffffffffffffffffffffffffffffffff16141561155e576040517f08c379a000000000000000000000000000000000000000000000000000000000815260040161155590615111565b60405180910390fd5b34600360003373ffffffffffffffffffffffffffffffffffffffff1673ffffffffffffffffffffffffffffffffffffffff16815260200190815260200160002060007f455448000000000000000000000000000000000000000000000000000000000060001b815260200190815260200160002060008282546115e19190615131565b92505081905550565b6115f2611c37565b73ffffffffffffffffffffffffffffffffffffffff16611610610d22565b73ffffffffffffffffffffffffffffffffffffffff1614611666576040517f08c379a000000000000000000000000000000000000000000000000000000000815260040161165d90614b6a565b60405180910390fd5b600073ffffffffffffffffffffffffffffffffffffffff168173ffffffffffffffffffffffffffffffffffffffff1614156116d6576040517f08c379a00000000000000000000000000000000000000000000000000000000081526004016116cd906151f9565b60405180910390fd5b6116df81613c9c565b50565b6060600460008481526020019081526020016000206000838152602001908152602001600020600085600181111561171d5761171c6142c8565b5b600181111561172f5761172e6142c8565b5b8152602001908152602001600020805480602002602001604051908101604052809291908181526020016000905b828210156118b3578382906000526020600020906007020160405180610140016040529081600082015481526020016001820160009054906101000a900460ff161515151581526020016001820160019054906101000a900460ff1660018111156117cb576117ca6142c8565b5b60018111156117dd576117dc6142c8565b5b81526020016001820160029054906101000a900460ff166004811115611806576118056142c8565b5b6004811115611818576118176142c8565b5b81526020016001820160039054906101000a900473ffffffffffffffffffffffffffffffffffffffff1673ffffffffffffffffffffffffffffffffffffffff1673ffffffffffffffffffffffffffffffffffffffff168152602001600282015481526020016003820154815260200160048201548152602001600582015481526020016006820154815250508152602001906001019061175d565b5050505090509392505050565b6005548410611904576040517f08c379a00000000000000000000000000000000000000000000000000000000081526004016118fb90615265565b60405180910390fd5b60005b60046000848152602001908152602001600020600083815260200190815260200160002060008560018111156119405761193f6142c8565b5b6001811115611952576119516142c8565b5b815260200190815260200160002080549050811015611a9c578460046000858152602001908152602001600020600084815260200190815260200160002060008660018111156119a5576119a46142c8565b5b60018111156119b7576119b66142c8565b5b815260200190815260200160002082815481106119d7576119d6615285565b5b9060005260206000209060070201600001541415611a895760006004600085815260200190815260200160002060008481526020019081526020016000206000866001811115611a2a57611a296142c8565b5b6001811115611a3c57611a3b6142c8565b5b81526020019081526020016000208281548110611a5c57611a5b615285565b5b906000526020600020906007020160010160006101000a81548160ff021916908315150217905550611a9c565b8080611a94906152b4565b915050611907565b5050505050565b6000806004600085815260200190815260200160002060008481526020019081526020016000206000866001811115611adf57611ade6142c8565b5b6001811115611af157611af06142c8565b5b81526020019081526020016000208054905011611b43576040517f08c379a0000000000000000000000000000000000000000000000000000000008152600401611b3a90615349565b60405180910390fd5b600060016004600086815260200190815260200160002060008581526020019081526020016000206000876001811115611b8057611b7f6142c8565b5b6001811115611b9257611b916142c8565b5b815260200190815260200160002080549050611bae9190615369565b90506004600085815260200190815260200160002060008481526020019081526020016000206000866001811115611be957611be86142c8565b5b6001811115611bfb57611bfa6142c8565b5b81526020019081526020016000208181548110611c1b57611c1a615285565b5b9060005260206000209060070201600501549150509392505050565b600033905090565b60008183611c4d9190615369565b905092915050565b6000808211611c99576040517f08c379a0000000000000000000000000000000000000000000000000000000008152600401611c90906153e9565b60405180910390fd5b60006004811115611cad57611cac6142c8565b5b866004811115611cc057611cbf6142c8565b5b14611d095760008311611d08576040517f08c379a0000000000000000000000000000000000000000000000000000000008152600401611cff9061547b565b60405180910390fd5b5b60006004811115611d1d57611d1c6142c8565b5b866004811115611d3057611d2f6142c8565b5b1415611d7e576000806001811115611d4b57611d4a6142c8565b5b886001811115611d5e57611d5d6142c8565b5b14611d6a576000611d6d565b60015b9050611d7a818787610613565b9350505b60006040518061014001604052806005548152602001600115158152602001896001811115611db057611daf6142c8565b5b8152602001886004811115611dc857611dc76142c8565b5b81526020013373ffffffffffffffffffffffffffffffffffffffff1681526020018781526020018681526020018481526020018581526020016000815250905060056000815480929190611e1b906152b4565b91905055506004600087815260200190815260200160002060008681526020019081526020016000206000896001811115611e5957611e586142c8565b5b6001811115611e6b57611e6a6142c8565b5b81526020019081526020016000208190806001815401808255809150506001900390600052602060002090600702016000909190919091506000820151816000015560208201518160010160006101000a81548160ff02191690831515021790555060408201518160010160016101000a81548160ff02191690836001811115611ef857611ef76142c8565b5b021790555060608201518160010160026101000a81548160ff02191690836004811115611f2857611f276142c8565b5b021790555060808201518160010160036101000a81548173ffffffffffffffffffffffffffffffffffffffff021916908373ffffffffffffffffffffffffffffffffffffffff16021790555060a0820151816002015560c0820151816003015560e08201518160040155610100820151816005015561012082015181600601555050600060046000888152602001908152602001600020600087815260200190815260200160002060008a6001811115611fe557611fe46142c8565b5b6001811115611ff757611ff66142c8565b5b81526020019081526020016000208054905090506000600181111561201f5761201e6142c8565b5b896001811115612032576120316142c8565b5b14156127055760006001826120479190615369565b90505b60008111156126ff5760046000898152602001908152602001600020600088815260200190815260200160002060008b600181111561208c5761208b6142c8565b5b600181111561209e5761209d6142c8565b5b815260200190815260200160002081815481106120be576120bd615285565b5b906000526020600020906007020160050154600460008a8152602001908152602001600020600089815260200190815260200160002060008c6001811115612109576121086142c8565b5b600181111561211b5761211a6142c8565b5b81526020019081526020016000206001836121369190615369565b8154811061214757612146615285565b5b90600052602060002090600702016005015411156126e75760046000898152602001908152602001600020600088815260200190815260200160002060008b6001811115612198576121976142c8565b5b60018111156121aa576121a96142c8565b5b815260200190815260200160002081815481106121ca576121c9615285565b5b906000526020600020906007020160405180610140016040529081600082015481526020016001820160009054906101000a900460ff161515151581526020016001820160019054906101000a900460ff16600181111561222e5761222d6142c8565b5b60018111156122405761223f6142c8565b5b81526020016001820160029054906101000a900460ff166004811115612269576122686142c8565b5b600481111561227b5761227a6142c8565b5b81526020016001820160039054906101000a900473ffffffffffffffffffffffffffffffffffffffff1673ffffffffffffffffffffffffffffffffffffffff1673ffffffffffffffffffffffffffffffffffffffff16815260200160028201548152602001600382015481526020016004820154815260200160058201548152602001600682015481525050925060046000898152602001908152602001600020600088815260200190815260200160002060008b6001811115612342576123416142c8565b5b6001811115612354576123536142c8565b5b815260200190815260200160002060018261236f9190615369565b815481106123805761237f615285565b5b9060005260206000209060070201600460008a8152602001908152602001600020600089815260200190815260200160002060008c60018111156123c7576123c66142c8565b5b60018111156123d9576123d86142c8565b5b815260200190815260200160002082815481106123f9576123f8615285565b5b9060005260206000209060070201600082015481600001556001820160009054906101000a900460ff168160010160006101000a81548160ff0219169083151502179055506001820160019054906101000a900460ff168160010160016101000a81548160ff02191690836001811115612476576124756142c8565b5b02179055506001820160029054906101000a900460ff168160010160026101000a81548160ff021916908360048111156124b3576124b26142c8565b5b02179055506001820160039054906101000a900473ffffffffffffffffffffffffffffffffffffffff168160010160036101000a81548173ffffffffffffffffffffffffffffffffffffffff021916908373ffffffffffffffffffffffffffffffffffffffff160217905550600282015481600201556003820154816003015560048201548160040155600582015481600501556006820154816006015590505082600460008a8152602001908152602001600020600089815260200190815260200160002060008c600181111561258e5761258d6142c8565b5b60018111156125a05761259f6142c8565b5b81526020019081526020016000206001836125bb9190615369565b815481106125cc576125cb615285565b5b90600052602060002090600702016000820151816000015560208201518160010160006101000a81548160ff02191690831515021790555060408201518160010160016101000a81548160ff0219169083600181111561262f5761262e6142c8565b5b021790555060608201518160010160026101000a81548160ff0219169083600481111561265f5761265e6142c8565b5b021790555060808201518160010160036101000a81548173ffffffffffffffffffffffffffffffffffffffff021916908373ffffffffffffffffffffffffffffffffffffffff16021790555060a0820151816002015560c0820151816003015560e08201518160040155610100820151816005015561012082015181600601559050506126ec565b6126ff565b80806126f79061549b565b91505061204a565b50612dce565b60006001826127149190615369565b90505b6000811115612dcc5760046000898152602001908152602001600020600088815260200190815260200160002060008b6001811115612759576127586142c8565b5b600181111561276b5761276a6142c8565b5b8152602001908152602001600020818154811061278b5761278a615285565b5b906000526020600020906007020160050154600460008a8152602001908152602001600020600089815260200190815260200160002060008c60018111156127d6576127d56142c8565b5b60018111156127e8576127e76142c8565b5b81526020019081526020016000206001836128039190615369565b8154811061281457612813615285565b5b9060005260206000209060070201600501541015612db45760046000898152602001908152602001600020600088815260200190815260200160002060008b6001811115612865576128646142c8565b5b6001811115612877576128766142c8565b5b8152602001908152602001600020818154811061289757612896615285565b5b906000526020600020906007020160405180610140016040529081600082015481526020016001820160009054906101000a900460ff161515151581526020016001820160019054906101000a900460ff1660018111156128fb576128fa6142c8565b5b600181111561290d5761290c6142c8565b5b81526020016001820160029054906101000a900460ff166004811115612936576129356142c8565b5b6004811115612948576129476142c8565b5b81526020016001820160039054906101000a900473ffffffffffffffffffffffffffffffffffffffff1673ffffffffffffffffffffffffffffffffffffffff1673ffffffffffffffffffffffffffffffffffffffff16815260200160028201548152602001600382015481526020016004820154815260200160058201548152602001600682015481525050925060046000898152602001908152602001600020600088815260200190815260200160002060008b6001811115612a0f57612a0e6142c8565b5b6001811115612a2157612a206142c8565b5b8152602001908152602001600020600182612a3c9190615369565b81548110612a4d57612a4c615285565b5b9060005260206000209060070201600460008a8152602001908152602001600020600089815260200190815260200160002060008c6001811115612a9457612a936142c8565b5b6001811115612aa657612aa56142c8565b5b81526020019081526020016000208281548110612ac657612ac5615285565b5b9060005260206000209060070201600082015481600001556001820160009054906101000a900460ff168160010160006101000a81548160ff0219169083151502179055506001820160019054906101000a900460ff168160010160016101000a81548160ff02191690836001811115612b4357612b426142c8565b5b02179055506001820160029054906101000a900460ff168160010160026101000a81548160ff02191690836004811115612b8057612b7f6142c8565b5b02179055506001820160039054906101000a900473ffffffffffffffffffffffffffffffffffffffff168160010160036101000a81548173ffffffffffffffffffffffffffffffffffffffff021916908373ffffffffffffffffffffffffffffffffffffffff160217905550600282015481600201556003820154816003015560048201548160040155600582015481600501556006820154816006015590505082600460008a8152602001908152602001600020600089815260200190815260200160002060008c6001811115612c5b57612c5a6142c8565b5b6001811115612c6d57612c6c6142c8565b5b8152602001908152602001600020600183612c889190615369565b81548110612c9957612c98615285565b5b90600052602060002090600702016000820151816000015560208201518160010160006101000a81548160ff02191690831515021790555060408201518160010160016101000a81548160ff02191690836001811115612cfc57612cfb6142c8565b5b021790555060608201518160010160026101000a81548160ff02191690836004811115612d2c57612d2b6142c8565b5b021790555060808201518160010160036101000a81548173ffffffffffffffffffffffffffffffffffffffff021916908373ffffffffffffffffffffffffffffffffffffffff16021790555060a0820151816002015560c0820151816003015560e0820151816004015561010082015181600501556101208201518160060155905050612db9565b612dcc565b8080612dc49061549b565b915050612717565b505b6001600554612ddd9190615369565b925050509695505050505050565b5b60006004600084815260200190815260200160002060008381526020019081526020016000206000600180811115612e2757612e266142c8565b5b6001811115612e3957612e386142c8565b5b815260200190815260200160002080549050118015612eb4575060006004600084815260200190815260200160002060008381526020019081526020016000206000806001811115612e8e57612e8d6142c8565b5b6001811115612ea057612e9f6142c8565b5b815260200190815260200160002080549050115b1561399a57600060016004600085815260200190815260200160002060008481526020019081526020016000206000806001811115612ef657612ef56142c8565b5b6001811115612f0857612f076142c8565b5b815260200190815260200160002080549050612f249190615369565b905060006004600085815260200190815260200160002060008481526020019081526020016000206000806001811115612f6157612f606142c8565b5b6001811115612f7357612f726142c8565b5b81526020019081526020016000208281548110612f9357612f92615285565b5b90600052602060002090600702019050600060016004600087815260200190815260200160002060008681526020019081526020016000206000600180811115612fe057612fdf6142c8565b5b6001811115612ff257612ff16142c8565b5b81526020019081526020016000208054905061300e9190615369565b90506000600460008781526020019081526020016000206000868152602001908152602001600020600060018081111561304b5761304a6142c8565b5b600181111561305d5761305c6142c8565b5b8152602001908152602001600020828154811061307d5761307c615285565b5b906000526020600020906007020190508260010160009054906101000a900460ff166130b0576130af60008787613d76565b5b8060010160009054906101000a900460ff166130d3576130d260018787613d76565b5b8060010160009054906101000a900460ff16158061310057508260010160009054906101000a900460ff16155b1561310e5750505050612dec565b60006004811115613122576131216142c8565b5b8360010160029054906101000a900460ff166004811115613146576131456142c8565b5b148015613188575060006004811115613162576131616142c8565b5b8160010160029054906101000a900460ff166004811115613186576131856142c8565b5b145b156131aa5780600501548360050154146131a5576131a46154c5565b5b6132cc565b600060048111156131be576131bd6142c8565b5b8360010160029054906101000a900460ff1660048111156131e2576131e16142c8565b5b141580156132255750600060048111156131ff576131fe6142c8565b5b8160010160029054906101000a900460ff166004811115613223576132226142c8565b5b145b1561323c57826005015481600501819055506132cb565b600060048111156132505761324f6142c8565b5b8360010160029054906101000a900460ff166004811115613274576132736142c8565b5b1480156132b75750600060048111156132905761328f6142c8565b5b8160010160029054906101000a900460ff1660048111156132b4576132b36142c8565b5b14155b156132ca57806005015483600501819055505b5b5b8060050154836005015410156132e5575050505061399a565b60016005546132f49190615369565b836000015414801561333a5750600480811115613314576133136142c8565b5b8360010160029054906101000a900460ff166004811115613338576133376142c8565b5b145b156133545761334b60008787613d76565b50505050612dec565b60016005546133639190615369565b83600001541480156133a95750600480811115613383576133826142c8565b5b8160010160029054906101000a900460ff1660048111156133a7576133a66142c8565b5b145b156133c3576133ba60018787613d76565b50505050612dec565b600083600001548260000154106133de5783600501546133e4565b81600501545b90506000846006015485600401546133fc9190615369565b90506000836006015484600401546134149190615369565b905060006134228383614107565b9050600084826134329190614c4b565b905060006003600481111561344a576134496142c8565b5b8960010160029054906101000a900460ff16600481111561346e5761346d6142c8565b5b14801561347f575082896004015414155b156134955761349060008d8d613d76565b600190505b600360048111156134a9576134a86142c8565b5b8760010160029054906101000a900460ff1660048111156134cd576134cc6142c8565b5b1480156134de575082876004015414155b156134f4576134ef60018d8d613d76565b600190505b80156135095750505050505050505050612dec565b82600360008b60010160039054906101000a900473ffffffffffffffffffffffffffffffffffffffff1673ffffffffffffffffffffffffffffffffffffffff1673ffffffffffffffffffffffffffffffffffffffff16815260200190815260200160002060008e8152602001908152602001600020600082825461358d9190615131565b9250508190555081600360008b60010160039054906101000a900473ffffffffffffffffffffffffffffffffffffffff1673ffffffffffffffffffffffffffffffffffffffff1673ffffffffffffffffffffffffffffffffffffffff16815260200190815260200160002060008d815260200190815260200160002060008282546136189190615369565b9250508190555082600360008960010160039054906101000a900473ffffffffffffffffffffffffffffffffffffffff1673ffffffffffffffffffffffffffffffffffffffff1673ffffffffffffffffffffffffffffffffffffffff16815260200190815260200160002060008e815260200190815260200160002060008282546136a39190615369565b9250508190555081600360008960010160039054906101000a900473ffffffffffffffffffffffffffffffffffffffff1673ffffffffffffffffffffffffffffffffffffffff1673ffffffffffffffffffffffffffffffffffffffff16815260200190815260200160002060008d8152602001908152602001600020600082825461372e9190615131565b92505081905550828960060160008282546137499190615131565b92505081905550828760060160008282546137649190615131565b92505081905550886004015489600601541115613784576137836154c5565b5b86600401548760060154111561379d5761379c6154c5565b5b8860010160039054906101000a900473ffffffffffffffffffffffffffffffffffffffff1673ffffffffffffffffffffffffffffffffffffffff167f36a54e61f475a84cd4a5c3b403be29e6101b05ec843b61fb97c3e123ff59b3f48a60000154888660405161380f939291906154f4565b60405180910390a28660010160039054906101000a900473ffffffffffffffffffffffffffffffffffffffff1673ffffffffffffffffffffffffffffffffffffffff167f36a54e61f475a84cd4a5c3b403be29e6101b05ec843b61fb97c3e123ff59b3f488600001548886604051613889939291906154f4565b60405180910390a28860040154896006015414156138b2576138ad60008d8d613d76565b61390e565b600260048111156138c6576138c56142c8565b5b8960010160029054906101000a900460ff1660048111156138ea576138e96142c8565b5b1480156138fb575060008960060154115b1561390d5761390c60008d8d613d76565b5b5b86600401548760060154141561392f5761392a60018d8d613d76565b61398b565b60026004811115613943576139426142c8565b5b8760010160029054906101000a900460ff166004811115613967576139666142c8565b5b148015613978575060008760060154115b1561398a5761398960018d8d613d76565b5b5b50505050505050505050612dec565b5050565b6139a6614120565b60055485106139ea576040517f08c379a00000000000000000000000000000000000000000000000000000000081526004016139e190615265565b60405180910390fd5b60005b6004600085815260200190815260200160002060008481526020019081526020016000206000866001811115613a2657613a256142c8565b5b6001811115613a3857613a376142c8565b5b815260200190815260200160002080549050811015613c9357856004600086815260200190815260200160002060008581526020019081526020016000206000876001811115613a8b57613a8a6142c8565b5b6001811115613a9d57613a9c6142c8565b5b81526020019081526020016000208281548110613abd57613abc615285565b5b9060005260206000209060070201600001541415613c80576004600085815260200190815260200160002060008481526020019081526020016000206000866001811115613b0e57613b0d6142c8565b5b6001811115613b2057613b1f6142c8565b5b81526020019081526020016000208181548110613b4057613b3f615285565b5b906000526020600020906007020160405180610140016040529081600082015481526020016001820160009054906101000a900460ff161515151581526020016001820160019054906101000a900460ff166001811115613ba457613ba36142c8565b5b6001811115613bb657613bb56142c8565b5b81526020016001820160029054906101000a900460ff166004811115613bdf57613bde6142c8565b5b6004811115613bf157613bf06142c8565b5b81526020016001820160039054906101000a900473ffffffffffffffffffffffffffffffffffffffff1673ffffffffffffffffffffffffffffffffffffffff1673ffffffffffffffffffffffffffffffffffffffff1681526020016002820154815260200160038201548152602001600482015481526020016005820154815260200160068201548152505091505b8080613c8b906152b4565b9150506139ed565b50949350505050565b60008060009054906101000a900473ffffffffffffffffffffffffffffffffffffffff169050816000806101000a81548173ffffffffffffffffffffffffffffffffffffffff021916908373ffffffffffffffffffffffffffffffffffffffff1602179055508173ffffffffffffffffffffffffffffffffffffffff168173ffffffffffffffffffffffffffffffffffffffff167f8be0079c531659141344cd1fd0a4f28419497f9722a3daafe3b4186f6b6457e060405160405180910390a35050565b60008183613d6e9190615131565b905092915050565b600060016004600085815260200190815260200160002060008481526020019081526020016000206000866001811115613db357613db26142c8565b5b6001811115613dc557613dc46142c8565b5b815260200190815260200160002080549050613de19190615369565b905060006004600085815260200190815260200160002060008481526020019081526020016000206000866001811115613e1e57613e1d6142c8565b5b6001811115613e3057613e2f6142c8565b5b81526020019081526020016000208281548110613e5057613e4f615285565b5b906000526020600020906007020190508060010160039054906101000a900473ffffffffffffffffffffffffffffffffffffffff1673ffffffffffffffffffffffffffffffffffffffff167f26af14115f21b05d36ec1e7593fc9f481190ee553c5598923b71d87b26c41c0682600001548360060154604051613ed492919061552b565b60405180910390a26004600085815260200190815260200160002060008481526020019081526020016000206000866001811115613f1557613f146142c8565b5b6001811115613f2757613f266142c8565b5b81526020019081526020016000208281548110613f4757613f46615285565b5b90600052602060002090600702016000808201600090556001820160006101000a81549060ff02191690556001820160016101000a81549060ff02191690556001820160026101000a81549060ff02191690556001820160036101000a81549073ffffffffffffffffffffffffffffffffffffffff02191690556002820160009055600382016000905560048201600090556005820160009055600682016000905550506004600085815260200190815260200160002060008481526020019081526020016000206000866001811115614024576140236142c8565b5b6001811115614036576140356142c8565b5b815260200190815260200160002080548061405457614053615554565b5b60019003818190600052602060002090600702016000808201600090556001820160006101000a81549060ff02191690556001820160016101000a81549060ff02191690556001820160026101000a81549060ff02191690556001820160036101000a81549073ffffffffffffffffffffffffffffffffffffffff021916905560028201600090556003820160009055600482016000905560058201600090556006820160009055505090555050505050565b60008183106141165781614118565b825b905092915050565b60405180610140016040528060008152602001600015158152602001600060018111156141505761414f6142c8565b5b815260200160006004811115614169576141686142c8565b5b8152602001600073ffffffffffffffffffffffffffffffffffffffff16815260200160008019168152602001600080191681526020016000815260200160008152602001600081525090565b600080fd5b600281106141c757600080fd5b50565b6000813590506141d9816141ba565b92915050565b6000819050919050565b6141f2816141df565b81146141fd57600080fd5b50565b60008135905061420f816141e9565b92915050565b60008060006060848603121561422e5761422d6141b5565b5b600061423c868287016141ca565b935050602061424d86828701614200565b925050604061425e86828701614200565b9150509250925092565b600081519050919050565b600082825260208201905092915050565b6000819050602082019050919050565b6000819050919050565b6142a781614294565b82525050565b60008115159050919050565b6142c2816142ad565b82525050565b7f4e487b7100000000000000000000000000000000000000000000000000000000600052602160045260246000fd5b60028110614308576143076142c8565b5b50565b6000819050614319826142f7565b919050565b60006143298261430b565b9050919050565b6143398161431e565b82525050565b600581106143505761434f6142c8565b5b50565b60008190506143618261433f565b919050565b600061437182614353565b9050919050565b61438181614366565b82525050565b600073ffffffffffffffffffffffffffffffffffffffff82169050919050565b60006143b282614387565b9050919050565b6143c2816143a7565b82525050565b6143d1816141df565b82525050565b610140820160008201516143ee600085018261429e565b50602082015161440160208501826142b9565b5060408201516144146040850182614330565b5060608201516144276060850182614378565b50608082015161443a60808501826143b9565b5060a082015161444d60a08501826143c8565b5060c082015161446060c08501826143c8565b5060e082015161447360e085018261429e565b5061010082015161448861010085018261429e565b5061012082015161449d61012085018261429e565b50505050565b60006144af83836143d7565b6101408301905092915050565b6000602082019050919050565b60006144d482614268565b6144de8185614273565b93506144e983614284565b8060005b8381101561451a57815161450188826144a3565b975061450c836144bc565b9250506001810190506144ed565b5085935050505092915050565b6000602082019050818103600083015261454181846144c9565b905092915050565b614552816143a7565b811461455d57600080fd5b50565b60008135905061456f81614549565b92915050565b6000806040838503121561458c5761458b6141b5565b5b600061459a85828601614560565b92505060206145ab85828601614200565b9150509250929050565b6145be81614294565b82525050565b60006020820190506145d960008301846145b5565b92915050565b6145e881614294565b81146145f357600080fd5b50565b600081359050614605816145df565b92915050565b60008060008060808587031215614625576146246141b5565b5b6000614633878288016145f6565b9450506020614644878288016141ca565b935050604061465587828801614200565b925050606061466687828801614200565b91505092959194509250565b600081519050919050565b600082825260208201905092915050565b6000819050602082019050919050565b60006146aa83836143c8565b60208301905092915050565b6000602082019050919050565b60006146ce82614672565b6146d8818561467d565b93506146e38361468e565b8060005b838110156147145781516146fb888261469e565b9750614706836146b6565b9250506001810190506146e7565b5085935050505092915050565b6000602082019050818103600083015261473b81846146c3565b905092915050565b6000806040838503121561475a576147596141b5565b5b600061476885828601614200565b925050602061477985828601614200565b9150509250929050565b600060208284031215614799576147986141b5565b5b60006147a7848285016145f6565b91505092915050565b600581106147bd57600080fd5b50565b6000813590506147cf816147b0565b92915050565b60008060008060008060c087890312156147f2576147f16141b5565b5b600061480089828a016141ca565b965050602061481189828a016147c0565b955050604061482289828a01614200565b945050606061483389828a01614200565b935050608061484489828a016145f6565b92505060a061485589828a016145f6565b9150509295509295509295565b61014082016000820151614879600085018261429e565b50602082015161488c60208501826142b9565b50604082015161489f6040850182614330565b5060608201516148b26060850182614378565b5060808201516148c560808501826143b9565b5060a08201516148d860a08501826143c8565b5060c08201516148eb60c08501826143c8565b5060e08201516148fe60e085018261429e565b5061010082015161491361010085018261429e565b5061012082015161492861012085018261429e565b50505050565b6000610140820190506149446000830184614862565b92915050565b6000602082840312156149605761495f6141b5565b5b600061496e84828501614200565b91505092915050565b614980816141df565b82525050565b61498f816143a7565b82525050565b60006040820190506149aa6000830185614977565b6149b76020830184614986565b9392505050565b60006020820190506149d36000830184614986565b92915050565b600080604083850312156149f0576149ef6141b5565b5b60006149fe85828601614200565b9250506020614a0f85828601614560565b9150509250929050565b6000602082019050614a2e6000830184614977565b92915050565b60008060408385031215614a4b57614a4a6141b5565b5b6000614a59858286016145f6565b9250506020614a6a85828601614200565b9150509250929050565b600060208284031215614a8a57614a896141b5565b5b6000614a9884828501614560565b91505092915050565b600082825260208201905092915050565b7f4465783a207061697220646f65736e2774206578697374000000000000000000600082015250565b6000614ae8601783614aa1565b9150614af382614ab2565b602082019050919050565b60006020820190508181036000830152614b1781614adb565b9050919050565b7f4f776e61626c653a2063616c6c6572206973206e6f7420746865206f776e6572600082015250565b6000614b54602083614aa1565b9150614b5f82614b1e565b602082019050919050565b60006020820190508181036000830152614b8381614b47565b9050919050565b7f57616c6c65743a20696e73756666696369656e742065746865722062616c616e60008201527f6365000000000000000000000000000000000000000000000000000000000000602082015250565b6000614be6602283614aa1565b9150614bf182614b8a565b604082019050919050565b60006020820190508181036000830152614c1581614bd9565b9050919050565b7f4e487b7100000000000000000000000000000000000000000000000000000000600052601160045260246000fd5b6000614c5682614294565b9150614c6183614294565b9250817fffffffffffffffffffffffffffffffffffffffffffffffffffffffffffffffff0483118215151615614c9a57614c99614c1c565b5b828202905092915050565b7f4465783a20427579657220646f65736e2774206861766520656e6f756768207460008201527f6f6b657300000000000000000000000000000000000000000000000000000000602082015250565b6000614d01602483614aa1565b9150614d0c82614ca5565b604082019050919050565b60006020820190508181036000830152614d3081614cf4565b9050919050565b7f4465783a2053656c6c657220646f65736e2774206861766520656e6f7567682060008201527f746f6b6573000000000000000000000000000000000000000000000000000000602082015250565b6000614d93602583614aa1565b9150614d9e82614d37565b604082019050919050565b60006020820190508181036000830152614dc281614d86565b9050919050565b614dd28161431e565b82525050565b614de181614366565b82525050565b600060e082019050614dfc600083018a6145b5565b614e096020830189614dc9565b614e166040830188614dd8565b614e236060830187614977565b614e306080830186614977565b614e3d60a08301856145b5565b614e4a60c08301846145b5565b98975050505050505050565b7f57616c6c65743a20746f6b656e20646f6573206e6f7420657869747300000000600082015250565b6000614e8c601c83614aa1565b9150614e9782614e56565b602082019050919050565b60006020820190508181036000830152614ebb81614e7f565b9050919050565b7f57616c6c65743a20696e73756666696369656e7420746f6b656e2062616c616e60008201527f6365000000000000000000000000000000000000000000000000000000000000602082015250565b6000614f1e602283614aa1565b9150614f2982614ec2565b604082019050919050565b60006020820190508181036000830152614f4d81614f11565b9050919050565b6000604082019050614f696000830185614986565b614f7660208301846145b5565b9392505050565b614f86816142ad565b8114614f9157600080fd5b50565b600081519050614fa381614f7d565b92915050565b600060208284031215614fbf57614fbe6141b5565b5b6000614fcd84828501614f94565b91505092915050565b7f57616c6c65743a2063616e27742073656e6420746f6b656e7320746f2069747360008201527f656c660000000000000000000000000000000000000000000000000000000000602082015250565b6000615032602383614aa1565b915061503d82614fd6565b604082019050919050565b6000602082019050818103600083015261506181615025565b9050919050565b600060608201905061507d6000830186614986565b61508a6020830185614986565b61509760408301846145b5565b949350505050565b7f57616c6c65743a2063616e27742073656e6420657468657220746f206974736560008201527f6c66000000000000000000000000000000000000000000000000000000000000602082015250565b60006150fb602283614aa1565b91506151068261509f565b604082019050919050565b6000602082019050818103600083015261512a816150ee565b9050919050565b600061513c82614294565b915061514783614294565b9250827fffffffffffffffffffffffffffffffffffffffffffffffffffffffffffffffff0382111561517c5761517b614c1c565b5b828201905092915050565b7f4f776e61626c653a206e6577206f776e657220697320746865207a65726f206160008201527f6464726573730000000000000000000000000000000000000000000000000000602082015250565b60006151e3602683614aa1565b91506151ee82615187565b604082019050919050565b60006020820190508181036000830152615212816151d6565b9050919050565b7f4f7264657220646f65736e277420657869737400000000000000000000000000600082015250565b600061524f601383614aa1565b915061525a82615219565b602082019050919050565b6000602082019050818103600083015261527e81615242565b9050919050565b7f4e487b7100000000000000000000000000000000000000000000000000000000600052603260045260246000fd5b60006152bf82614294565b91507fffffffffffffffffffffffffffffffffffffffffffffffffffffffffffffffff8214156152f2576152f1614c1c565b5b600182019050919050565b7f4d61726b6574206973206e6f7420617661696c61626c65000000000000000000600082015250565b6000615333601783614aa1565b915061533e826152fd565b602082019050919050565b6000602082019050818103600083015261536281615326565b9050919050565b600061537482614294565b915061537f83614294565b92508282101561539257615391614c1c565b5b828203905092915050565b7f4f72646572426f6f6b3a207a65726f20616d6f756e7400000000000000000000600082015250565b60006153d3601683614aa1565b91506153de8261539d565b602082019050919050565b60006020820190508181036000830152615402816153c6565b9050919050565b7f4f72646572426f6f6b3a204c696d6974206f726465722063616e6e6f7420686160008201527f7665207a65726f20707269636500000000000000000000000000000000000000602082015250565b6000615465602d83614aa1565b915061547082615409565b604082019050919050565b6000602082019050818103600083015261549481615458565b9050919050565b60006154a682614294565b915060008214156154ba576154b9614c1c565b5b600182039050919050565b7f4e487b7100000000000000000000000000000000000000000000000000000000600052600160045260246000fd5b600060608201905061550960008301866145b5565b61551660208301856145b5565b61552360408301846145b5565b949350505050565b600060408201905061554060008301856145b5565b61554d60208301846145b5565b9392505050565b7f4e487b7100000000000000000000000000000000000000000000000000000000600052603160045260246000fdfea2646970667358221220f19791353d326130dce39c0f029150204fb396b8638207c50a22ebf7d63fa75264736f6c63430008090033",
  "immutableReferences": {},
  "source": "// SPDX-License-Identifier: MIT\n\npragma solidity ^0.8.0;\npragma abicoder v2;\n\nimport \"./Wallet.sol\";\nimport \"./OrderBook.sol\";\nimport \"../node_modules/@openzeppelin/contracts/utils/math/Math.sol\";\n\ncontract Dex is Wallet, OrderBook {\n\n    using Math for uint256;\n\n    event OrderCreated(\n        uint256 id,\n        address indexed trader,\n        Side side, \n        OrderType orderType,\n        bytes32 tickerTo, \n        bytes32 tickerFrom, \n        uint256 price, \n        uint256 amount\n    );\n\n    event OrderRemoved(\n        uint256 id,\n        address indexed trader,\n        uint256 filled\n    );\n\n    event OrderFilled(\n        uint256 id,\n        address indexed trader,\n        uint256 price,\n        uint256 filled\n    );\n\n    mapping(bytes32 => mapping (bytes32 => bool)) pairs;\n\n    modifier pairExists (bytes32 tickerTo, bytes32 tickerFrom) {\n        require (pairs[tickerTo][tickerFrom], \"Dex: pair doesn't exist\");\n        _;\n    }\n\n    function addPair(bytes32 tickerTo, bytes32 tickerFrom) public onlyOwner {\n        pairs[tickerTo][tickerFrom] = true;\n    }\n\n    function removePair(bytes32 tickerTo, bytes32 tickerFrom) public onlyOwner {\n        pairs[tickerTo][tickerFrom] = false;\n    }\n\n    function popTopOrder(\n        Side side,\n        bytes32 tickerTo, \n        bytes32 tickerFrom\n    ) \n    private {\n        uint256 topIndex = orderBook[tickerTo][tickerFrom][side].length - 1;\n        Order storage order = orderBook[tickerTo][tickerFrom][side][topIndex];\n        \n        emit OrderRemoved(\n            order.id, \n            order.trader, \n            order.filled\n        );\n        \n        delete orderBook[tickerTo][tickerFrom][side][topIndex];\n        \n        orderBook[tickerTo][tickerFrom][side].pop();\n    }\n\n    /**\n     * @dev Matches the orders on the order book based on their price and type\n     */\n    function processSwaps(bytes32 tickerTo, bytes32 tickerFrom) private {\n        // BUY and SELL `orderBook`s must both have entries\n        while (\n            orderBook[tickerTo][tickerFrom][Side.SELL].length > 0 && \n            orderBook[tickerTo][tickerFrom][Side.BUY].length > 0\n        ) \n        {    \n            // Get top BUY order\n            uint256 topBuyIndex = orderBook[tickerTo][tickerFrom][Side.BUY].length - 1;\n            Order storage topBuyOrder = orderBook[tickerTo][tickerFrom][Side.BUY][topBuyIndex];\n            \n            // Get top SELL order\n            uint256 topSellIndex = orderBook[tickerTo][tickerFrom][Side.SELL].length - 1;\n            Order storage topSellOrder = orderBook[tickerTo][tickerFrom][Side.SELL][topSellIndex];\n\n            /*\n            Check if the orders aren't cancelled. If any of the orders is cancelled then pop the order\n            and continue looking.\n            */\n            if (!topBuyOrder.isActive)\n                popTopOrder(Side.BUY, tickerTo, tickerFrom);\n            if (!topSellOrder.isActive)\n                popTopOrder(Side.SELL, tickerTo, tickerFrom);\n            if (!topSellOrder.isActive || !topBuyOrder.isActive)\n                continue;\n            \n            /* \n            If the top orders are both market orders then their price will be equal as the previous market\n            order's price will be the current market price and will propogate the the new market order\n            that is currently being placed on the opposite side of the order book.\n            */\n            if (topBuyOrder.orderType == OrderType.MARKET && topSellOrder.orderType == OrderType.MARKET) {\n                assert(topBuyOrder.price == topSellOrder.price);\n            }\n            // If topBuyOrder is limit and topSellOrder is market, then use the buy order price\n            else if (topBuyOrder.orderType != OrderType.MARKET && topSellOrder.orderType == OrderType.MARKET) {\n                topSellOrder.price = topBuyOrder.price;\n            }\n            // If topSellOrder is limit and topBuyOrder is market, then use the sell order price\n            else if (topBuyOrder.orderType == OrderType.MARKET && topSellOrder.orderType != OrderType.MARKET) {\n                topBuyOrder.price = topSellOrder.price;\n            }\n\n            // If buyer's price is less then seller's price then order can't be filled\n            if (topBuyOrder.price < topSellOrder.price)\n                break;\n\n            /* \n            For the most recent order that comes to processing, check if it is MOC order. If so\n            then pop at this point it can fulfill the opposite side of orders and hence it won't \n            rest on the order book. It should be cancelled.\n\n            Only one of the top orders can be cancelled as only one will be the most recent.\n            */\n            if (topBuyOrder.id == nextOrderId - 1 && topBuyOrder.orderType == OrderType.MOC) {\n                popTopOrder(Side.BUY, tickerTo, tickerFrom);\n                continue;\n            }\n            if (topBuyOrder.id == nextOrderId - 1 && topSellOrder.orderType == OrderType.MOC) {\n                popTopOrder(Side.SELL, tickerTo, tickerFrom);\n                continue;\n            }\n\n            // Calculate current fill price based on the order of arrival to the market\n            uint256 fillPrice = topSellOrder.id < topBuyOrder.id ? topSellOrder.price : topBuyOrder.price;\n\n            // Calculate the current order fill amount\n            // Take into account the partly filled amounts by subtracting already filled tokes from the total amount\n            uint256 remainingBuyOrderAmountToFill = topBuyOrder.amount - topBuyOrder.filled;\n            uint256 remainingSellOrderAmountToFill = topSellOrder.amount - topSellOrder.filled;\n            uint256 fillAmountTo = Math.min(remainingBuyOrderAmountToFill, remainingSellOrderAmountToFill);\n            uint256 fillAmountFrom = fillAmountTo * fillPrice;\n\n            /* \n            If FOK order then check if the fill amount == the order amount. \n            If so then remove the order.\n\n            Both of the top orders can be FOK orders, but only one of them can\n            be removed due to the projected partial fulfillment. \n            \n            In case when both orders are the FOK orders, the one with lesser amount\n            will remain on the order book.\n            */\n            bool fokBreak = false;\n            if (topBuyOrder.orderType == OrderType.FOK && topBuyOrder.amount != fillAmountTo){\n                popTopOrder(Side.BUY, tickerTo, tickerFrom);\n                fokBreak = true;\n            }\n            if (topSellOrder.orderType == OrderType.FOK && topSellOrder.amount != fillAmountTo){\n                popTopOrder(Side.SELL, tickerTo, tickerFrom);\n                fokBreak = true;\n            }\n            if (fokBreak)\n                continue;\n            \n            // Increase tickerTo and decrease tickerFrom tokens in buyer's wallet\n            balances[topBuyOrder.trader][tickerTo] += fillAmountTo;\n            balances[topBuyOrder.trader][tickerFrom] -= fillAmountFrom;\n\n            // Decrease tickerTo and increase tickerFrom tokens in sellers's wallet\n            balances[topSellOrder.trader][tickerTo] -= fillAmountTo;\n            balances[topSellOrder.trader][tickerFrom] += fillAmountFrom;\n\n            // Increase filled amount for both, buyer seller\n            topBuyOrder.filled += fillAmountTo;\n            topSellOrder.filled += fillAmountTo;\n\n            assert(topBuyOrder.filled <= topBuyOrder.amount);\n            assert(topSellOrder.filled <= topSellOrder.amount);\n\n            // Emit OrderFilled event for sell and buy orders\n            emit OrderFilled(\n                topBuyOrder.id,\n                topBuyOrder.trader,\n                fillPrice,\n                fillAmountTo\n            );\n\n            emit OrderFilled(\n                topSellOrder.id,\n                topSellOrder.trader,\n                fillPrice,\n                fillAmountTo\n            );\n\n            // If order.filled == amount, then the order can be popped\n            if (topBuyOrder.filled == topBuyOrder.amount) {\n                popTopOrder(Side.BUY, tickerTo, tickerFrom);\n            }\n            // If IOC order is partially filled then still pop the order from the order book\n            else if(topBuyOrder.orderType == OrderType.IOC && topBuyOrder.filled > 0){\n                popTopOrder(Side.BUY, tickerTo, tickerFrom);\n            }\n\n            if (topSellOrder.filled == topSellOrder.amount) {\n                popTopOrder(Side.SELL, tickerTo, tickerFrom);\n            }\n            // If IOC order is partially filled then still pop the order from the order book\n            else if(topSellOrder.orderType == OrderType.IOC && topSellOrder.filled > 0){\n                popTopOrder(Side.SELL, tickerTo, tickerFrom);\n            }\n        }\n    }\n\n    /**\n     * @dev creates an order to swap two tokens:\n     *  `amount` of tokens `tickerTo` are to be swapped for tokens `tickerFrom` @ `price`\n     * \n     *  `orderType` defines the type of order to place\n     *\n     *  For market orders the price doesn't matter and can be zero.\n     *  Market order will not be created if the opposite side of the order book is empty.\n     *\n     *  Overrides `createOrder` function from OrderBook.sol\n     */\n    function createOrder (\n        Side side, \n        OrderType orderType,\n        bytes32 tickerTo,\n        bytes32 tickerFrom, \n        uint256 price, \n        uint256 amount\n    )\n    public \n    virtual override \n    pairExists(tickerTo, tickerFrom)\n    returns (uint256) {\n        // Buyer can't swap for tokens he doesn't have\n        if (side == Side.BUY) {\n            uint256 buyersTokensToSwapBalance = balances[msg.sender][tickerFrom];\n            require(buyersTokensToSwapBalance >= price * amount, \"Dex: Buyer doesn't have enough tokes\");\n        }\n        else {\n            // Seller can't offer tokens for swap he doesn't have\n            uint256 sellersTokensToSwapBalance = balances[msg.sender][tickerTo];\n            require(sellersTokensToSwapBalance >= amount, \"Dex: Seller doesn't have enough tokes\");\n        }\n\n        uint256 orderId = super.createOrder(side, orderType, tickerTo, tickerFrom, price, amount);\n\n        emit OrderCreated(\n            orderId, \n            msg.sender, \n            side, \n            orderType, \n            tickerTo, \n            tickerFrom, \n            price, // for market orders price can be anything.\n            amount\n        );\n\n        processSwaps(tickerTo, tickerFrom);\n\n        return orderId;\n    }\n    function cancelOrder (\n        uint256 orderId,\n        Side side, \n        bytes32 tickerTo, \n        bytes32 tickerFrom\n    ) \n    public \n    virtual override\n    pairExists(tickerTo, tickerFrom)\n    {\n        super.cancelOrder(orderId, side, tickerTo, tickerFrom);\n    }\n\n    function getOrder (\n        uint256 orderId,\n        Side side, \n        bytes32 tickerTo, \n        bytes32 tickerFrom\n    ) \n    public \n    view \n    virtual override\n    pairExists(tickerTo, tickerFrom)\n    returns (Order memory order)\n    {\n        return super.getOrder(orderId, side, tickerTo, tickerFrom);\n    }\n\n    function getOrderBook(\n        Side side, \n        bytes32 tickerTo, \n        bytes32 tickerFrom\n    ) \n    public \n    view \n    virtual override\n    pairExists(tickerTo, tickerFrom)\n    returns(Order[] memory)\n    {\n        return super.getOrderBook(side, tickerTo, tickerFrom);\n    }\n\n    function getMarketPrice (\n        Side side, \n        bytes32 tickerTo, \n        bytes32 tickerFrom\n    ) \n    public \n    view \n    virtual override\n    pairExists(tickerTo, tickerFrom)\n    returns (uint256) \n    {\n        return super.getMarketPrice(side, tickerTo, tickerFrom);\n    }\n}\n",
  "sourcePath": "/Users/noname/truffle/iot_dex/contracts/Dex.sol",
  "compiler": {
    "name": "solc",
    "version": "0.8.9+commit.e5eed63a.Emscripten.clang"
  },
  "schemaVersion": "3.4.3",
  "updatedAt": "2021-10-15T08:37:06.434Z",
  "networkType": "ethereum",
  "devdoc": {
    "kind": "dev",
    "methods": {
      "addToken(bytes32,address)": {
        "details": "Adds token to the wallet  Requirements: - `onlyOwner` can add a `token` - "
      },
      "cancelOrder(uint256,uint8,bytes32,bytes32)": {
        "details": "Cancel an order by setting isActive flag to false Algorithmic cost: O(n) Returns true if the order was cancelled. Returns false if the order was not found or had already been cancelled"
      },
      "createOrder(uint8,uint8,bytes32,bytes32,uint256,uint256)": {
        "details": "creates an order to swap two tokens: `price`   `orderType` defines the type of order to place  For market orders the price doesn't matter and can be zero.  Market order will not be created if the opposite side of the order book is empty.  Overrides `createOrder` function from OrderBook.sol"
      },
      "deposit()": {
        "details": "Deposit ether to the wallet for `msg.sender`'s account  Requirements: - `msg.sender` cannot be equal to this(address)."
      },
      "deposit(uint256,bytes32)": {
        "details": "Deposit tokens to the wallet for `msg.sender`'s account  Requirements: - `msg.sender` cannot be equal to `tokenAddress`. - Token `ticker` MUST be present in `tokenMapping`."
      },
      "getTokenList()": {
        "details": "Get token list "
      },
      "owner()": {
        "details": "Returns the address of the current owner."
      },
      "renounceOwnership()": {
        "details": "Leaves the contract without owner. It will not be possible to call `onlyOwner` functions anymore. Can only be called by the current owner. NOTE: Renouncing ownership will leave the contract without an owner, thereby removing any functionality that is only available to the owner."
      },
      "transferOwnership(address)": {
        "details": "Transfers ownership of the contract to a new account (`newOwner`). Can only be called by the current owner."
      },
      "withdraw(uint256)": {
        "details": "Withdraw token @ `tokenAddress` contract for `msg.sender`'s account.  Requirements: - `msg.sender` MUST have a sufficient balance of ether to withdraw."
      },
      "withdraw(uint256,bytes32)": {
        "details": "Withdraw token @ `tokenAddress` contract for `msg.sender`'s account.  Requirements: - `msg.sender` MUST have a sufficient balance of tokens being withdrawn. - Token `ticker` MUST be present in `tokenMapping`."
      }
    },
    "version": 1
  },
  "userdoc": {
    "kind": "user",
    "methods": {},
    "version": 1
  }
}