{
  "contractName": "Dex",
  "abi": [
    {
      "anonymous": false,
      "inputs": [
        {
          "indexed": false,
          "internalType": "uint256",
          "name": "id",
          "type": "uint256"
        },
        {
          "indexed": true,
          "internalType": "address",
          "name": "trader",
          "type": "address"
        },
        {
          "indexed": false,
          "internalType": "enum OrderBook.Side",
          "name": "side",
          "type": "uint8"
        },
        {
          "indexed": false,
          "internalType": "enum OrderBook.OrderType",
          "name": "orderType",
          "type": "uint8"
        },
        {
          "indexed": false,
          "internalType": "bytes32",
          "name": "tickerTo",
          "type": "bytes32"
        },
        {
          "indexed": false,
          "internalType": "bytes32",
          "name": "tickerFrom",
          "type": "bytes32"
        },
        {
          "indexed": false,
          "internalType": "uint256",
          "name": "price",
          "type": "uint256"
        },
        {
          "indexed": false,
          "internalType": "uint256",
          "name": "amount",
          "type": "uint256"
        }
      ],
      "name": "OrderCreated",
      "type": "event"
    },
    {
      "anonymous": false,
      "inputs": [
        {
          "indexed": false,
          "internalType": "uint256",
          "name": "id",
          "type": "uint256"
        },
        {
          "indexed": true,
          "internalType": "address",
          "name": "trader",
          "type": "address"
        },
        {
          "indexed": false,
          "internalType": "uint256",
          "name": "price",
          "type": "uint256"
        },
        {
          "indexed": false,
          "internalType": "uint256",
          "name": "filled",
          "type": "uint256"
        }
      ],
      "name": "OrderFilled",
      "type": "event"
    },
    {
      "anonymous": false,
      "inputs": [
        {
          "indexed": false,
          "internalType": "uint256",
          "name": "id",
          "type": "uint256"
        },
        {
          "indexed": true,
          "internalType": "address",
          "name": "trader",
          "type": "address"
        },
        {
          "indexed": false,
          "internalType": "uint256",
          "name": "filled",
          "type": "uint256"
        }
      ],
      "name": "OrderRemoved",
      "type": "event"
    },
    {
      "anonymous": false,
      "inputs": [
        {
          "indexed": true,
          "internalType": "address",
          "name": "previousOwner",
          "type": "address"
        },
        {
          "indexed": true,
          "internalType": "address",
          "name": "newOwner",
          "type": "address"
        }
      ],
      "name": "OwnershipTransferred",
      "type": "event"
    },
    {
      "inputs": [
        {
          "internalType": "bytes32",
          "name": "ticker",
          "type": "bytes32"
        },
        {
          "internalType": "address",
          "name": "tokenAddress",
          "type": "address"
        }
      ],
      "name": "addToken",
      "outputs": [],
      "stateMutability": "nonpayable",
      "type": "function"
    },
    {
      "inputs": [
        {
          "internalType": "address",
          "name": "",
          "type": "address"
        },
        {
          "internalType": "bytes32",
          "name": "",
          "type": "bytes32"
        }
      ],
      "name": "balances",
      "outputs": [
        {
          "internalType": "uint256",
          "name": "",
          "type": "uint256"
        }
      ],
      "stateMutability": "view",
      "type": "function"
    },
    {
      "inputs": [
        {
          "internalType": "uint256",
          "name": "amount",
          "type": "uint256"
        },
        {
          "internalType": "bytes32",
          "name": "ticker",
          "type": "bytes32"
        }
      ],
      "name": "deposit",
      "outputs": [],
      "stateMutability": "nonpayable",
      "type": "function"
    },
    {
      "inputs": [],
      "name": "deposit",
      "outputs": [],
      "stateMutability": "payable",
      "type": "function"
    },
    {
      "inputs": [],
      "name": "getTokenList",
      "outputs": [
        {
          "components": [
            {
              "internalType": "bytes32",
              "name": "ticker",
              "type": "bytes32"
            },
            {
              "internalType": "address",
              "name": "tokenAddress",
              "type": "address"
            }
          ],
          "internalType": "struct Wallet.Token[]",
          "name": "",
          "type": "tuple[]"
        }
      ],
      "stateMutability": "view",
      "type": "function"
    },
    {
      "inputs": [],
      "name": "owner",
      "outputs": [
        {
          "internalType": "address",
          "name": "",
          "type": "address"
        }
      ],
      "stateMutability": "view",
      "type": "function"
    },
    {
      "inputs": [
        {
          "internalType": "bytes32",
          "name": "",
          "type": "bytes32"
        },
        {
          "internalType": "bytes32",
          "name": "",
          "type": "bytes32"
        }
      ],
      "name": "pairs",
      "outputs": [
        {
          "internalType": "bool",
          "name": "",
          "type": "bool"
        }
      ],
      "stateMutability": "view",
      "type": "function"
    },
    {
      "inputs": [],
      "name": "renounceOwnership",
      "outputs": [],
      "stateMutability": "nonpayable",
      "type": "function"
    },
    {
      "inputs": [
        {
          "internalType": "uint256",
          "name": "",
          "type": "uint256"
        }
      ],
      "name": "tokenList",
      "outputs": [
        {
          "internalType": "bytes32",
          "name": "ticker",
          "type": "bytes32"
        },
        {
          "internalType": "address",
          "name": "tokenAddress",
          "type": "address"
        }
      ],
      "stateMutability": "view",
      "type": "function"
    },
    {
      "inputs": [
        {
          "internalType": "bytes32",
          "name": "",
          "type": "bytes32"
        }
      ],
      "name": "tokenMapping",
      "outputs": [
        {
          "internalType": "bytes32",
          "name": "ticker",
          "type": "bytes32"
        },
        {
          "internalType": "address",
          "name": "tokenAddress",
          "type": "address"
        }
      ],
      "stateMutability": "view",
      "type": "function"
    },
    {
      "inputs": [
        {
          "internalType": "address",
          "name": "newOwner",
          "type": "address"
        }
      ],
      "name": "transferOwnership",
      "outputs": [],
      "stateMutability": "nonpayable",
      "type": "function"
    },
    {
      "inputs": [
        {
          "internalType": "uint256",
          "name": "amount",
          "type": "uint256"
        }
      ],
      "name": "withdraw",
      "outputs": [],
      "stateMutability": "nonpayable",
      "type": "function"
    },
    {
      "inputs": [
        {
          "internalType": "uint256",
          "name": "amount",
          "type": "uint256"
        },
        {
          "internalType": "bytes32",
          "name": "ticker",
          "type": "bytes32"
        }
      ],
      "name": "withdraw",
      "outputs": [],
      "stateMutability": "nonpayable",
      "type": "function"
    },
    {
      "inputs": [
        {
          "internalType": "bytes32",
          "name": "tickerTo",
          "type": "bytes32"
        },
        {
          "internalType": "bytes32",
          "name": "tickerFrom",
          "type": "bytes32"
        }
      ],
      "name": "addPair",
      "outputs": [],
      "stateMutability": "nonpayable",
      "type": "function"
    },
    {
      "inputs": [
        {
          "internalType": "bytes32",
          "name": "tickerTo",
          "type": "bytes32"
        },
        {
          "internalType": "bytes32",
          "name": "tickerFrom",
          "type": "bytes32"
        }
      ],
      "name": "removePair",
      "outputs": [],
      "stateMutability": "nonpayable",
      "type": "function"
    },
    {
      "inputs": [
        {
          "internalType": "enum OrderBook.Side",
          "name": "side",
          "type": "uint8"
        },
        {
          "internalType": "enum OrderBook.OrderType",
          "name": "orderType",
          "type": "uint8"
        },
        {
          "internalType": "bytes32",
          "name": "tickerTo",
          "type": "bytes32"
        },
        {
          "internalType": "bytes32",
          "name": "tickerFrom",
          "type": "bytes32"
        },
        {
          "internalType": "uint256",
          "name": "price",
          "type": "uint256"
        },
        {
          "internalType": "uint256",
          "name": "amount",
          "type": "uint256"
        }
      ],
      "name": "createOrder",
      "outputs": [
        {
          "internalType": "uint256",
          "name": "",
          "type": "uint256"
        }
      ],
      "stateMutability": "nonpayable",
      "type": "function"
    },
    {
      "inputs": [
        {
          "internalType": "uint256",
          "name": "orderId",
          "type": "uint256"
        },
        {
          "internalType": "enum OrderBook.Side",
          "name": "side",
          "type": "uint8"
        },
        {
          "internalType": "bytes32",
          "name": "tickerTo",
          "type": "bytes32"
        },
        {
          "internalType": "bytes32",
          "name": "tickerFrom",
          "type": "bytes32"
        }
      ],
      "name": "cancelOrder",
      "outputs": [],
      "stateMutability": "nonpayable",
      "type": "function"
    },
    {
      "inputs": [
        {
          "internalType": "uint256",
          "name": "orderId",
          "type": "uint256"
        },
        {
          "internalType": "enum OrderBook.Side",
          "name": "side",
          "type": "uint8"
        },
        {
          "internalType": "bytes32",
          "name": "tickerTo",
          "type": "bytes32"
        },
        {
          "internalType": "bytes32",
          "name": "tickerFrom",
          "type": "bytes32"
        }
      ],
      "name": "getOrder",
      "outputs": [
        {
          "components": [
            {
              "internalType": "uint256",
              "name": "id",
              "type": "uint256"
            },
            {
              "internalType": "bool",
              "name": "isActive",
              "type": "bool"
            },
            {
              "internalType": "enum OrderBook.Side",
              "name": "side",
              "type": "uint8"
            },
            {
              "internalType": "enum OrderBook.OrderType",
              "name": "orderType",
              "type": "uint8"
            },
            {
              "internalType": "address",
              "name": "trader",
              "type": "address"
            },
            {
              "internalType": "bytes32",
              "name": "ticker1",
              "type": "bytes32"
            },
            {
              "internalType": "bytes32",
              "name": "ticker2",
              "type": "bytes32"
            },
            {
              "internalType": "uint256",
              "name": "amount",
              "type": "uint256"
            },
            {
              "internalType": "uint256",
              "name": "price",
              "type": "uint256"
            },
            {
              "internalType": "uint256",
              "name": "filled",
              "type": "uint256"
            }
          ],
          "internalType": "struct OrderBook.Order",
          "name": "order",
          "type": "tuple"
        }
      ],
      "stateMutability": "view",
      "type": "function"
    },
    {
      "inputs": [
        {
          "internalType": "enum OrderBook.Side",
          "name": "side",
          "type": "uint8"
        },
        {
          "internalType": "bytes32",
          "name": "tickerTo",
          "type": "bytes32"
        },
        {
          "internalType": "bytes32",
          "name": "tickerFrom",
          "type": "bytes32"
        }
      ],
      "name": "getOrderBook",
      "outputs": [
        {
          "components": [
            {
              "internalType": "uint256",
              "name": "id",
              "type": "uint256"
            },
            {
              "internalType": "bool",
              "name": "isActive",
              "type": "bool"
            },
            {
              "internalType": "enum OrderBook.Side",
              "name": "side",
              "type": "uint8"
            },
            {
              "internalType": "enum OrderBook.OrderType",
              "name": "orderType",
              "type": "uint8"
            },
            {
              "internalType": "address",
              "name": "trader",
              "type": "address"
            },
            {
              "internalType": "bytes32",
              "name": "ticker1",
              "type": "bytes32"
            },
            {
              "internalType": "bytes32",
              "name": "ticker2",
              "type": "bytes32"
            },
            {
              "internalType": "uint256",
              "name": "amount",
              "type": "uint256"
            },
            {
              "internalType": "uint256",
              "name": "price",
              "type": "uint256"
            },
            {
              "internalType": "uint256",
              "name": "filled",
              "type": "uint256"
            }
          ],
          "internalType": "struct OrderBook.Order[]",
          "name": "",
          "type": "tuple[]"
        }
      ],
      "stateMutability": "view",
      "type": "function"
    },
    {
      "inputs": [
        {
          "internalType": "enum OrderBook.Side",
          "name": "side",
          "type": "uint8"
        },
        {
          "internalType": "bytes32",
          "name": "tickerTo",
          "type": "bytes32"
        },
        {
          "internalType": "bytes32",
          "name": "tickerFrom",
          "type": "bytes32"
        }
      ],
      "name": "getMarketPrice",
      "outputs": [
        {
          "internalType": "uint256",
          "name": "",
          "type": "uint256"
        }
      ],
      "stateMutability": "view",
      "type": "function"
    }
  ],
  "bytecode": "0x608060405260006005553480156200001657600080fd5b50620000376200002b6200003d60201b60201c565b6200004560201b60201c565b62000109565b600033905090565b60008060009054906101000a900473ffffffffffffffffffffffffffffffffffffffff169050816000806101000a81548173ffffffffffffffffffffffffffffffffffffffff021916908373ffffffffffffffffffffffffffffffffffffffff1602179055508173ffffffffffffffffffffffffffffffffffffffff168173ffffffffffffffffffffffffffffffffffffffff167f8be0079c531659141344cd1fd0a4f28419497f9722a3daafe3b4186f6b6457e060405160405180910390a35050565b6158e680620001196000396000f3fe60806040526004361061011f5760003560e01c8063715018a6116100a0578063ac3b759411610064578063ac3b75941461040b578063c9630cb014610434578063d0e30db01461045d578063e98e8dc914610467578063f2fde38b146104a45761011f565b8063715018a6146103395780638da5cb5b146103505780639776aacf1461037b5780639ead7222146103a4578063a8d2021a146103e25761011f565b80632d9a1a49116100e75780632d9a1a491461022f5780632e1a7d4d146102585780632ecb2145146102815780633cf952de146102be578063667cb4ba146102fb5761011f565b80631c409b0d146101245780631f14df6914610161578063217f97931461019e578063273cbaa0146101c757806328ed30ae146101f2575b600080fd5b34801561013057600080fd5b5061014b60048036038101906101469190614498565b6104cd565b60405161015891906147aa565b60405180910390f35b34801561016d57600080fd5b50610188600480360381019061018391906147f8565b610558565b6040516101959190614847565b60405180910390f35b3480156101aa57600080fd5b506101c560048036038101906101c0919061488e565b61057d565b005b3480156101d357600080fd5b506101dc610604565b6040516101e991906149d3565b60405180910390f35b3480156101fe57600080fd5b5061021960048036038101906102149190614498565b6106c3565b6040516102269190614847565b60405180910390f35b34801561023b57600080fd5b50610256600480360381019061025191906149f5565b61074e565b005b34801561026457600080fd5b5061027f600480360381019061027a9190614a35565b61080b565b005b34801561028d57600080fd5b506102a860048036038101906102a39190614a87565b610a08565b6040516102b59190614847565b60405180910390f35b3480156102ca57600080fd5b506102e560048036038101906102e0919061488e565b610c73565b6040516102f29190614be0565b60405180910390f35b34801561030757600080fd5b50610322600480360381019061031d9190614bfc565b610d06565b604051610330929190614c47565b60405180910390f35b34801561034557600080fd5b5061034e610d4a565b005b34801561035c57600080fd5b50610365610dd2565b6040516103729190614c70565b60405180910390f35b34801561038757600080fd5b506103a2600480360381019061039d9190614c8b565b610dfb565b005b3480156103b057600080fd5b506103cb60048036038101906103c69190614a35565b610fbe565b6040516103d9929190614c47565b60405180910390f35b3480156103ee57600080fd5b5061040960048036038101906104049190614ccb565b611012565b005b34801561041757600080fd5b50610432600480360381019061042d91906149f5565b6112bd565b005b34801561044057600080fd5b5061045b60048036038101906104569190614ccb565b61137a565b005b610465611639565b005b34801561047357600080fd5b5061048e600480360381019061048991906149f5565b611734565b60405161049b9190614d1a565b60405180910390f35b3480156104b057600080fd5b506104cb60048036038101906104c69190614d35565b611763565b005b6060828260066000838152602001908152602001600020600082815260200190815260200160002060009054906101000a900460ff16610542576040517f08c379a000000000000000000000000000000000000000000000000000000000815260040161053990614dbf565b60405180910390fd5b61054d86868661185b565b925050509392505050565b6003602052816000526040600020602052806000526040600020600091509150505481565b818160066000838152602001908152602001600020600082815260200190815260200160002060009054906101000a900460ff166105f0576040517f08c379a00000000000000000000000000000000000000000000000000000000081526004016105e790614dbf565b60405180910390fd5b6105fc86868686611a39565b505050505050565b60606002805480602002602001604051908101604052809291908181526020016000905b828210156106ba5783829060005260206000209060020201604051806040016040529081600082015481526020016001820160009054906101000a900473ffffffffffffffffffffffffffffffffffffffff1673ffffffffffffffffffffffffffffffffffffffff1673ffffffffffffffffffffffffffffffffffffffff168152505081526020019060010190610628565b50505050905090565b6000828260066000838152602001908152602001600020600082815260200190815260200160002060009054906101000a900460ff16610738576040517f08c379a000000000000000000000000000000000000000000000000000000000815260040161072f90614dbf565b60405180910390fd5b610743868686611d26565b925050509392505050565b610756611eba565b73ffffffffffffffffffffffffffffffffffffffff16610774610dd2565b73ffffffffffffffffffffffffffffffffffffffff16146107ca576040517f08c379a00000000000000000000000000000000000000000000000000000000081526004016107c190614e2b565b60405180910390fd5b600160066000848152602001908152602001600020600083815260200190815260200160002060006101000a81548160ff0219169083151502179055505050565b80600360003373ffffffffffffffffffffffffffffffffffffffff1673ffffffffffffffffffffffffffffffffffffffff16815260200190815260200160002060007f455448000000000000000000000000000000000000000000000000000000000060001b81526020019081526020016000205410156108c1576040517f08c379a00000000000000000000000000000000000000000000000000000000081526004016108b890614ebd565b60405180910390fd5b61094781600360003373ffffffffffffffffffffffffffffffffffffffff1673ffffffffffffffffffffffffffffffffffffffff16815260200190815260200160002060007f455448000000000000000000000000000000000000000000000000000000000060001b815260200190815260200160002054611ec290919063ffffffff16565b600360003373ffffffffffffffffffffffffffffffffffffffff1673ffffffffffffffffffffffffffffffffffffffff16815260200190815260200160002060007f455448000000000000000000000000000000000000000000000000000000000060001b8152602001908152602001600020819055503373ffffffffffffffffffffffffffffffffffffffff166108fc829081150290604051600060405180830381858888f19350505050158015610a04573d6000803e3d6000fd5b5050565b6000848460066000838152602001908152602001600020600082815260200190815260200160002060009054906101000a900460ff16610a7d576040517f08c379a0000000000000000000000000000000000000000000000000000000008152600401610a7490614dbf565b60405180910390fd5b60006001811115610a9157610a9061454b565b5b896001811115610aa457610aa361454b565b5b1415610b53576000600360003373ffffffffffffffffffffffffffffffffffffffff1673ffffffffffffffffffffffffffffffffffffffff16815260200190815260200160002060008881526020019081526020016000205490508486610b0b9190614f0c565b811015610b4d576040517f08c379a0000000000000000000000000000000000000000000000000000000008152600401610b4490614fd8565b60405180910390fd5b50610bed565b6000600360003373ffffffffffffffffffffffffffffffffffffffff1673ffffffffffffffffffffffffffffffffffffffff168152602001908152602001600020600089815260200190815260200160002054905084811015610beb576040517f08c379a0000000000000000000000000000000000000000000000000000000008152600401610be29061506a565b60405180910390fd5b505b6000610bfd8a8a8a8a8a8a611ed8565b90503373ffffffffffffffffffffffffffffffffffffffff167f8a0333324a3492150ffba30d2434f066fdf11da1d9b00c374439fb1ad62261d1828c8c8c8c8c8c604051610c5197969594939291906150a8565b60405180910390a2610c63888861306e565b8093505050509695505050505050565b610c7b6143a3565b828260066000838152602001908152602001600020600082815260200190815260200160002060009054906101000a900460ff16610cee576040517f08c379a0000000000000000000000000000000000000000000000000000000008152600401610ce590614dbf565b60405180910390fd5b610cfa87878787613c21565b92505050949350505050565b60016020528060005260406000206000915090508060000154908060010160009054906101000a900473ffffffffffffffffffffffffffffffffffffffff16905082565b610d52611eba565b73ffffffffffffffffffffffffffffffffffffffff16610d70610dd2565b73ffffffffffffffffffffffffffffffffffffffff1614610dc6576040517f08c379a0000000000000000000000000000000000000000000000000000000008152600401610dbd90614e2b565b60405180910390fd5b610dd06000613f1f565b565b60008060009054906101000a900473ffffffffffffffffffffffffffffffffffffffff16905090565b610e03611eba565b73ffffffffffffffffffffffffffffffffffffffff16610e21610dd2565b73ffffffffffffffffffffffffffffffffffffffff1614610e77576040517f08c379a0000000000000000000000000000000000000000000000000000000008152600401610e6e90614e2b565b60405180910390fd5b60405180604001604052808381526020018273ffffffffffffffffffffffffffffffffffffffff16815250600160008481526020019081526020016000206000820151816000015560208201518160010160006101000a81548173ffffffffffffffffffffffffffffffffffffffff021916908373ffffffffffffffffffffffffffffffffffffffff1602179055509050506002600160008481526020019081526020016000209080600181540180825580915050600190039060005260206000209060020201600090919091909150600082015481600001556001820160009054906101000a900473ffffffffffffffffffffffffffffffffffffffff168160010160006101000a81548173ffffffffffffffffffffffffffffffffffffffff021916908373ffffffffffffffffffffffffffffffffffffffff16021790555050505050565b60028181548110610fce57600080fd5b90600052602060002090600202016000915090508060000154908060010160009054906101000a900473ffffffffffffffffffffffffffffffffffffffff16905082565b80600073ffffffffffffffffffffffffffffffffffffffff166001600083815260200190815260200160002060010160009054906101000a900473ffffffffffffffffffffffffffffffffffffffff1673ffffffffffffffffffffffffffffffffffffffff1614156110b9576040517f08c379a00000000000000000000000000000000000000000000000000000000081526004016110b090615163565b60405180910390fd5b82600360003373ffffffffffffffffffffffffffffffffffffffff1673ffffffffffffffffffffffffffffffffffffffff168152602001908152602001600020600084815260200190815260200160002054101561114c576040517f08c379a0000000000000000000000000000000000000000000000000000000008152600401611143906151f5565b60405180910390fd5b6111af83600360003373ffffffffffffffffffffffffffffffffffffffff1673ffffffffffffffffffffffffffffffffffffffff168152602001908152602001600020600085815260200190815260200160002054611ec290919063ffffffff16565b600360003373ffffffffffffffffffffffffffffffffffffffff1673ffffffffffffffffffffffffffffffffffffffff1681526020019081526020016000206000848152602001908152602001600020819055506001600083815260200190815260200160002060010160009054906101000a900473ffffffffffffffffffffffffffffffffffffffff1673ffffffffffffffffffffffffffffffffffffffff1663a9059cbb33856040518363ffffffff1660e01b8152600401611274929190615215565b6020604051808303816000875af1158015611293573d6000803e3d6000fd5b505050506040513d601f19601f820116820180604052508101906112b7919061526a565b50505050565b6112c5611eba565b73ffffffffffffffffffffffffffffffffffffffff166112e3610dd2565b73ffffffffffffffffffffffffffffffffffffffff1614611339576040517f08c379a000000000000000000000000000000000000000000000000000000000815260040161133090614e2b565b60405180910390fd5b600060066000848152602001908152602001600020600083815260200190815260200160002060006101000a81548160ff0219169083151502179055505050565b80600073ffffffffffffffffffffffffffffffffffffffff166001600083815260200190815260200160002060010160009054906101000a900473ffffffffffffffffffffffffffffffffffffffff1673ffffffffffffffffffffffffffffffffffffffff161415611421576040517f08c379a000000000000000000000000000000000000000000000000000000000815260040161141890615163565b60405180910390fd5b3373ffffffffffffffffffffffffffffffffffffffff166001600084815260200190815260200160002060010160009054906101000a900473ffffffffffffffffffffffffffffffffffffffff1673ffffffffffffffffffffffffffffffffffffffff1614156114c6576040517f08c379a00000000000000000000000000000000000000000000000000000000081526004016114bd90615309565b60405180910390fd5b61152983600360003373ffffffffffffffffffffffffffffffffffffffff1673ffffffffffffffffffffffffffffffffffffffff168152602001908152602001600020600085815260200190815260200160002054613fe390919063ffffffff16565b600360003373ffffffffffffffffffffffffffffffffffffffff1673ffffffffffffffffffffffffffffffffffffffff1681526020019081526020016000206000848152602001908152602001600020819055506001600083815260200190815260200160002060010160009054906101000a900473ffffffffffffffffffffffffffffffffffffffff1673ffffffffffffffffffffffffffffffffffffffff166323b872dd3330866040518463ffffffff1660e01b81526004016115f093929190615329565b6020604051808303816000875af115801561160f573d6000803e3d6000fd5b505050506040513d601f19601f82011682018060405250810190611633919061526a565b50505050565b3373ffffffffffffffffffffffffffffffffffffffff163073ffffffffffffffffffffffffffffffffffffffff1614156116a8576040517f08c379a000000000000000000000000000000000000000000000000000000000815260040161169f906153d2565b60405180910390fd5b34600360003373ffffffffffffffffffffffffffffffffffffffff1673ffffffffffffffffffffffffffffffffffffffff16815260200190815260200160002060007f455448000000000000000000000000000000000000000000000000000000000060001b8152602001908152602001600020600082825461172b91906153f2565b92505081905550565b60066020528160005260406000206020528060005260406000206000915091509054906101000a900460ff1681565b61176b611eba565b73ffffffffffffffffffffffffffffffffffffffff16611789610dd2565b73ffffffffffffffffffffffffffffffffffffffff16146117df576040517f08c379a00000000000000000000000000000000000000000000000000000000081526004016117d690614e2b565b60405180910390fd5b600073ffffffffffffffffffffffffffffffffffffffff168173ffffffffffffffffffffffffffffffffffffffff16141561184f576040517f08c379a0000000000000000000000000000000000000000000000000000000008152600401611846906154ba565b60405180910390fd5b61185881613f1f565b50565b606060046000848152602001908152602001600020600083815260200190815260200160002060008560018111156118965761189561454b565b5b60018111156118a8576118a761454b565b5b8152602001908152602001600020805480602002602001604051908101604052809291908181526020016000905b82821015611a2c578382906000526020600020906007020160405180610140016040529081600082015481526020016001820160009054906101000a900460ff161515151581526020016001820160019054906101000a900460ff1660018111156119445761194361454b565b5b60018111156119565761195561454b565b5b81526020016001820160029054906101000a900460ff16600481111561197f5761197e61454b565b5b60048111156119915761199061454b565b5b81526020016001820160039054906101000a900473ffffffffffffffffffffffffffffffffffffffff1673ffffffffffffffffffffffffffffffffffffffff1673ffffffffffffffffffffffffffffffffffffffff16815260200160028201548152602001600382015481526020016004820154815260200160058201548152602001600682015481525050815260200190600101906118d6565b5050505090509392505050565b6005548410611a7d576040517f08c379a0000000000000000000000000000000000000000000000000000000008152600401611a7490615526565b60405180910390fd5b60005b6004600084815260200190815260200160002060008381526020019081526020016000206000856001811115611ab957611ab861454b565b5b6001811115611acb57611aca61454b565b5b815260200190815260200160002080549050811015611d1f57846004600085815260200190815260200160002060008481526020019081526020016000206000866001811115611b1e57611b1d61454b565b5b6001811115611b3057611b2f61454b565b5b81526020019081526020016000208281548110611b5057611b4f615546565b5b9060005260206000209060070201600001541415611d0c573373ffffffffffffffffffffffffffffffffffffffff166004600085815260200190815260200160002060008481526020019081526020016000206000866001811115611bb857611bb761454b565b5b6001811115611bca57611bc961454b565b5b81526020019081526020016000208281548110611bea57611be9615546565b5b906000526020600020906007020160010160039054906101000a900473ffffffffffffffffffffffffffffffffffffffff1673ffffffffffffffffffffffffffffffffffffffff1614611c72576040517f08c379a0000000000000000000000000000000000000000000000000000000008152600401611c69906155c1565b60405180910390fd5b60006004600085815260200190815260200160002060008481526020019081526020016000206000866001811115611cad57611cac61454b565b5b6001811115611cbf57611cbe61454b565b5b81526020019081526020016000208281548110611cdf57611cde615546565b5b906000526020600020906007020160010160006101000a81548160ff021916908315150217905550611d1f565b8080611d17906155e1565b915050611a80565b5050505050565b6000806004600085815260200190815260200160002060008481526020019081526020016000206000866001811115611d6257611d6161454b565b5b6001811115611d7457611d7361454b565b5b81526020019081526020016000208054905011611dc6576040517f08c379a0000000000000000000000000000000000000000000000000000000008152600401611dbd90615676565b60405180910390fd5b600060016004600086815260200190815260200160002060008581526020019081526020016000206000876001811115611e0357611e0261454b565b5b6001811115611e1557611e1461454b565b5b815260200190815260200160002080549050611e319190615696565b90506004600085815260200190815260200160002060008481526020019081526020016000206000866001811115611e6c57611e6b61454b565b5b6001811115611e7e57611e7d61454b565b5b81526020019081526020016000208181548110611e9e57611e9d615546565b5b9060005260206000209060070201600501549150509392505050565b600033905090565b60008183611ed09190615696565b905092915050565b6000808211611f1c576040517f08c379a0000000000000000000000000000000000000000000000000000000008152600401611f1390615716565b60405180910390fd5b60006004811115611f3057611f2f61454b565b5b866004811115611f4357611f4261454b565b5b14611f8c5760008311611f8b576040517f08c379a0000000000000000000000000000000000000000000000000000000008152600401611f82906157a8565b60405180910390fd5b5b60006004811115611fa057611f9f61454b565b5b866004811115611fb357611fb261454b565b5b1415612001576000806001811115611fce57611fcd61454b565b5b886001811115611fe157611fe061454b565b5b14611fed576000611ff0565b60015b9050611ffd8187876106c3565b9350505b600060405180610140016040528060055481526020016001151581526020018960018111156120335761203261454b565b5b815260200188600481111561204b5761204a61454b565b5b81526020013373ffffffffffffffffffffffffffffffffffffffff168152602001878152602001868152602001848152602001858152602001600081525090506005600081548092919061209e906155e1565b919050555060046000878152602001908152602001600020600086815260200190815260200160002060008960018111156120dc576120db61454b565b5b60018111156120ee576120ed61454b565b5b81526020019081526020016000208190806001815401808255809150506001900390600052602060002090600702016000909190919091506000820151816000015560208201518160010160006101000a81548160ff02191690831515021790555060408201518160010160016101000a81548160ff0219169083600181111561217b5761217a61454b565b5b021790555060608201518160010160026101000a81548160ff021916908360048111156121ab576121aa61454b565b5b021790555060808201518160010160036101000a81548173ffffffffffffffffffffffffffffffffffffffff021916908373ffffffffffffffffffffffffffffffffffffffff16021790555060a0820151816002015560c0820151816003015560e08201518160040155610100820151816005015561012082015181600601555050600060046000888152602001908152602001600020600087815260200190815260200160002060008a60018111156122685761226761454b565b5b600181111561227a5761227961454b565b5b8152602001908152602001600020805490509050600060018111156122a2576122a161454b565b5b8960018111156122b5576122b461454b565b5b14156129885760006001826122ca9190615696565b90505b60008111156129825760046000898152602001908152602001600020600088815260200190815260200160002060008b600181111561230f5761230e61454b565b5b60018111156123215761232061454b565b5b8152602001908152602001600020818154811061234157612340615546565b5b906000526020600020906007020160050154600460008a8152602001908152602001600020600089815260200190815260200160002060008c600181111561238c5761238b61454b565b5b600181111561239e5761239d61454b565b5b81526020019081526020016000206001836123b99190615696565b815481106123ca576123c9615546565b5b906000526020600020906007020160050154111561296a5760046000898152602001908152602001600020600088815260200190815260200160002060008b600181111561241b5761241a61454b565b5b600181111561242d5761242c61454b565b5b8152602001908152602001600020818154811061244d5761244c615546565b5b906000526020600020906007020160405180610140016040529081600082015481526020016001820160009054906101000a900460ff161515151581526020016001820160019054906101000a900460ff1660018111156124b1576124b061454b565b5b60018111156124c3576124c261454b565b5b81526020016001820160029054906101000a900460ff1660048111156124ec576124eb61454b565b5b60048111156124fe576124fd61454b565b5b81526020016001820160039054906101000a900473ffffffffffffffffffffffffffffffffffffffff1673ffffffffffffffffffffffffffffffffffffffff1673ffffffffffffffffffffffffffffffffffffffff16815260200160028201548152602001600382015481526020016004820154815260200160058201548152602001600682015481525050925060046000898152602001908152602001600020600088815260200190815260200160002060008b60018111156125c5576125c461454b565b5b60018111156125d7576125d661454b565b5b81526020019081526020016000206001826125f29190615696565b8154811061260357612602615546565b5b9060005260206000209060070201600460008a8152602001908152602001600020600089815260200190815260200160002060008c600181111561264a5761264961454b565b5b600181111561265c5761265b61454b565b5b8152602001908152602001600020828154811061267c5761267b615546565b5b9060005260206000209060070201600082015481600001556001820160009054906101000a900460ff168160010160006101000a81548160ff0219169083151502179055506001820160019054906101000a900460ff168160010160016101000a81548160ff021916908360018111156126f9576126f861454b565b5b02179055506001820160029054906101000a900460ff168160010160026101000a81548160ff021916908360048111156127365761273561454b565b5b02179055506001820160039054906101000a900473ffffffffffffffffffffffffffffffffffffffff168160010160036101000a81548173ffffffffffffffffffffffffffffffffffffffff021916908373ffffffffffffffffffffffffffffffffffffffff160217905550600282015481600201556003820154816003015560048201548160040155600582015481600501556006820154816006015590505082600460008a8152602001908152602001600020600089815260200190815260200160002060008c60018111156128115761281061454b565b5b60018111156128235761282261454b565b5b815260200190815260200160002060018361283e9190615696565b8154811061284f5761284e615546565b5b90600052602060002090600702016000820151816000015560208201518160010160006101000a81548160ff02191690831515021790555060408201518160010160016101000a81548160ff021916908360018111156128b2576128b161454b565b5b021790555060608201518160010160026101000a81548160ff021916908360048111156128e2576128e161454b565b5b021790555060808201518160010160036101000a81548173ffffffffffffffffffffffffffffffffffffffff021916908373ffffffffffffffffffffffffffffffffffffffff16021790555060a0820151816002015560c0820151816003015560e082015181600401556101008201518160050155610120820151816006015590505061296f565b612982565b808061297a906157c8565b9150506122cd565b50613051565b60006001826129979190615696565b90505b600081111561304f5760046000898152602001908152602001600020600088815260200190815260200160002060008b60018111156129dc576129db61454b565b5b60018111156129ee576129ed61454b565b5b81526020019081526020016000208181548110612a0e57612a0d615546565b5b906000526020600020906007020160050154600460008a8152602001908152602001600020600089815260200190815260200160002060008c6001811115612a5957612a5861454b565b5b6001811115612a6b57612a6a61454b565b5b8152602001908152602001600020600183612a869190615696565b81548110612a9757612a96615546565b5b90600052602060002090600702016005015410156130375760046000898152602001908152602001600020600088815260200190815260200160002060008b6001811115612ae857612ae761454b565b5b6001811115612afa57612af961454b565b5b81526020019081526020016000208181548110612b1a57612b19615546565b5b906000526020600020906007020160405180610140016040529081600082015481526020016001820160009054906101000a900460ff161515151581526020016001820160019054906101000a900460ff166001811115612b7e57612b7d61454b565b5b6001811115612b9057612b8f61454b565b5b81526020016001820160029054906101000a900460ff166004811115612bb957612bb861454b565b5b6004811115612bcb57612bca61454b565b5b81526020016001820160039054906101000a900473ffffffffffffffffffffffffffffffffffffffff1673ffffffffffffffffffffffffffffffffffffffff1673ffffffffffffffffffffffffffffffffffffffff16815260200160028201548152602001600382015481526020016004820154815260200160058201548152602001600682015481525050925060046000898152602001908152602001600020600088815260200190815260200160002060008b6001811115612c9257612c9161454b565b5b6001811115612ca457612ca361454b565b5b8152602001908152602001600020600182612cbf9190615696565b81548110612cd057612ccf615546565b5b9060005260206000209060070201600460008a8152602001908152602001600020600089815260200190815260200160002060008c6001811115612d1757612d1661454b565b5b6001811115612d2957612d2861454b565b5b81526020019081526020016000208281548110612d4957612d48615546565b5b9060005260206000209060070201600082015481600001556001820160009054906101000a900460ff168160010160006101000a81548160ff0219169083151502179055506001820160019054906101000a900460ff168160010160016101000a81548160ff02191690836001811115612dc657612dc561454b565b5b02179055506001820160029054906101000a900460ff168160010160026101000a81548160ff02191690836004811115612e0357612e0261454b565b5b02179055506001820160039054906101000a900473ffffffffffffffffffffffffffffffffffffffff168160010160036101000a81548173ffffffffffffffffffffffffffffffffffffffff021916908373ffffffffffffffffffffffffffffffffffffffff160217905550600282015481600201556003820154816003015560048201548160040155600582015481600501556006820154816006015590505082600460008a8152602001908152602001600020600089815260200190815260200160002060008c6001811115612ede57612edd61454b565b5b6001811115612ef057612eef61454b565b5b8152602001908152602001600020600183612f0b9190615696565b81548110612f1c57612f1b615546565b5b90600052602060002090600702016000820151816000015560208201518160010160006101000a81548160ff02191690831515021790555060408201518160010160016101000a81548160ff02191690836001811115612f7f57612f7e61454b565b5b021790555060608201518160010160026101000a81548160ff02191690836004811115612faf57612fae61454b565b5b021790555060808201518160010160036101000a81548173ffffffffffffffffffffffffffffffffffffffff021916908373ffffffffffffffffffffffffffffffffffffffff16021790555060a0820151816002015560c0820151816003015560e082015181600401556101008201518160050155610120820151816006015590505061303c565b61304f565b8080613047906157c8565b91505061299a565b505b60016005546130609190615696565b925050509695505050505050565b5b600060046000848152602001908152602001600020600083815260200190815260200160002060006001808111156130aa576130a961454b565b5b60018111156130bc576130bb61454b565b5b8152602001908152602001600020805490501180156131375750600060046000848152602001908152602001600020600083815260200190815260200160002060008060018111156131115761311061454b565b5b60018111156131235761312261454b565b5b815260200190815260200160002080549050115b15613c1d576000600160046000858152602001908152602001600020600084815260200190815260200160002060008060018111156131795761317861454b565b5b600181111561318b5761318a61454b565b5b8152602001908152602001600020805490506131a79190615696565b9050600060046000858152602001908152602001600020600084815260200190815260200160002060008060018111156131e4576131e361454b565b5b60018111156131f6576131f561454b565b5b8152602001908152602001600020828154811061321657613215615546565b5b906000526020600020906007020190506000600160046000878152602001908152602001600020600086815260200190815260200160002060006001808111156132635761326261454b565b5b60018111156132755761327461454b565b5b8152602001908152602001600020805490506132919190615696565b9050600060046000878152602001908152602001600020600086815260200190815260200160002060006001808111156132ce576132cd61454b565b5b60018111156132e0576132df61454b565b5b81526020019081526020016000208281548110613300576132ff615546565b5b906000526020600020906007020190508260010160009054906101000a900460ff166133335761333260008787613ff9565b5b8060010160009054906101000a900460ff166133565761335560018787613ff9565b5b8060010160009054906101000a900460ff16158061338357508260010160009054906101000a900460ff16155b15613391575050505061306f565b600060048111156133a5576133a461454b565b5b8360010160029054906101000a900460ff1660048111156133c9576133c861454b565b5b14801561340b5750600060048111156133e5576133e461454b565b5b8160010160029054906101000a900460ff1660048111156134095761340861454b565b5b145b1561342d578060050154836005015414613428576134276157f2565b5b61354f565b600060048111156134415761344061454b565b5b8360010160029054906101000a900460ff1660048111156134655761346461454b565b5b141580156134a85750600060048111156134825761348161454b565b5b8160010160029054906101000a900460ff1660048111156134a6576134a561454b565b5b145b156134bf578260050154816005018190555061354e565b600060048111156134d3576134d261454b565b5b8360010160029054906101000a900460ff1660048111156134f7576134f661454b565b5b14801561353a5750600060048111156135135761351261454b565b5b8160010160029054906101000a900460ff1660048111156135375761353661454b565b5b14155b1561354d57806005015483600501819055505b5b5b8060050154836005015410156135685750505050613c1d565b60016005546135779190615696565b83600001541480156135bd57506004808111156135975761359661454b565b5b8360010160029054906101000a900460ff1660048111156135bb576135ba61454b565b5b145b156135d7576135ce60008787613ff9565b5050505061306f565b60016005546135e69190615696565b836000015414801561362c57506004808111156136065761360561454b565b5b8160010160029054906101000a900460ff16600481111561362a5761362961454b565b5b145b156136465761363d60018787613ff9565b5050505061306f565b60008360000154826000015410613661578360050154613667565b81600501545b905060008460060154856004015461367f9190615696565b90506000836006015484600401546136979190615696565b905060006136a5838361438a565b9050600084826136b59190614f0c565b90506000600360048111156136cd576136cc61454b565b5b8960010160029054906101000a900460ff1660048111156136f1576136f061454b565b5b148015613702575082896004015414155b156137185761371360008d8d613ff9565b600190505b6003600481111561372c5761372b61454b565b5b8760010160029054906101000a900460ff1660048111156137505761374f61454b565b5b148015613761575082876004015414155b156137775761377260018d8d613ff9565b600190505b801561378c575050505050505050505061306f565b82600360008b60010160039054906101000a900473ffffffffffffffffffffffffffffffffffffffff1673ffffffffffffffffffffffffffffffffffffffff1673ffffffffffffffffffffffffffffffffffffffff16815260200190815260200160002060008e8152602001908152602001600020600082825461381091906153f2565b9250508190555081600360008b60010160039054906101000a900473ffffffffffffffffffffffffffffffffffffffff1673ffffffffffffffffffffffffffffffffffffffff1673ffffffffffffffffffffffffffffffffffffffff16815260200190815260200160002060008d8152602001908152602001600020600082825461389b9190615696565b9250508190555082600360008960010160039054906101000a900473ffffffffffffffffffffffffffffffffffffffff1673ffffffffffffffffffffffffffffffffffffffff1673ffffffffffffffffffffffffffffffffffffffff16815260200190815260200160002060008e815260200190815260200160002060008282546139269190615696565b9250508190555081600360008960010160039054906101000a900473ffffffffffffffffffffffffffffffffffffffff1673ffffffffffffffffffffffffffffffffffffffff1673ffffffffffffffffffffffffffffffffffffffff16815260200190815260200160002060008d815260200190815260200160002060008282546139b191906153f2565b92505081905550828960060160008282546139cc91906153f2565b92505081905550828760060160008282546139e791906153f2565b92505081905550886004015489600601541115613a0757613a066157f2565b5b866004015487600601541115613a2057613a1f6157f2565b5b8860010160039054906101000a900473ffffffffffffffffffffffffffffffffffffffff1673ffffffffffffffffffffffffffffffffffffffff167f36a54e61f475a84cd4a5c3b403be29e6101b05ec843b61fb97c3e123ff59b3f48a600001548886604051613a9293929190615821565b60405180910390a28660010160039054906101000a900473ffffffffffffffffffffffffffffffffffffffff1673ffffffffffffffffffffffffffffffffffffffff167f36a54e61f475a84cd4a5c3b403be29e6101b05ec843b61fb97c3e123ff59b3f488600001548886604051613b0c93929190615821565b60405180910390a2886004015489600601541415613b3557613b3060008d8d613ff9565b613b91565b60026004811115613b4957613b4861454b565b5b8960010160029054906101000a900460ff166004811115613b6d57613b6c61454b565b5b148015613b7e575060008960060154115b15613b9057613b8f60008d8d613ff9565b5b5b866004015487600601541415613bb257613bad60018d8d613ff9565b613c0e565b60026004811115613bc657613bc561454b565b5b8760010160029054906101000a900460ff166004811115613bea57613be961454b565b5b148015613bfb575060008760060154115b15613c0d57613c0c60018d8d613ff9565b5b5b5050505050505050505061306f565b5050565b613c296143a3565b6005548510613c6d576040517f08c379a0000000000000000000000000000000000000000000000000000000008152600401613c6490615526565b60405180910390fd5b60005b6004600085815260200190815260200160002060008481526020019081526020016000206000866001811115613ca957613ca861454b565b5b6001811115613cbb57613cba61454b565b5b815260200190815260200160002080549050811015613f1657856004600086815260200190815260200160002060008581526020019081526020016000206000876001811115613d0e57613d0d61454b565b5b6001811115613d2057613d1f61454b565b5b81526020019081526020016000208281548110613d4057613d3f615546565b5b9060005260206000209060070201600001541415613f03576004600085815260200190815260200160002060008481526020019081526020016000206000866001811115613d9157613d9061454b565b5b6001811115613da357613da261454b565b5b81526020019081526020016000208181548110613dc357613dc2615546565b5b906000526020600020906007020160405180610140016040529081600082015481526020016001820160009054906101000a900460ff161515151581526020016001820160019054906101000a900460ff166001811115613e2757613e2661454b565b5b6001811115613e3957613e3861454b565b5b81526020016001820160029054906101000a900460ff166004811115613e6257613e6161454b565b5b6004811115613e7457613e7361454b565b5b81526020016001820160039054906101000a900473ffffffffffffffffffffffffffffffffffffffff1673ffffffffffffffffffffffffffffffffffffffff1673ffffffffffffffffffffffffffffffffffffffff1681526020016002820154815260200160038201548152602001600482015481526020016005820154815260200160068201548152505091505b8080613f0e906155e1565b915050613c70565b50949350505050565b60008060009054906101000a900473ffffffffffffffffffffffffffffffffffffffff169050816000806101000a81548173ffffffffffffffffffffffffffffffffffffffff021916908373ffffffffffffffffffffffffffffffffffffffff1602179055508173ffffffffffffffffffffffffffffffffffffffff168173ffffffffffffffffffffffffffffffffffffffff167f8be0079c531659141344cd1fd0a4f28419497f9722a3daafe3b4186f6b6457e060405160405180910390a35050565b60008183613ff191906153f2565b905092915050565b6000600160046000858152602001908152602001600020600084815260200190815260200160002060008660018111156140365761403561454b565b5b60018111156140485761404761454b565b5b8152602001908152602001600020805490506140649190615696565b9050600060046000858152602001908152602001600020600084815260200190815260200160002060008660018111156140a1576140a061454b565b5b60018111156140b3576140b261454b565b5b815260200190815260200160002082815481106140d3576140d2615546565b5b906000526020600020906007020190508060010160039054906101000a900473ffffffffffffffffffffffffffffffffffffffff1673ffffffffffffffffffffffffffffffffffffffff167f26af14115f21b05d36ec1e7593fc9f481190ee553c5598923b71d87b26c41c0682600001548360060154604051614157929190615858565b60405180910390a260046000858152602001908152602001600020600084815260200190815260200160002060008660018111156141985761419761454b565b5b60018111156141aa576141a961454b565b5b815260200190815260200160002082815481106141ca576141c9615546565b5b90600052602060002090600702016000808201600090556001820160006101000a81549060ff02191690556001820160016101000a81549060ff02191690556001820160026101000a81549060ff02191690556001820160036101000a81549073ffffffffffffffffffffffffffffffffffffffff021916905560028201600090556003820160009055600482016000905560058201600090556006820160009055505060046000858152602001908152602001600020600084815260200190815260200160002060008660018111156142a7576142a661454b565b5b60018111156142b9576142b861454b565b5b81526020019081526020016000208054806142d7576142d6615881565b5b60019003818190600052602060002090600702016000808201600090556001820160006101000a81549060ff02191690556001820160016101000a81549060ff02191690556001820160026101000a81549060ff02191690556001820160036101000a81549073ffffffffffffffffffffffffffffffffffffffff021916905560028201600090556003820160009055600482016000905560058201600090556006820160009055505090555050505050565b6000818310614399578161439b565b825b905092915050565b60405180610140016040528060008152602001600015158152602001600060018111156143d3576143d261454b565b5b8152602001600060048111156143ec576143eb61454b565b5b8152602001600073ffffffffffffffffffffffffffffffffffffffff16815260200160008019168152602001600080191681526020016000815260200160008152602001600081525090565b600080fd5b6002811061444a57600080fd5b50565b60008135905061445c8161443d565b92915050565b6000819050919050565b61447581614462565b811461448057600080fd5b50565b6000813590506144928161446c565b92915050565b6000806000606084860312156144b1576144b0614438565b5b60006144bf8682870161444d565b93505060206144d086828701614483565b92505060406144e186828701614483565b9150509250925092565b600081519050919050565b600082825260208201905092915050565b6000819050602082019050919050565b6000819050919050565b61452a81614517565b82525050565b60008115159050919050565b61454581614530565b82525050565b7f4e487b7100000000000000000000000000000000000000000000000000000000600052602160045260246000fd5b6002811061458b5761458a61454b565b5b50565b600081905061459c8261457a565b919050565b60006145ac8261458e565b9050919050565b6145bc816145a1565b82525050565b600581106145d3576145d261454b565b5b50565b60008190506145e4826145c2565b919050565b60006145f4826145d6565b9050919050565b614604816145e9565b82525050565b600073ffffffffffffffffffffffffffffffffffffffff82169050919050565b60006146358261460a565b9050919050565b6146458161462a565b82525050565b61465481614462565b82525050565b610140820160008201516146716000850182614521565b506020820151614684602085018261453c565b50604082015161469760408501826145b3565b5060608201516146aa60608501826145fb565b5060808201516146bd608085018261463c565b5060a08201516146d060a085018261464b565b5060c08201516146e360c085018261464b565b5060e08201516146f660e0850182614521565b5061010082015161470b610100850182614521565b50610120820151614720610120850182614521565b50505050565b6000614732838361465a565b6101408301905092915050565b6000602082019050919050565b6000614757826144eb565b61476181856144f6565b935061476c83614507565b8060005b8381101561479d5781516147848882614726565b975061478f8361473f565b925050600181019050614770565b5085935050505092915050565b600060208201905081810360008301526147c4818461474c565b905092915050565b6147d58161462a565b81146147e057600080fd5b50565b6000813590506147f2816147cc565b92915050565b6000806040838503121561480f5761480e614438565b5b600061481d858286016147e3565b925050602061482e85828601614483565b9150509250929050565b61484181614517565b82525050565b600060208201905061485c6000830184614838565b92915050565b61486b81614517565b811461487657600080fd5b50565b60008135905061488881614862565b92915050565b600080600080608085870312156148a8576148a7614438565b5b60006148b687828801614879565b94505060206148c78782880161444d565b93505060406148d887828801614483565b92505060606148e987828801614483565b91505092959194509250565b600081519050919050565b600082825260208201905092915050565b6000819050602082019050919050565b604082016000820151614937600085018261464b565b50602082015161494a602085018261463c565b50505050565b600061495c8383614921565b60408301905092915050565b6000602082019050919050565b6000614980826148f5565b61498a8185614900565b935061499583614911565b8060005b838110156149c65781516149ad8882614950565b97506149b883614968565b925050600181019050614999565b5085935050505092915050565b600060208201905081810360008301526149ed8184614975565b905092915050565b60008060408385031215614a0c57614a0b614438565b5b6000614a1a85828601614483565b9250506020614a2b85828601614483565b9150509250929050565b600060208284031215614a4b57614a4a614438565b5b6000614a5984828501614879565b91505092915050565b60058110614a6f57600080fd5b50565b600081359050614a8181614a62565b92915050565b60008060008060008060c08789031215614aa457614aa3614438565b5b6000614ab289828a0161444d565b9650506020614ac389828a01614a72565b9550506040614ad489828a01614483565b9450506060614ae589828a01614483565b9350506080614af689828a01614879565b92505060a0614b0789828a01614879565b9150509295509295509295565b61014082016000820151614b2b6000850182614521565b506020820151614b3e602085018261453c565b506040820151614b5160408501826145b3565b506060820151614b6460608501826145fb565b506080820151614b77608085018261463c565b5060a0820151614b8a60a085018261464b565b5060c0820151614b9d60c085018261464b565b5060e0820151614bb060e0850182614521565b50610100820151614bc5610100850182614521565b50610120820151614bda610120850182614521565b50505050565b600061014082019050614bf66000830184614b14565b92915050565b600060208284031215614c1257614c11614438565b5b6000614c2084828501614483565b91505092915050565b614c3281614462565b82525050565b614c418161462a565b82525050565b6000604082019050614c5c6000830185614c29565b614c696020830184614c38565b9392505050565b6000602082019050614c856000830184614c38565b92915050565b60008060408385031215614ca257614ca1614438565b5b6000614cb085828601614483565b9250506020614cc1858286016147e3565b9150509250929050565b60008060408385031215614ce257614ce1614438565b5b6000614cf085828601614879565b9250506020614d0185828601614483565b9150509250929050565b614d1481614530565b82525050565b6000602082019050614d2f6000830184614d0b565b92915050565b600060208284031215614d4b57614d4a614438565b5b6000614d59848285016147e3565b91505092915050565b600082825260208201905092915050565b7f4465783a207061697220646f65736e2774206578697374000000000000000000600082015250565b6000614da9601783614d62565b9150614db482614d73565b602082019050919050565b60006020820190508181036000830152614dd881614d9c565b9050919050565b7f4f776e61626c653a2063616c6c6572206973206e6f7420746865206f776e6572600082015250565b6000614e15602083614d62565b9150614e2082614ddf565b602082019050919050565b60006020820190508181036000830152614e4481614e08565b9050919050565b7f57616c6c65743a20696e73756666696369656e742065746865722062616c616e60008201527f6365000000000000000000000000000000000000000000000000000000000000602082015250565b6000614ea7602283614d62565b9150614eb282614e4b565b604082019050919050565b60006020820190508181036000830152614ed681614e9a565b9050919050565b7f4e487b7100000000000000000000000000000000000000000000000000000000600052601160045260246000fd5b6000614f1782614517565b9150614f2283614517565b9250817fffffffffffffffffffffffffffffffffffffffffffffffffffffffffffffffff0483118215151615614f5b57614f5a614edd565b5b828202905092915050565b7f4465783a20427579657220646f65736e2774206861766520656e6f756768207460008201527f6f6b657300000000000000000000000000000000000000000000000000000000602082015250565b6000614fc2602483614d62565b9150614fcd82614f66565b604082019050919050565b60006020820190508181036000830152614ff181614fb5565b9050919050565b7f4465783a2053656c6c657220646f65736e2774206861766520656e6f7567682060008201527f746f6b6573000000000000000000000000000000000000000000000000000000602082015250565b6000615054602583614d62565b915061505f82614ff8565b604082019050919050565b6000602082019050818103600083015261508381615047565b9050919050565b615093816145a1565b82525050565b6150a2816145e9565b82525050565b600060e0820190506150bd600083018a614838565b6150ca602083018961508a565b6150d76040830188615099565b6150e46060830187614c29565b6150f16080830186614c29565b6150fe60a0830185614838565b61510b60c0830184614838565b98975050505050505050565b7f57616c6c65743a20746f6b656e20646f6573206e6f7420657869747300000000600082015250565b600061514d601c83614d62565b915061515882615117565b602082019050919050565b6000602082019050818103600083015261517c81615140565b9050919050565b7f57616c6c65743a20696e73756666696369656e7420746f6b656e2062616c616e60008201527f6365000000000000000000000000000000000000000000000000000000000000602082015250565b60006151df602283614d62565b91506151ea82615183565b604082019050919050565b6000602082019050818103600083015261520e816151d2565b9050919050565b600060408201905061522a6000830185614c38565b6152376020830184614838565b9392505050565b61524781614530565b811461525257600080fd5b50565b6000815190506152648161523e565b92915050565b6000602082840312156152805761527f614438565b5b600061528e84828501615255565b91505092915050565b7f57616c6c65743a2063616e27742073656e6420746f6b656e7320746f2069747360008201527f656c660000000000000000000000000000000000000000000000000000000000602082015250565b60006152f3602383614d62565b91506152fe82615297565b604082019050919050565b60006020820190508181036000830152615322816152e6565b9050919050565b600060608201905061533e6000830186614c38565b61534b6020830185614c38565b6153586040830184614838565b949350505050565b7f57616c6c65743a2063616e27742073656e6420657468657220746f206974736560008201527f6c66000000000000000000000000000000000000000000000000000000000000602082015250565b60006153bc602283614d62565b91506153c782615360565b604082019050919050565b600060208201905081810360008301526153eb816153af565b9050919050565b60006153fd82614517565b915061540883614517565b9250827fffffffffffffffffffffffffffffffffffffffffffffffffffffffffffffffff0382111561543d5761543c614edd565b5b828201905092915050565b7f4f776e61626c653a206e6577206f776e657220697320746865207a65726f206160008201527f6464726573730000000000000000000000000000000000000000000000000000602082015250565b60006154a4602683614d62565b91506154af82615448565b604082019050919050565b600060208201905081810360008301526154d381615497565b9050919050565b7f4f7264657220646f65736e277420657869737400000000000000000000000000600082015250565b6000615510601383614d62565b915061551b826154da565b602082019050919050565b6000602082019050818103600083015261553f81615503565b9050919050565b7f4e487b7100000000000000000000000000000000000000000000000000000000600052603260045260246000fd5b7f4d75737420626520746865206f72646572206f776e6572000000000000000000600082015250565b60006155ab601783614d62565b91506155b682615575565b602082019050919050565b600060208201905081810360008301526155da8161559e565b9050919050565b60006155ec82614517565b91507fffffffffffffffffffffffffffffffffffffffffffffffffffffffffffffffff82141561561f5761561e614edd565b5b600182019050919050565b7f4d61726b6574206973206e6f7420617661696c61626c65000000000000000000600082015250565b6000615660601783614d62565b915061566b8261562a565b602082019050919050565b6000602082019050818103600083015261568f81615653565b9050919050565b60006156a182614517565b91506156ac83614517565b9250828210156156bf576156be614edd565b5b828203905092915050565b7f4f72646572426f6f6b3a207a65726f20616d6f756e7400000000000000000000600082015250565b6000615700601683614d62565b915061570b826156ca565b602082019050919050565b6000602082019050818103600083015261572f816156f3565b9050919050565b7f4f72646572426f6f6b3a204c696d6974206f726465722063616e6e6f7420686160008201527f7665207a65726f20707269636500000000000000000000000000000000000000602082015250565b6000615792602d83614d62565b915061579d82615736565b604082019050919050565b600060208201905081810360008301526157c181615785565b9050919050565b60006157d382614517565b915060008214156157e7576157e6614edd565b5b600182039050919050565b7f4e487b7100000000000000000000000000000000000000000000000000000000600052600160045260246000fd5b60006060820190506158366000830186614838565b6158436020830185614838565b6158506040830184614838565b949350505050565b600060408201905061586d6000830185614838565b61587a6020830184614838565b9392505050565b7f4e487b7100000000000000000000000000000000000000000000000000000000600052603160045260246000fdfea26469706673582212207b997c6738efc364e85f8f9b09b3410af9b9b41a2f5bbe2d61c3553b2aa6660064736f6c634300080a0033",
  "immutableReferences": {},
  "source": "// SPDX-License-Identifier: MIT\n\npragma solidity ^0.8.0;\npragma abicoder v2;\n\nimport \"./Wallet.sol\";\nimport \"./OrderBook.sol\";\nimport \"../node_modules/@openzeppelin/contracts/utils/math/Math.sol\";\n\ncontract Dex is Wallet, OrderBook {\n\n    using Math for uint256;\n\n    event OrderCreated(\n        uint256 id,\n        address indexed trader,\n        Side side, \n        OrderType orderType,\n        bytes32 tickerTo, \n        bytes32 tickerFrom, \n        uint256 price, \n        uint256 amount\n    );\n\n    event OrderRemoved(\n        uint256 id,\n        address indexed trader,\n        uint256 filled\n    );\n\n    event OrderFilled(\n        uint256 id,\n        address indexed trader,\n        uint256 price,\n        uint256 filled\n    );\n\n    mapping(bytes32 => mapping (bytes32 => bool)) public pairs;\n\n    modifier pairExists (bytes32 tickerTo, bytes32 tickerFrom) {\n        require (pairs[tickerTo][tickerFrom], \"Dex: pair doesn't exist\");\n        _;\n    }\n\n    function addPair(bytes32 tickerTo, bytes32 tickerFrom) public onlyOwner {\n        pairs[tickerTo][tickerFrom] = true;\n    }\n\n    function removePair(bytes32 tickerTo, bytes32 tickerFrom) public onlyOwner {\n        pairs[tickerTo][tickerFrom] = false;\n    }\n\n    function popTopOrder(\n        Side side,\n        bytes32 tickerTo, \n        bytes32 tickerFrom\n    ) \n    private {\n        uint256 topIndex = orderBook[tickerTo][tickerFrom][side].length - 1;\n        Order storage order = orderBook[tickerTo][tickerFrom][side][topIndex];\n        \n        emit OrderRemoved(\n            order.id, \n            order.trader, \n            order.filled\n        );\n        \n        delete orderBook[tickerTo][tickerFrom][side][topIndex];\n        \n        orderBook[tickerTo][tickerFrom][side].pop();\n    }\n\n    /**\n     * @dev Matches the orders on the order book based on their price and type\n     */\n    function processSwaps(bytes32 tickerTo, bytes32 tickerFrom) private {\n        // BUY and SELL `orderBook`s must both have entries\n        while (\n            orderBook[tickerTo][tickerFrom][Side.SELL].length > 0 && \n            orderBook[tickerTo][tickerFrom][Side.BUY].length > 0\n        ) \n        {    \n            // Get top BUY order\n            uint256 topBuyIndex = orderBook[tickerTo][tickerFrom][Side.BUY].length - 1;\n            Order storage topBuyOrder = orderBook[tickerTo][tickerFrom][Side.BUY][topBuyIndex];\n            \n            // Get top SELL order\n            uint256 topSellIndex = orderBook[tickerTo][tickerFrom][Side.SELL].length - 1;\n            Order storage topSellOrder = orderBook[tickerTo][tickerFrom][Side.SELL][topSellIndex];\n\n            /*\n            Check if the orders aren't cancelled. If any of the orders is cancelled then pop the order\n            and continue looking.\n            */\n            if (!topBuyOrder.isActive)\n                popTopOrder(Side.BUY, tickerTo, tickerFrom);\n            if (!topSellOrder.isActive)\n                popTopOrder(Side.SELL, tickerTo, tickerFrom);\n            if (!topSellOrder.isActive || !topBuyOrder.isActive)\n                continue;\n            \n            /* \n            If the top orders are both market orders then their price will be equal as the previous market\n            order's price will be the current market price and will propogate the the new market order\n            that is currently being placed on the opposite side of the order book.\n            */\n            if (topBuyOrder.orderType == OrderType.MARKET && topSellOrder.orderType == OrderType.MARKET) {\n                assert(topBuyOrder.price == topSellOrder.price);\n            }\n            // If topBuyOrder is limit and topSellOrder is market, then use the buy order price\n            else if (topBuyOrder.orderType != OrderType.MARKET && topSellOrder.orderType == OrderType.MARKET) {\n                topSellOrder.price = topBuyOrder.price;\n            }\n            // If topSellOrder is limit and topBuyOrder is market, then use the sell order price\n            else if (topBuyOrder.orderType == OrderType.MARKET && topSellOrder.orderType != OrderType.MARKET) {\n                topBuyOrder.price = topSellOrder.price;\n            }\n\n            // If buyer's price is less then seller's price then order can't be filled\n            if (topBuyOrder.price < topSellOrder.price)\n                break;\n\n            /* \n            For the most recent order that comes to processing, check if it is MOC order. If so\n            then pop at this point it can fulfill the opposite side of orders and hence it won't \n            rest on the order book. It should be cancelled.\n\n            Only one of the top orders can be cancelled as only one will be the most recent.\n            */\n            if (topBuyOrder.id == nextOrderId - 1 && topBuyOrder.orderType == OrderType.MOC) {\n                popTopOrder(Side.BUY, tickerTo, tickerFrom);\n                continue;\n            }\n            if (topBuyOrder.id == nextOrderId - 1 && topSellOrder.orderType == OrderType.MOC) {\n                popTopOrder(Side.SELL, tickerTo, tickerFrom);\n                continue;\n            }\n\n            // Calculate current fill price based on the order of arrival to the market\n            uint256 fillPrice = topSellOrder.id < topBuyOrder.id ? topSellOrder.price : topBuyOrder.price;\n\n            // Calculate the current order fill amount\n            // Take into account the partly filled amounts by subtracting already filled tokes from the total amount\n            uint256 remainingBuyOrderAmountToFill = topBuyOrder.amount - topBuyOrder.filled;\n            uint256 remainingSellOrderAmountToFill = topSellOrder.amount - topSellOrder.filled;\n            uint256 fillAmountTo = Math.min(remainingBuyOrderAmountToFill, remainingSellOrderAmountToFill);\n            uint256 fillAmountFrom = fillAmountTo * fillPrice;\n\n            /* \n            If FOK order then check if the fill amount == the order amount. \n            If so then remove the order.\n\n            Both of the top orders can be FOK orders, but only one of them can\n            be removed due to the projected partial fulfillment. \n            \n            In case when both orders are the FOK orders, the one with lesser amount\n            will remain on the order book.\n            */\n            bool fokBreak = false;\n            if (topBuyOrder.orderType == OrderType.FOK && topBuyOrder.amount != fillAmountTo){\n                popTopOrder(Side.BUY, tickerTo, tickerFrom);\n                fokBreak = true;\n            }\n            if (topSellOrder.orderType == OrderType.FOK && topSellOrder.amount != fillAmountTo){\n                popTopOrder(Side.SELL, tickerTo, tickerFrom);\n                fokBreak = true;\n            }\n            if (fokBreak)\n                continue;\n            \n            // Increase tickerTo and decrease tickerFrom tokens in buyer's wallet\n            balances[topBuyOrder.trader][tickerTo] += fillAmountTo;\n            balances[topBuyOrder.trader][tickerFrom] -= fillAmountFrom;\n\n            // Decrease tickerTo and increase tickerFrom tokens in sellers's wallet\n            balances[topSellOrder.trader][tickerTo] -= fillAmountTo;\n            balances[topSellOrder.trader][tickerFrom] += fillAmountFrom;\n\n            // Increase filled amount for both, buyer seller\n            topBuyOrder.filled += fillAmountTo;\n            topSellOrder.filled += fillAmountTo;\n\n            assert(topBuyOrder.filled <= topBuyOrder.amount);\n            assert(topSellOrder.filled <= topSellOrder.amount);\n\n            // Emit OrderFilled event for sell and buy orders\n            emit OrderFilled(\n                topBuyOrder.id,\n                topBuyOrder.trader,\n                fillPrice,\n                fillAmountTo\n            );\n\n            emit OrderFilled(\n                topSellOrder.id,\n                topSellOrder.trader,\n                fillPrice,\n                fillAmountTo\n            );\n\n            // If order.filled == amount, then the order can be popped\n            if (topBuyOrder.filled == topBuyOrder.amount) {\n                popTopOrder(Side.BUY, tickerTo, tickerFrom);\n            }\n            // If IOC order is partially filled then still pop the order from the order book\n            else if(topBuyOrder.orderType == OrderType.IOC && topBuyOrder.filled > 0){\n                popTopOrder(Side.BUY, tickerTo, tickerFrom);\n            }\n\n            if (topSellOrder.filled == topSellOrder.amount) {\n                popTopOrder(Side.SELL, tickerTo, tickerFrom);\n            }\n            // If IOC order is partially filled then still pop the order from the order book\n            else if(topSellOrder.orderType == OrderType.IOC && topSellOrder.filled > 0){\n                popTopOrder(Side.SELL, tickerTo, tickerFrom);\n            }\n        }\n    }\n\n    /**\n     * @dev creates an order to swap two tokens:\n     *  `amount` of tokens `tickerTo` are to be swapped for tokens `tickerFrom` @ `price`\n     * \n     *  `orderType` defines the type of order to place\n     *\n     *  For market orders the price doesn't matter and can be zero.\n     *  Market order will not be created if the opposite side of the order book is empty.\n     *\n     *  Overrides `createOrder` function from OrderBook.sol\n     */\n    function createOrder (\n        Side side, \n        OrderType orderType,\n        bytes32 tickerTo,\n        bytes32 tickerFrom, \n        uint256 price, \n        uint256 amount\n    )\n    public \n    virtual override \n    pairExists(tickerTo, tickerFrom)\n    returns (uint256) {\n        // Buyer can't swap for tokens he doesn't have\n        if (side == Side.BUY) {\n            uint256 buyersTokensToSwapBalance = balances[msg.sender][tickerFrom];\n            require(buyersTokensToSwapBalance >= price * amount, \"Dex: Buyer doesn't have enough tokes\");\n        }\n        else {\n            // Seller can't offer tokens for swap he doesn't have\n            uint256 sellersTokensToSwapBalance = balances[msg.sender][tickerTo];\n            require(sellersTokensToSwapBalance >= amount, \"Dex: Seller doesn't have enough tokes\");\n        }\n\n        uint256 orderId = super.createOrder(side, orderType, tickerTo, tickerFrom, price, amount);\n\n        emit OrderCreated(\n            orderId, \n            msg.sender, \n            side, \n            orderType, \n            tickerTo, \n            tickerFrom, \n            price, // for market orders price can be anything.\n            amount\n        );\n\n        processSwaps(tickerTo, tickerFrom);\n\n        return orderId;\n    }\n    function cancelOrder (\n        uint256 orderId,\n        Side side, \n        bytes32 tickerTo, \n        bytes32 tickerFrom\n    ) \n    public \n    virtual override\n    pairExists(tickerTo, tickerFrom)\n    {\n        super.cancelOrder(orderId, side, tickerTo, tickerFrom);\n    }\n\n    function getOrder (\n        uint256 orderId,\n        Side side, \n        bytes32 tickerTo, \n        bytes32 tickerFrom\n    ) \n    public \n    view \n    virtual override\n    pairExists(tickerTo, tickerFrom)\n    returns (Order memory order)\n    {\n        return super.getOrder(orderId, side, tickerTo, tickerFrom);\n    }\n\n    function getOrderBook(\n        Side side, \n        bytes32 tickerTo, \n        bytes32 tickerFrom\n    ) \n    public \n    view \n    virtual override\n    pairExists(tickerTo, tickerFrom)\n    returns(Order[] memory)\n    {\n        return super.getOrderBook(side, tickerTo, tickerFrom);\n    }\n\n    function getMarketPrice (\n        Side side, \n        bytes32 tickerTo, \n        bytes32 tickerFrom\n    ) \n    public \n    view \n    virtual override\n    pairExists(tickerTo, tickerFrom)\n    returns (uint256) \n    {\n        return super.getMarketPrice(side, tickerTo, tickerFrom);\n    }\n}\n",
  "sourcePath": "/Users/noname/truffle/iot_dex/contracts/Dex.sol",
  "compiler": {
    "name": "solc",
    "version": "0.8.10+commit.fc410830.Emscripten.clang"
  },
  "schemaVersion": "3.4.3",
  "updatedAt": "2021-11-10T11:37:52.503Z",
  "devdoc": {
    "kind": "dev",
    "methods": {
      "addToken(bytes32,address)": {
        "details": "Adds token to the wallet  Requirements: - `onlyOwner` can add a `token` - "
      },
      "cancelOrder(uint256,uint8,bytes32,bytes32)": {
        "details": "Cancel an order by setting isActive flag to false Algorithmic cost: O(n) Returns true if the order was cancelled. Returns false if the order was not found or had already been cancelled Reverts is the msg.sender doesn't match `trader` field."
      },
      "createOrder(uint8,uint8,bytes32,bytes32,uint256,uint256)": {
        "details": "creates an order to swap two tokens: `price`   `orderType` defines the type of order to place  For market orders the price doesn't matter and can be zero.  Market order will not be created if the opposite side of the order book is empty.  Overrides `createOrder` function from OrderBook.sol"
      },
      "deposit()": {
        "details": "Deposit ether to the wallet for `msg.sender`'s account  Requirements: - `msg.sender` cannot be equal to this(address)."
      },
      "deposit(uint256,bytes32)": {
        "details": "Deposit tokens to the wallet for `msg.sender`'s account  Requirements: - `msg.sender` cannot be equal to `tokenAddress`. - Token `ticker` MUST be present in `tokenMapping`."
      },
      "getTokenList()": {
        "details": "Get token list "
      },
      "owner()": {
        "details": "Returns the address of the current owner."
      },
      "renounceOwnership()": {
        "details": "Leaves the contract without owner. It will not be possible to call `onlyOwner` functions anymore. Can only be called by the current owner. NOTE: Renouncing ownership will leave the contract without an owner, thereby removing any functionality that is only available to the owner."
      },
      "transferOwnership(address)": {
        "details": "Transfers ownership of the contract to a new account (`newOwner`). Can only be called by the current owner."
      },
      "withdraw(uint256)": {
        "details": "Withdraw token @ `tokenAddress` contract for `msg.sender`'s account.  Requirements: - `msg.sender` MUST have a sufficient balance of ether to withdraw."
      },
      "withdraw(uint256,bytes32)": {
        "details": "Withdraw token @ `tokenAddress` contract for `msg.sender`'s account.  Requirements: - `msg.sender` MUST have a sufficient balance of tokens being withdrawn. - Token `ticker` MUST be present in `tokenMapping`."
      }
    },
    "version": 1
  },
  "userdoc": {
    "kind": "user",
    "methods": {},
    "version": 1
  }
}